{
	"smart-contract.sol": {
		"UserInformation": {
			"abi": [
				{
					"inputs": [
						{
							"internalType": "address",
							"name": "user_",
							"type": "address"
						},
						{
							"internalType": "string",
							"name": "name_",
							"type": "string"
						},
						{
							"internalType": "uint256",
							"name": "age_",
							"type": "uint256"
						},
						{
							"internalType": "string",
							"name": "email_",
							"type": "string"
						}
					],
					"name": "createRegister",
					"outputs": [],
					"stateMutability": "nonpayable",
					"type": "function"
				},
				{
					"inputs": [
						{
							"internalType": "address",
							"name": "",
							"type": "address"
						}
					],
					"name": "userInformation",
					"outputs": [
						{
							"internalType": "string",
							"name": "name",
							"type": "string"
						},
						{
							"internalType": "uint256",
							"name": "age",
							"type": "uint256"
						},
						{
							"internalType": "string",
							"name": "email",
							"type": "string"
						}
					],
					"stateMutability": "view",
					"type": "function"
				},
				{
					"inputs": [
						{
							"internalType": "uint256",
							"name": "",
							"type": "uint256"
						}
					],
					"name": "users",
					"outputs": [
						{
							"internalType": "string",
							"name": "name",
							"type": "string"
						},
						{
							"internalType": "uint256",
							"name": "age",
							"type": "uint256"
						},
						{
							"internalType": "string",
							"name": "email",
							"type": "string"
						}
					],
					"stateMutability": "view",
					"type": "function"
				}
			],
			"devdoc": {
				"kind": "dev",
				"methods": {},
				"version": 1
			},
			"evm": {
				"assembly": "    /* \"smart-contract.sol\":521:1046  contract UserInformation {... */\n  mstore(0x40, 0x80)\n  callvalue\n  dup1\n  iszero\n  tag_1\n  jumpi\n  revert(0x00, 0x00)\ntag_1:\n  pop\n  dataSize(sub_0)\n  dup1\n  dataOffset(sub_0)\n  0x00\n  codecopy\n  0x00\n  return\nstop\n\nsub_0: assembly {\n        /* \"smart-contract.sol\":521:1046  contract UserInformation {... */\n      mstore(0x40, 0x80)\n      callvalue\n      dup1\n      iszero\n      tag_1\n      jumpi\n      revert(0x00, 0x00)\n    tag_1:\n      pop\n      jumpi(tag_2, lt(calldatasize, 0x04))\n      shr(0xe0, calldataload(0x00))\n      dup1\n      0x365b98b2\n      eq\n      tag_3\n      jumpi\n      dup1\n      0x7d2e227d\n      eq\n      tag_4\n      jumpi\n      dup1\n      0xd600e1a1\n      eq\n      tag_5\n      jumpi\n    tag_2:\n      revert(0x00, 0x00)\n        /* \"smart-contract.sol\":704:723  User[] public users */\n    tag_3:\n      tag_6\n      0x04\n      dup1\n      calldatasize\n      sub\n      dup2\n      add\n      swap1\n      tag_7\n      swap2\n      swap1\n      tag_8\n      jump\t// in\n    tag_7:\n      tag_9\n      jump\t// in\n    tag_6:\n      mload(0x40)\n      tag_10\n      swap4\n      swap3\n      swap2\n      swap1\n      tag_11\n      jump\t// in\n    tag_10:\n      mload(0x40)\n      dup1\n      swap2\n      sub\n      swap1\n      return\n        /* \"smart-contract.sol\":652:697  mapping(address=>User) public userInformation */\n    tag_4:\n      tag_12\n      0x04\n      dup1\n      calldatasize\n      sub\n      dup2\n      add\n      swap1\n      tag_13\n      swap2\n      swap1\n      tag_14\n      jump\t// in\n    tag_13:\n      tag_15\n      jump\t// in\n    tag_12:\n      mload(0x40)\n      tag_16\n      swap4\n      swap3\n      swap2\n      swap1\n      tag_11\n      jump\t// in\n    tag_16:\n      mload(0x40)\n      dup1\n      swap2\n      sub\n      swap1\n      return\n        /* \"smart-contract.sol\":732:1043  function createRegister(address user_, string memory name_, uint256 age_, string memory email_) public {        ... */\n    tag_5:\n      tag_17\n      0x04\n      dup1\n      calldatasize\n      sub\n      dup2\n      add\n      swap1\n      tag_18\n      swap2\n      swap1\n      tag_19\n      jump\t// in\n    tag_18:\n      tag_20\n      jump\t// in\n    tag_17:\n      stop\n        /* \"smart-contract.sol\":704:723  User[] public users */\n    tag_9:\n      0x01\n      dup2\n      dup2\n      sload\n      dup2\n      lt\n      tag_21\n      jumpi\n      0x00\n      dup1\n      revert\n    tag_21:\n      swap1\n      0x00\n      mstore\n      keccak256(0x00, 0x20)\n      swap1\n      0x03\n      mul\n      add\n      0x00\n      swap2\n      pop\n      swap1\n      pop\n      dup1\n      0x00\n      add\n      dup1\n      sload\n      tag_23\n      swap1\n      tag_24\n      jump\t// in\n    tag_23:\n      dup1\n      0x1f\n      add\n      0x20\n      dup1\n      swap2\n      div\n      mul\n      0x20\n      add\n      mload(0x40)\n      swap1\n      dup2\n      add\n      0x40\n      mstore\n      dup1\n      swap3\n      swap2\n      swap1\n      dup2\n      dup2\n      mstore\n      0x20\n      add\n      dup3\n      dup1\n      sload\n      tag_25\n      swap1\n      tag_24\n      jump\t// in\n    tag_25:\n      dup1\n      iszero\n      tag_26\n      jumpi\n      dup1\n      0x1f\n      lt\n      tag_27\n      jumpi\n      0x0100\n      dup1\n      dup4\n      sload\n      div\n      mul\n      dup4\n      mstore\n      swap2\n      0x20\n      add\n      swap2\n      jump(tag_26)\n    tag_27:\n      dup3\n      add\n      swap2\n      swap1\n      0x00\n      mstore\n      keccak256(0x00, 0x20)\n      swap1\n    tag_28:\n      dup2\n      sload\n      dup2\n      mstore\n      swap1\n      0x01\n      add\n      swap1\n      0x20\n      add\n      dup1\n      dup4\n      gt\n      tag_28\n      jumpi\n      dup3\n      swap1\n      sub\n      0x1f\n      and\n      dup3\n      add\n      swap2\n    tag_26:\n      pop\n      pop\n      pop\n      pop\n      pop\n      swap1\n      dup1\n      0x01\n      add\n      sload\n      swap1\n      dup1\n      0x02\n      add\n      dup1\n      sload\n      tag_29\n      swap1\n      tag_24\n      jump\t// in\n    tag_29:\n      dup1\n      0x1f\n      add\n      0x20\n      dup1\n      swap2\n      div\n      mul\n      0x20\n      add\n      mload(0x40)\n      swap1\n      dup2\n      add\n      0x40\n      mstore\n      dup1\n      swap3\n      swap2\n      swap1\n      dup2\n      dup2\n      mstore\n      0x20\n      add\n      dup3\n      dup1\n      sload\n      tag_30\n      swap1\n      tag_24\n      jump\t// in\n    tag_30:\n      dup1\n      iszero\n      tag_31\n      jumpi\n      dup1\n      0x1f\n      lt\n      tag_32\n      jumpi\n      0x0100\n      dup1\n      dup4\n      sload\n      div\n      mul\n      dup4\n      mstore\n      swap2\n      0x20\n      add\n      swap2\n      jump(tag_31)\n    tag_32:\n      dup3\n      add\n      swap2\n      swap1\n      0x00\n      mstore\n      keccak256(0x00, 0x20)\n      swap1\n    tag_33:\n      dup2\n      sload\n      dup2\n      mstore\n      swap1\n      0x01\n      add\n      swap1\n      0x20\n      add\n      dup1\n      dup4\n      gt\n      tag_33\n      jumpi\n      dup3\n      swap1\n      sub\n      0x1f\n      and\n      dup3\n      add\n      swap2\n    tag_31:\n      pop\n      pop\n      pop\n      pop\n      pop\n      swap1\n      pop\n      dup4\n      jump\t// out\n        /* \"smart-contract.sol\":652:697  mapping(address=>User) public userInformation */\n    tag_15:\n      mstore(0x20, 0x00)\n      dup1\n      0x00\n      mstore\n      keccak256(0x00, 0x40)\n      0x00\n      swap2\n      pop\n      swap1\n      pop\n      dup1\n      0x00\n      add\n      dup1\n      sload\n      tag_34\n      swap1\n      tag_24\n      jump\t// in\n    tag_34:\n      dup1\n      0x1f\n      add\n      0x20\n      dup1\n      swap2\n      div\n      mul\n      0x20\n      add\n      mload(0x40)\n      swap1\n      dup2\n      add\n      0x40\n      mstore\n      dup1\n      swap3\n      swap2\n      swap1\n      dup2\n      dup2\n      mstore\n      0x20\n      add\n      dup3\n      dup1\n      sload\n      tag_35\n      swap1\n      tag_24\n      jump\t// in\n    tag_35:\n      dup1\n      iszero\n      tag_36\n      jumpi\n      dup1\n      0x1f\n      lt\n      tag_37\n      jumpi\n      0x0100\n      dup1\n      dup4\n      sload\n      div\n      mul\n      dup4\n      mstore\n      swap2\n      0x20\n      add\n      swap2\n      jump(tag_36)\n    tag_37:\n      dup3\n      add\n      swap2\n      swap1\n      0x00\n      mstore\n      keccak256(0x00, 0x20)\n      swap1\n    tag_38:\n      dup2\n      sload\n      dup2\n      mstore\n      swap1\n      0x01\n      add\n      swap1\n      0x20\n      add\n      dup1\n      dup4\n      gt\n      tag_38\n      jumpi\n      dup3\n      swap1\n      sub\n      0x1f\n      and\n      dup3\n      add\n      swap2\n    tag_36:\n      pop\n      pop\n      pop\n      pop\n      pop\n      swap1\n      dup1\n      0x01\n      add\n      sload\n      swap1\n      dup1\n      0x02\n      add\n      dup1\n      sload\n      tag_39\n      swap1\n      tag_24\n      jump\t// in\n    tag_39:\n      dup1\n      0x1f\n      add\n      0x20\n      dup1\n      swap2\n      div\n      mul\n      0x20\n      add\n      mload(0x40)\n      swap1\n      dup2\n      add\n      0x40\n      mstore\n      dup1\n      swap3\n      swap2\n      swap1\n      dup2\n      dup2\n      mstore\n      0x20\n      add\n      dup3\n      dup1\n      sload\n      tag_40\n      swap1\n      tag_24\n      jump\t// in\n    tag_40:\n      dup1\n      iszero\n      tag_41\n      jumpi\n      dup1\n      0x1f\n      lt\n      tag_42\n      jumpi\n      0x0100\n      dup1\n      dup4\n      sload\n      div\n      mul\n      dup4\n      mstore\n      swap2\n      0x20\n      add\n      swap2\n      jump(tag_41)\n    tag_42:\n      dup3\n      add\n      swap2\n      swap1\n      0x00\n      mstore\n      keccak256(0x00, 0x20)\n      swap1\n    tag_43:\n      dup2\n      sload\n      dup2\n      mstore\n      swap1\n      0x01\n      add\n      swap1\n      0x20\n      add\n      dup1\n      dup4\n      gt\n      tag_43\n      jumpi\n      dup3\n      swap1\n      sub\n      0x1f\n      and\n      dup3\n      add\n      swap2\n    tag_41:\n      pop\n      pop\n      pop\n      pop\n      pop\n      swap1\n      pop\n      dup4\n      jump\t// out\n        /* \"smart-contract.sol\":732:1043  function createRegister(address user_, string memory name_, uint256 age_, string memory email_) public {        ... */\n    tag_20:\n        /* \"smart-contract.sol\":854:870  User memory user */\n      0x00\n        /* \"smart-contract.sol\":873:968  User({... */\n      mload(0x40)\n      dup1\n      0x60\n      add\n      0x40\n      mstore\n      dup1\n        /* \"smart-contract.sol\":899:904  name_ */\n      dup6\n        /* \"smart-contract.sol\":873:968  User({... */\n      dup2\n      mstore\n      0x20\n      add\n        /* \"smart-contract.sol\":924:928  age_ */\n      dup5\n        /* \"smart-contract.sol\":873:968  User({... */\n      dup2\n      mstore\n      0x20\n      add\n        /* \"smart-contract.sol\":950:956  email_ */\n      dup4\n        /* \"smart-contract.sol\":873:968  User({... */\n      dup2\n      mstore\n      pop\n        /* \"smart-contract.sol\":854:968  User memory user = User({... */\n      swap1\n      pop\n        /* \"smart-contract.sol\":1004:1008  user */\n      dup1\n        /* \"smart-contract.sol\":979:994  userInformation */\n      0x00\n        /* \"smart-contract.sol\":979:1001  userInformation[user_] */\n      0x00\n        /* \"smart-contract.sol\":995:1000  user_ */\n      dup8\n        /* \"smart-contract.sol\":979:1001  userInformation[user_] */\n      0xffffffffffffffffffffffffffffffffffffffff\n      and\n      0xffffffffffffffffffffffffffffffffffffffff\n      and\n      dup2\n      mstore\n      0x20\n      add\n      swap1\n      dup2\n      mstore\n      0x20\n      add\n      0x00\n      keccak256\n        /* \"smart-contract.sol\":979:1008  userInformation[user_] = user */\n      0x00\n      dup3\n      add\n      mload\n      dup2\n      0x00\n      add\n      swap1\n      dup2\n      tag_45\n      swap2\n      swap1\n      tag_46\n      jump\t// in\n    tag_45:\n      pop\n      0x20\n      dup3\n      add\n      mload\n      dup2\n      0x01\n      add\n      sstore\n      0x40\n      dup3\n      add\n      mload\n      dup2\n      0x02\n      add\n      swap1\n      dup2\n      tag_47\n      swap2\n      swap1\n      tag_46\n      jump\t// in\n    tag_47:\n      pop\n      swap1\n      pop\n      pop\n        /* \"smart-contract.sol\":1019:1024  users */\n      0x01\n        /* \"smart-contract.sol\":1030:1034  user */\n      dup2\n        /* \"smart-contract.sol\":1019:1035  users.push(user) */\n      swap1\n      dup1\n      0x01\n      dup2\n      sload\n      add\n      dup1\n      dup3\n      sstore\n      dup1\n      swap2\n      pop\n      pop\n      0x01\n      swap1\n      sub\n      swap1\n      0x00\n      mstore\n      keccak256(0x00, 0x20)\n      swap1\n      0x03\n      mul\n      add\n      0x00\n      swap1\n      swap2\n      swap1\n      swap2\n      swap1\n      swap2\n      pop\n      0x00\n      dup3\n      add\n      mload\n      dup2\n      0x00\n      add\n      swap1\n      dup2\n      tag_49\n      swap2\n      swap1\n      tag_46\n      jump\t// in\n    tag_49:\n      pop\n      0x20\n      dup3\n      add\n      mload\n      dup2\n      0x01\n      add\n      sstore\n      0x40\n      dup3\n      add\n      mload\n      dup2\n      0x02\n      add\n      swap1\n      dup2\n      tag_50\n      swap2\n      swap1\n      tag_46\n      jump\t// in\n    tag_50:\n      pop\n      pop\n      pop\n        /* \"smart-contract.sol\":835:1043  {        ... */\n      pop\n        /* \"smart-contract.sol\":732:1043  function createRegister(address user_, string memory name_, uint256 age_, string memory email_) public {        ... */\n      pop\n      pop\n      pop\n      pop\n      jump\t// out\n        /* \"#utility.yul\":7:82   */\n    tag_51:\n        /* \"#utility.yul\":40:46   */\n      0x00\n        /* \"#utility.yul\":73:75   */\n      0x40\n        /* \"#utility.yul\":67:76   */\n      mload\n        /* \"#utility.yul\":57:76   */\n      swap1\n      pop\n        /* \"#utility.yul\":7:82   */\n      swap1\n      jump\t// out\n        /* \"#utility.yul\":88:205   */\n    tag_52:\n        /* \"#utility.yul\":197:198   */\n      0x00\n        /* \"#utility.yul\":194:195   */\n      0x00\n        /* \"#utility.yul\":187:199   */\n      revert\n        /* \"#utility.yul\":211:328   */\n    tag_53:\n        /* \"#utility.yul\":320:321   */\n      0x00\n        /* \"#utility.yul\":317:318   */\n      0x00\n        /* \"#utility.yul\":310:322   */\n      revert\n        /* \"#utility.yul\":334:411   */\n    tag_54:\n        /* \"#utility.yul\":371:378   */\n      0x00\n        /* \"#utility.yul\":400:405   */\n      dup2\n        /* \"#utility.yul\":389:405   */\n      swap1\n      pop\n        /* \"#utility.yul\":334:411   */\n      swap2\n      swap1\n      pop\n      jump\t// out\n        /* \"#utility.yul\":417:539   */\n    tag_55:\n        /* \"#utility.yul\":490:514   */\n      tag_98\n        /* \"#utility.yul\":508:513   */\n      dup2\n        /* \"#utility.yul\":490:514   */\n      tag_54\n      jump\t// in\n    tag_98:\n        /* \"#utility.yul\":483:488   */\n      dup2\n        /* \"#utility.yul\":480:515   */\n      eq\n        /* \"#utility.yul\":470:533   */\n      tag_99\n      jumpi\n        /* \"#utility.yul\":529:530   */\n      0x00\n        /* \"#utility.yul\":526:527   */\n      0x00\n        /* \"#utility.yul\":519:531   */\n      revert\n        /* \"#utility.yul\":470:533   */\n    tag_99:\n        /* \"#utility.yul\":417:539   */\n      pop\n      jump\t// out\n        /* \"#utility.yul\":545:684   */\n    tag_56:\n        /* \"#utility.yul\":591:596   */\n      0x00\n        /* \"#utility.yul\":629:635   */\n      dup2\n        /* \"#utility.yul\":616:636   */\n      calldataload\n        /* \"#utility.yul\":607:636   */\n      swap1\n      pop\n        /* \"#utility.yul\":645:678   */\n      tag_101\n        /* \"#utility.yul\":672:677   */\n      dup2\n        /* \"#utility.yul\":645:678   */\n      tag_55\n      jump\t// in\n    tag_101:\n        /* \"#utility.yul\":545:684   */\n      swap3\n      swap2\n      pop\n      pop\n      jump\t// out\n        /* \"#utility.yul\":690:1019   */\n    tag_8:\n        /* \"#utility.yul\":749:755   */\n      0x00\n        /* \"#utility.yul\":798:800   */\n      0x20\n        /* \"#utility.yul\":786:795   */\n      dup3\n        /* \"#utility.yul\":777:784   */\n      dup5\n        /* \"#utility.yul\":773:796   */\n      sub\n        /* \"#utility.yul\":769:801   */\n      slt\n        /* \"#utility.yul\":766:885   */\n      iszero\n      tag_103\n      jumpi\n        /* \"#utility.yul\":804:883   */\n      tag_104\n      tag_52\n      jump\t// in\n    tag_104:\n        /* \"#utility.yul\":766:885   */\n    tag_103:\n        /* \"#utility.yul\":924:925   */\n      0x00\n        /* \"#utility.yul\":949:1002   */\n      tag_105\n        /* \"#utility.yul\":994:1001   */\n      dup5\n        /* \"#utility.yul\":985:991   */\n      dup3\n        /* \"#utility.yul\":974:983   */\n      dup6\n        /* \"#utility.yul\":970:992   */\n      add\n        /* \"#utility.yul\":949:1002   */\n      tag_56\n      jump\t// in\n    tag_105:\n        /* \"#utility.yul\":939:1002   */\n      swap2\n      pop\n        /* \"#utility.yul\":895:1012   */\n      pop\n        /* \"#utility.yul\":690:1019   */\n      swap3\n      swap2\n      pop\n      pop\n      jump\t// out\n        /* \"#utility.yul\":1025:1124   */\n    tag_57:\n        /* \"#utility.yul\":1077:1083   */\n      0x00\n        /* \"#utility.yul\":1111:1116   */\n      dup2\n        /* \"#utility.yul\":1105:1117   */\n      mload\n        /* \"#utility.yul\":1095:1117   */\n      swap1\n      pop\n        /* \"#utility.yul\":1025:1124   */\n      swap2\n      swap1\n      pop\n      jump\t// out\n        /* \"#utility.yul\":1130:1299   */\n    tag_58:\n        /* \"#utility.yul\":1214:1225   */\n      0x00\n        /* \"#utility.yul\":1248:1254   */\n      dup3\n        /* \"#utility.yul\":1243:1246   */\n      dup3\n        /* \"#utility.yul\":1236:1255   */\n      mstore\n        /* \"#utility.yul\":1288:1292   */\n      0x20\n        /* \"#utility.yul\":1283:1286   */\n      dup3\n        /* \"#utility.yul\":1279:1293   */\n      add\n        /* \"#utility.yul\":1264:1293   */\n      swap1\n      pop\n        /* \"#utility.yul\":1130:1299   */\n      swap3\n      swap2\n      pop\n      pop\n      jump\t// out\n        /* \"#utility.yul\":1305:1444   */\n    tag_59:\n        /* \"#utility.yul\":1394:1400   */\n      dup3\n        /* \"#utility.yul\":1389:1392   */\n      dup2\n        /* \"#utility.yul\":1384:1387   */\n      dup4\n        /* \"#utility.yul\":1378:1401   */\n      mcopy\n        /* \"#utility.yul\":1435:1436   */\n      0x00\n        /* \"#utility.yul\":1426:1432   */\n      dup4\n        /* \"#utility.yul\":1421:1424   */\n      dup4\n        /* \"#utility.yul\":1417:1433   */\n      add\n        /* \"#utility.yul\":1410:1437   */\n      mstore\n        /* \"#utility.yul\":1305:1444   */\n      pop\n      pop\n      pop\n      jump\t// out\n        /* \"#utility.yul\":1450:1552   */\n    tag_60:\n        /* \"#utility.yul\":1491:1497   */\n      0x00\n        /* \"#utility.yul\":1542:1544   */\n      0x1f\n        /* \"#utility.yul\":1538:1545   */\n      not\n        /* \"#utility.yul\":1533:1535   */\n      0x1f\n        /* \"#utility.yul\":1526:1531   */\n      dup4\n        /* \"#utility.yul\":1522:1536   */\n      add\n        /* \"#utility.yul\":1518:1546   */\n      and\n        /* \"#utility.yul\":1508:1546   */\n      swap1\n      pop\n        /* \"#utility.yul\":1450:1552   */\n      swap2\n      swap1\n      pop\n      jump\t// out\n        /* \"#utility.yul\":1558:1935   */\n    tag_61:\n        /* \"#utility.yul\":1646:1649   */\n      0x00\n        /* \"#utility.yul\":1674:1713   */\n      tag_111\n        /* \"#utility.yul\":1707:1712   */\n      dup3\n        /* \"#utility.yul\":1674:1713   */\n      tag_57\n      jump\t// in\n    tag_111:\n        /* \"#utility.yul\":1729:1800   */\n      tag_112\n        /* \"#utility.yul\":1793:1799   */\n      dup2\n        /* \"#utility.yul\":1788:1791   */\n      dup6\n        /* \"#utility.yul\":1729:1800   */\n      tag_58\n      jump\t// in\n    tag_112:\n        /* \"#utility.yul\":1722:1800   */\n      swap4\n      pop\n        /* \"#utility.yul\":1809:1874   */\n      tag_113\n        /* \"#utility.yul\":1867:1873   */\n      dup2\n        /* \"#utility.yul\":1862:1865   */\n      dup6\n        /* \"#utility.yul\":1855:1859   */\n      0x20\n        /* \"#utility.yul\":1848:1853   */\n      dup7\n        /* \"#utility.yul\":1844:1860   */\n      add\n        /* \"#utility.yul\":1809:1874   */\n      tag_59\n      jump\t// in\n    tag_113:\n        /* \"#utility.yul\":1899:1928   */\n      tag_114\n        /* \"#utility.yul\":1921:1927   */\n      dup2\n        /* \"#utility.yul\":1899:1928   */\n      tag_60\n      jump\t// in\n    tag_114:\n        /* \"#utility.yul\":1894:1897   */\n      dup5\n        /* \"#utility.yul\":1890:1929   */\n      add\n        /* \"#utility.yul\":1883:1929   */\n      swap2\n      pop\n        /* \"#utility.yul\":1650:1935   */\n      pop\n        /* \"#utility.yul\":1558:1935   */\n      swap3\n      swap2\n      pop\n      pop\n      jump\t// out\n        /* \"#utility.yul\":1941:2059   */\n    tag_62:\n        /* \"#utility.yul\":2028:2052   */\n      tag_116\n        /* \"#utility.yul\":2046:2051   */\n      dup2\n        /* \"#utility.yul\":2028:2052   */\n      tag_54\n      jump\t// in\n    tag_116:\n        /* \"#utility.yul\":2023:2026   */\n      dup3\n        /* \"#utility.yul\":2016:2053   */\n      mstore\n        /* \"#utility.yul\":1941:2059   */\n      pop\n      pop\n      jump\t// out\n        /* \"#utility.yul\":2065:2689   */\n    tag_11:\n        /* \"#utility.yul\":2254:2258   */\n      0x00\n        /* \"#utility.yul\":2292:2294   */\n      0x60\n        /* \"#utility.yul\":2281:2290   */\n      dup3\n        /* \"#utility.yul\":2277:2295   */\n      add\n        /* \"#utility.yul\":2269:2295   */\n      swap1\n      pop\n        /* \"#utility.yul\":2341:2350   */\n      dup2\n        /* \"#utility.yul\":2335:2339   */\n      dup2\n        /* \"#utility.yul\":2331:2351   */\n      sub\n        /* \"#utility.yul\":2327:2328   */\n      0x00\n        /* \"#utility.yul\":2316:2325   */\n      dup4\n        /* \"#utility.yul\":2312:2329   */\n      add\n        /* \"#utility.yul\":2305:2352   */\n      mstore\n        /* \"#utility.yul\":2369:2447   */\n      tag_118\n        /* \"#utility.yul\":2442:2446   */\n      dup2\n        /* \"#utility.yul\":2433:2439   */\n      dup7\n        /* \"#utility.yul\":2369:2447   */\n      tag_61\n      jump\t// in\n    tag_118:\n        /* \"#utility.yul\":2361:2447   */\n      swap1\n      pop\n        /* \"#utility.yul\":2457:2529   */\n      tag_119\n        /* \"#utility.yul\":2525:2527   */\n      0x20\n        /* \"#utility.yul\":2514:2523   */\n      dup4\n        /* \"#utility.yul\":2510:2528   */\n      add\n        /* \"#utility.yul\":2501:2507   */\n      dup6\n        /* \"#utility.yul\":2457:2529   */\n      tag_62\n      jump\t// in\n    tag_119:\n        /* \"#utility.yul\":2576:2585   */\n      dup2\n        /* \"#utility.yul\":2570:2574   */\n      dup2\n        /* \"#utility.yul\":2566:2586   */\n      sub\n        /* \"#utility.yul\":2561:2563   */\n      0x40\n        /* \"#utility.yul\":2550:2559   */\n      dup4\n        /* \"#utility.yul\":2546:2564   */\n      add\n        /* \"#utility.yul\":2539:2587   */\n      mstore\n        /* \"#utility.yul\":2604:2682   */\n      tag_120\n        /* \"#utility.yul\":2677:2681   */\n      dup2\n        /* \"#utility.yul\":2668:2674   */\n      dup5\n        /* \"#utility.yul\":2604:2682   */\n      tag_61\n      jump\t// in\n    tag_120:\n        /* \"#utility.yul\":2596:2682   */\n      swap1\n      pop\n        /* \"#utility.yul\":2065:2689   */\n      swap5\n      swap4\n      pop\n      pop\n      pop\n      pop\n      jump\t// out\n        /* \"#utility.yul\":2695:2821   */\n    tag_63:\n        /* \"#utility.yul\":2732:2739   */\n      0x00\n        /* \"#utility.yul\":2772:2814   */\n      0xffffffffffffffffffffffffffffffffffffffff\n        /* \"#utility.yul\":2765:2770   */\n      dup3\n        /* \"#utility.yul\":2761:2815   */\n      and\n        /* \"#utility.yul\":2750:2815   */\n      swap1\n      pop\n        /* \"#utility.yul\":2695:2821   */\n      swap2\n      swap1\n      pop\n      jump\t// out\n        /* \"#utility.yul\":2827:2923   */\n    tag_64:\n        /* \"#utility.yul\":2864:2871   */\n      0x00\n        /* \"#utility.yul\":2893:2917   */\n      tag_123\n        /* \"#utility.yul\":2911:2916   */\n      dup3\n        /* \"#utility.yul\":2893:2917   */\n      tag_63\n      jump\t// in\n    tag_123:\n        /* \"#utility.yul\":2882:2917   */\n      swap1\n      pop\n        /* \"#utility.yul\":2827:2923   */\n      swap2\n      swap1\n      pop\n      jump\t// out\n        /* \"#utility.yul\":2929:3051   */\n    tag_65:\n        /* \"#utility.yul\":3002:3026   */\n      tag_125\n        /* \"#utility.yul\":3020:3025   */\n      dup2\n        /* \"#utility.yul\":3002:3026   */\n      tag_64\n      jump\t// in\n    tag_125:\n        /* \"#utility.yul\":2995:3000   */\n      dup2\n        /* \"#utility.yul\":2992:3027   */\n      eq\n        /* \"#utility.yul\":2982:3045   */\n      tag_126\n      jumpi\n        /* \"#utility.yul\":3041:3042   */\n      0x00\n        /* \"#utility.yul\":3038:3039   */\n      0x00\n        /* \"#utility.yul\":3031:3043   */\n      revert\n        /* \"#utility.yul\":2982:3045   */\n    tag_126:\n        /* \"#utility.yul\":2929:3051   */\n      pop\n      jump\t// out\n        /* \"#utility.yul\":3057:3196   */\n    tag_66:\n        /* \"#utility.yul\":3103:3108   */\n      0x00\n        /* \"#utility.yul\":3141:3147   */\n      dup2\n        /* \"#utility.yul\":3128:3148   */\n      calldataload\n        /* \"#utility.yul\":3119:3148   */\n      swap1\n      pop\n        /* \"#utility.yul\":3157:3190   */\n      tag_128\n        /* \"#utility.yul\":3184:3189   */\n      dup2\n        /* \"#utility.yul\":3157:3190   */\n      tag_65\n      jump\t// in\n    tag_128:\n        /* \"#utility.yul\":3057:3196   */\n      swap3\n      swap2\n      pop\n      pop\n      jump\t// out\n        /* \"#utility.yul\":3202:3531   */\n    tag_14:\n        /* \"#utility.yul\":3261:3267   */\n      0x00\n        /* \"#utility.yul\":3310:3312   */\n      0x20\n        /* \"#utility.yul\":3298:3307   */\n      dup3\n        /* \"#utility.yul\":3289:3296   */\n      dup5\n        /* \"#utility.yul\":3285:3308   */\n      sub\n        /* \"#utility.yul\":3281:3313   */\n      slt\n        /* \"#utility.yul\":3278:3397   */\n      iszero\n      tag_130\n      jumpi\n        /* \"#utility.yul\":3316:3395   */\n      tag_131\n      tag_52\n      jump\t// in\n    tag_131:\n        /* \"#utility.yul\":3278:3397   */\n    tag_130:\n        /* \"#utility.yul\":3436:3437   */\n      0x00\n        /* \"#utility.yul\":3461:3514   */\n      tag_132\n        /* \"#utility.yul\":3506:3513   */\n      dup5\n        /* \"#utility.yul\":3497:3503   */\n      dup3\n        /* \"#utility.yul\":3486:3495   */\n      dup6\n        /* \"#utility.yul\":3482:3504   */\n      add\n        /* \"#utility.yul\":3461:3514   */\n      tag_66\n      jump\t// in\n    tag_132:\n        /* \"#utility.yul\":3451:3514   */\n      swap2\n      pop\n        /* \"#utility.yul\":3407:3524   */\n      pop\n        /* \"#utility.yul\":3202:3531   */\n      swap3\n      swap2\n      pop\n      pop\n      jump\t// out\n        /* \"#utility.yul\":3537:3654   */\n    tag_67:\n        /* \"#utility.yul\":3646:3647   */\n      0x00\n        /* \"#utility.yul\":3643:3644   */\n      0x00\n        /* \"#utility.yul\":3636:3648   */\n      revert\n        /* \"#utility.yul\":3660:3777   */\n    tag_68:\n        /* \"#utility.yul\":3769:3770   */\n      0x00\n        /* \"#utility.yul\":3766:3767   */\n      0x00\n        /* \"#utility.yul\":3759:3771   */\n      revert\n        /* \"#utility.yul\":3783:3963   */\n    tag_69:\n        /* \"#utility.yul\":3831:3908   */\n      0x4e487b7100000000000000000000000000000000000000000000000000000000\n        /* \"#utility.yul\":3828:3829   */\n      0x00\n        /* \"#utility.yul\":3821:3909   */\n      mstore\n        /* \"#utility.yul\":3928:3932   */\n      0x41\n        /* \"#utility.yul\":3925:3926   */\n      0x04\n        /* \"#utility.yul\":3918:3933   */\n      mstore\n        /* \"#utility.yul\":3952:3956   */\n      0x24\n        /* \"#utility.yul\":3949:3950   */\n      0x00\n        /* \"#utility.yul\":3942:3957   */\n      revert\n        /* \"#utility.yul\":3969:4250   */\n    tag_70:\n        /* \"#utility.yul\":4052:4079   */\n      tag_137\n        /* \"#utility.yul\":4074:4078   */\n      dup3\n        /* \"#utility.yul\":4052:4079   */\n      tag_60\n      jump\t// in\n    tag_137:\n        /* \"#utility.yul\":4044:4050   */\n      dup2\n        /* \"#utility.yul\":4040:4080   */\n      add\n        /* \"#utility.yul\":4182:4188   */\n      dup2\n        /* \"#utility.yul\":4170:4180   */\n      dup2\n        /* \"#utility.yul\":4167:4189   */\n      lt\n        /* \"#utility.yul\":4146:4164   */\n      0xffffffffffffffff\n        /* \"#utility.yul\":4134:4144   */\n      dup3\n        /* \"#utility.yul\":4131:4165   */\n      gt\n        /* \"#utility.yul\":4128:4190   */\n      or\n        /* \"#utility.yul\":4125:4213   */\n      iszero\n      tag_138\n      jumpi\n        /* \"#utility.yul\":4193:4211   */\n      tag_139\n      tag_69\n      jump\t// in\n    tag_139:\n        /* \"#utility.yul\":4125:4213   */\n    tag_138:\n        /* \"#utility.yul\":4233:4243   */\n      dup1\n        /* \"#utility.yul\":4229:4231   */\n      0x40\n        /* \"#utility.yul\":4222:4244   */\n      mstore\n        /* \"#utility.yul\":4012:4250   */\n      pop\n        /* \"#utility.yul\":3969:4250   */\n      pop\n      pop\n      jump\t// out\n        /* \"#utility.yul\":4256:4385   */\n    tag_71:\n        /* \"#utility.yul\":4290:4296   */\n      0x00\n        /* \"#utility.yul\":4317:4337   */\n      tag_141\n      tag_51\n      jump\t// in\n    tag_141:\n        /* \"#utility.yul\":4307:4337   */\n      swap1\n      pop\n        /* \"#utility.yul\":4346:4379   */\n      tag_142\n        /* \"#utility.yul\":4374:4378   */\n      dup3\n        /* \"#utility.yul\":4366:4372   */\n      dup3\n        /* \"#utility.yul\":4346:4379   */\n      tag_70\n      jump\t// in\n    tag_142:\n        /* \"#utility.yul\":4256:4385   */\n      swap2\n      swap1\n      pop\n      jump\t// out\n        /* \"#utility.yul\":4391:4699   */\n    tag_72:\n        /* \"#utility.yul\":4453:4457   */\n      0x00\n        /* \"#utility.yul\":4543:4561   */\n      0xffffffffffffffff\n        /* \"#utility.yul\":4535:4541   */\n      dup3\n        /* \"#utility.yul\":4532:4562   */\n      gt\n        /* \"#utility.yul\":4529:4585   */\n      iszero\n      tag_144\n      jumpi\n        /* \"#utility.yul\":4565:4583   */\n      tag_145\n      tag_69\n      jump\t// in\n    tag_145:\n        /* \"#utility.yul\":4529:4585   */\n    tag_144:\n        /* \"#utility.yul\":4603:4632   */\n      tag_146\n        /* \"#utility.yul\":4625:4631   */\n      dup3\n        /* \"#utility.yul\":4603:4632   */\n      tag_60\n      jump\t// in\n    tag_146:\n        /* \"#utility.yul\":4595:4632   */\n      swap1\n      pop\n        /* \"#utility.yul\":4687:4691   */\n      0x20\n        /* \"#utility.yul\":4681:4685   */\n      dup2\n        /* \"#utility.yul\":4677:4692   */\n      add\n        /* \"#utility.yul\":4669:4692   */\n      swap1\n      pop\n        /* \"#utility.yul\":4391:4699   */\n      swap2\n      swap1\n      pop\n      jump\t// out\n        /* \"#utility.yul\":4705:4853   */\n    tag_73:\n        /* \"#utility.yul\":4803:4809   */\n      dup3\n        /* \"#utility.yul\":4798:4801   */\n      dup2\n        /* \"#utility.yul\":4793:4796   */\n      dup4\n        /* \"#utility.yul\":4780:4810   */\n      calldatacopy\n        /* \"#utility.yul\":4844:4845   */\n      0x00\n        /* \"#utility.yul\":4835:4841   */\n      dup4\n        /* \"#utility.yul\":4830:4833   */\n      dup4\n        /* \"#utility.yul\":4826:4842   */\n      add\n        /* \"#utility.yul\":4819:4846   */\n      mstore\n        /* \"#utility.yul\":4705:4853   */\n      pop\n      pop\n      pop\n      jump\t// out\n        /* \"#utility.yul\":4859:5284   */\n    tag_74:\n        /* \"#utility.yul\":4937:4942   */\n      0x00\n        /* \"#utility.yul\":4962:5028   */\n      tag_149\n        /* \"#utility.yul\":4978:5027   */\n      tag_150\n        /* \"#utility.yul\":5020:5026   */\n      dup5\n        /* \"#utility.yul\":4978:5027   */\n      tag_72\n      jump\t// in\n    tag_150:\n        /* \"#utility.yul\":4962:5028   */\n      tag_71\n      jump\t// in\n    tag_149:\n        /* \"#utility.yul\":4953:5028   */\n      swap1\n      pop\n        /* \"#utility.yul\":5051:5057   */\n      dup3\n        /* \"#utility.yul\":5044:5049   */\n      dup2\n        /* \"#utility.yul\":5037:5058   */\n      mstore\n        /* \"#utility.yul\":5089:5093   */\n      0x20\n        /* \"#utility.yul\":5082:5087   */\n      dup2\n        /* \"#utility.yul\":5078:5094   */\n      add\n        /* \"#utility.yul\":5127:5130   */\n      dup5\n        /* \"#utility.yul\":5118:5124   */\n      dup5\n        /* \"#utility.yul\":5113:5116   */\n      dup5\n        /* \"#utility.yul\":5109:5125   */\n      add\n        /* \"#utility.yul\":5106:5131   */\n      gt\n        /* \"#utility.yul\":5103:5215   */\n      iszero\n      tag_151\n      jumpi\n        /* \"#utility.yul\":5134:5213   */\n      tag_152\n      tag_68\n      jump\t// in\n    tag_152:\n        /* \"#utility.yul\":5103:5215   */\n    tag_151:\n        /* \"#utility.yul\":5224:5278   */\n      tag_153\n        /* \"#utility.yul\":5271:5277   */\n      dup5\n        /* \"#utility.yul\":5266:5269   */\n      dup3\n        /* \"#utility.yul\":5261:5264   */\n      dup6\n        /* \"#utility.yul\":5224:5278   */\n      tag_73\n      jump\t// in\n    tag_153:\n        /* \"#utility.yul\":4943:5284   */\n      pop\n        /* \"#utility.yul\":4859:5284   */\n      swap4\n      swap3\n      pop\n      pop\n      pop\n      jump\t// out\n        /* \"#utility.yul\":5304:5644   */\n    tag_75:\n        /* \"#utility.yul\":5360:5365   */\n      0x00\n        /* \"#utility.yul\":5409:5412   */\n      dup3\n        /* \"#utility.yul\":5402:5406   */\n      0x1f\n        /* \"#utility.yul\":5394:5400   */\n      dup4\n        /* \"#utility.yul\":5390:5407   */\n      add\n        /* \"#utility.yul\":5386:5413   */\n      slt\n        /* \"#utility.yul\":5376:5498   */\n      tag_155\n      jumpi\n        /* \"#utility.yul\":5417:5496   */\n      tag_156\n      tag_67\n      jump\t// in\n    tag_156:\n        /* \"#utility.yul\":5376:5498   */\n    tag_155:\n        /* \"#utility.yul\":5534:5540   */\n      dup2\n        /* \"#utility.yul\":5521:5541   */\n      calldataload\n        /* \"#utility.yul\":5559:5638   */\n      tag_157\n        /* \"#utility.yul\":5634:5637   */\n      dup5\n        /* \"#utility.yul\":5626:5632   */\n      dup3\n        /* \"#utility.yul\":5619:5623   */\n      0x20\n        /* \"#utility.yul\":5611:5617   */\n      dup7\n        /* \"#utility.yul\":5607:5624   */\n      add\n        /* \"#utility.yul\":5559:5638   */\n      tag_74\n      jump\t// in\n    tag_157:\n        /* \"#utility.yul\":5550:5638   */\n      swap2\n      pop\n        /* \"#utility.yul\":5366:5644   */\n      pop\n        /* \"#utility.yul\":5304:5644   */\n      swap3\n      swap2\n      pop\n      pop\n      jump\t// out\n        /* \"#utility.yul\":5650:6775   */\n    tag_19:\n        /* \"#utility.yul\":5756:5762   */\n      0x00\n        /* \"#utility.yul\":5764:5770   */\n      0x00\n        /* \"#utility.yul\":5772:5778   */\n      0x00\n        /* \"#utility.yul\":5780:5786   */\n      0x00\n        /* \"#utility.yul\":5829:5832   */\n      0x80\n        /* \"#utility.yul\":5817:5826   */\n      dup6\n        /* \"#utility.yul\":5808:5815   */\n      dup8\n        /* \"#utility.yul\":5804:5827   */\n      sub\n        /* \"#utility.yul\":5800:5833   */\n      slt\n        /* \"#utility.yul\":5797:5917   */\n      iszero\n      tag_159\n      jumpi\n        /* \"#utility.yul\":5836:5915   */\n      tag_160\n      tag_52\n      jump\t// in\n    tag_160:\n        /* \"#utility.yul\":5797:5917   */\n    tag_159:\n        /* \"#utility.yul\":5956:5957   */\n      0x00\n        /* \"#utility.yul\":5981:6034   */\n      tag_161\n        /* \"#utility.yul\":6026:6033   */\n      dup8\n        /* \"#utility.yul\":6017:6023   */\n      dup3\n        /* \"#utility.yul\":6006:6015   */\n      dup9\n        /* \"#utility.yul\":6002:6024   */\n      add\n        /* \"#utility.yul\":5981:6034   */\n      tag_66\n      jump\t// in\n    tag_161:\n        /* \"#utility.yul\":5971:6034   */\n      swap5\n      pop\n        /* \"#utility.yul\":5927:6044   */\n      pop\n        /* \"#utility.yul\":6111:6113   */\n      0x20\n        /* \"#utility.yul\":6100:6109   */\n      dup6\n        /* \"#utility.yul\":6096:6114   */\n      add\n        /* \"#utility.yul\":6083:6115   */\n      calldataload\n        /* \"#utility.yul\":6142:6160   */\n      0xffffffffffffffff\n        /* \"#utility.yul\":6134:6140   */\n      dup2\n        /* \"#utility.yul\":6131:6161   */\n      gt\n        /* \"#utility.yul\":6128:6245   */\n      iszero\n      tag_162\n      jumpi\n        /* \"#utility.yul\":6164:6243   */\n      tag_163\n      tag_53\n      jump\t// in\n    tag_163:\n        /* \"#utility.yul\":6128:6245   */\n    tag_162:\n        /* \"#utility.yul\":6269:6332   */\n      tag_164\n        /* \"#utility.yul\":6324:6331   */\n      dup8\n        /* \"#utility.yul\":6315:6321   */\n      dup3\n        /* \"#utility.yul\":6304:6313   */\n      dup9\n        /* \"#utility.yul\":6300:6322   */\n      add\n        /* \"#utility.yul\":6269:6332   */\n      tag_75\n      jump\t// in\n    tag_164:\n        /* \"#utility.yul\":6259:6332   */\n      swap4\n      pop\n        /* \"#utility.yul\":6054:6342   */\n      pop\n        /* \"#utility.yul\":6381:6383   */\n      0x40\n        /* \"#utility.yul\":6407:6460   */\n      tag_165\n        /* \"#utility.yul\":6452:6459   */\n      dup8\n        /* \"#utility.yul\":6443:6449   */\n      dup3\n        /* \"#utility.yul\":6432:6441   */\n      dup9\n        /* \"#utility.yul\":6428:6450   */\n      add\n        /* \"#utility.yul\":6407:6460   */\n      tag_56\n      jump\t// in\n    tag_165:\n        /* \"#utility.yul\":6397:6460   */\n      swap3\n      pop\n        /* \"#utility.yul\":6352:6470   */\n      pop\n        /* \"#utility.yul\":6537:6539   */\n      0x60\n        /* \"#utility.yul\":6526:6535   */\n      dup6\n        /* \"#utility.yul\":6522:6540   */\n      add\n        /* \"#utility.yul\":6509:6541   */\n      calldataload\n        /* \"#utility.yul\":6568:6586   */\n      0xffffffffffffffff\n        /* \"#utility.yul\":6560:6566   */\n      dup2\n        /* \"#utility.yul\":6557:6587   */\n      gt\n        /* \"#utility.yul\":6554:6671   */\n      iszero\n      tag_166\n      jumpi\n        /* \"#utility.yul\":6590:6669   */\n      tag_167\n      tag_53\n      jump\t// in\n    tag_167:\n        /* \"#utility.yul\":6554:6671   */\n    tag_166:\n        /* \"#utility.yul\":6695:6758   */\n      tag_168\n        /* \"#utility.yul\":6750:6757   */\n      dup8\n        /* \"#utility.yul\":6741:6747   */\n      dup3\n        /* \"#utility.yul\":6730:6739   */\n      dup9\n        /* \"#utility.yul\":6726:6748   */\n      add\n        /* \"#utility.yul\":6695:6758   */\n      tag_75\n      jump\t// in\n    tag_168:\n        /* \"#utility.yul\":6685:6758   */\n      swap2\n      pop\n        /* \"#utility.yul\":6480:6768   */\n      pop\n        /* \"#utility.yul\":5650:6775   */\n      swap3\n      swap6\n      swap2\n      swap5\n      pop\n      swap3\n      pop\n      jump\t// out\n        /* \"#utility.yul\":6781:6961   */\n    tag_76:\n        /* \"#utility.yul\":6829:6906   */\n      0x4e487b7100000000000000000000000000000000000000000000000000000000\n        /* \"#utility.yul\":6826:6827   */\n      0x00\n        /* \"#utility.yul\":6819:6907   */\n      mstore\n        /* \"#utility.yul\":6926:6930   */\n      0x22\n        /* \"#utility.yul\":6923:6924   */\n      0x04\n        /* \"#utility.yul\":6916:6931   */\n      mstore\n        /* \"#utility.yul\":6950:6954   */\n      0x24\n        /* \"#utility.yul\":6947:6948   */\n      0x00\n        /* \"#utility.yul\":6940:6955   */\n      revert\n        /* \"#utility.yul\":6967:7287   */\n    tag_24:\n        /* \"#utility.yul\":7011:7017   */\n      0x00\n        /* \"#utility.yul\":7048:7049   */\n      0x02\n        /* \"#utility.yul\":7042:7046   */\n      dup3\n        /* \"#utility.yul\":7038:7050   */\n      div\n        /* \"#utility.yul\":7028:7050   */\n      swap1\n      pop\n        /* \"#utility.yul\":7095:7096   */\n      0x01\n        /* \"#utility.yul\":7089:7093   */\n      dup3\n        /* \"#utility.yul\":7085:7097   */\n      and\n        /* \"#utility.yul\":7116:7134   */\n      dup1\n        /* \"#utility.yul\":7106:7187   */\n      tag_171\n      jumpi\n        /* \"#utility.yul\":7172:7176   */\n      0x7f\n        /* \"#utility.yul\":7164:7170   */\n      dup3\n        /* \"#utility.yul\":7160:7177   */\n      and\n        /* \"#utility.yul\":7150:7177   */\n      swap2\n      pop\n        /* \"#utility.yul\":7106:7187   */\n    tag_171:\n        /* \"#utility.yul\":7234:7236   */\n      0x20\n        /* \"#utility.yul\":7226:7232   */\n      dup3\n        /* \"#utility.yul\":7223:7237   */\n      lt\n        /* \"#utility.yul\":7203:7221   */\n      dup2\n        /* \"#utility.yul\":7200:7238   */\n      sub\n        /* \"#utility.yul\":7197:7281   */\n      tag_172\n      jumpi\n        /* \"#utility.yul\":7253:7271   */\n      tag_173\n      tag_76\n      jump\t// in\n    tag_173:\n        /* \"#utility.yul\":7197:7281   */\n    tag_172:\n        /* \"#utility.yul\":7018:7287   */\n      pop\n        /* \"#utility.yul\":6967:7287   */\n      swap2\n      swap1\n      pop\n      jump\t// out\n        /* \"#utility.yul\":7293:7434   */\n    tag_77:\n        /* \"#utility.yul\":7342:7346   */\n      0x00\n        /* \"#utility.yul\":7365:7368   */\n      dup2\n        /* \"#utility.yul\":7357:7368   */\n      swap1\n      pop\n        /* \"#utility.yul\":7388:7391   */\n      dup2\n        /* \"#utility.yul\":7385:7386   */\n      0x00\n        /* \"#utility.yul\":7378:7392   */\n      mstore\n        /* \"#utility.yul\":7422:7426   */\n      0x20\n        /* \"#utility.yul\":7419:7420   */\n      0x00\n        /* \"#utility.yul\":7409:7427   */\n      keccak256\n        /* \"#utility.yul\":7401:7427   */\n      swap1\n      pop\n        /* \"#utility.yul\":7293:7434   */\n      swap2\n      swap1\n      pop\n      jump\t// out\n        /* \"#utility.yul\":7440:7533   */\n    tag_78:\n        /* \"#utility.yul\":7477:7483   */\n      0x00\n        /* \"#utility.yul\":7524:7526   */\n      0x20\n        /* \"#utility.yul\":7519:7521   */\n      0x1f\n        /* \"#utility.yul\":7512:7517   */\n      dup4\n        /* \"#utility.yul\":7508:7522   */\n      add\n        /* \"#utility.yul\":7504:7527   */\n      div\n        /* \"#utility.yul\":7494:7527   */\n      swap1\n      pop\n        /* \"#utility.yul\":7440:7533   */\n      swap2\n      swap1\n      pop\n      jump\t// out\n        /* \"#utility.yul\":7539:7646   */\n    tag_79:\n        /* \"#utility.yul\":7583:7591   */\n      0x00\n        /* \"#utility.yul\":7633:7638   */\n      dup3\n        /* \"#utility.yul\":7627:7631   */\n      dup3\n        /* \"#utility.yul\":7623:7639   */\n      shl\n        /* \"#utility.yul\":7602:7639   */\n      swap1\n      pop\n        /* \"#utility.yul\":7539:7646   */\n      swap3\n      swap2\n      pop\n      pop\n      jump\t// out\n        /* \"#utility.yul\":7652:8045   */\n    tag_80:\n        /* \"#utility.yul\":7721:7727   */\n      0x00\n        /* \"#utility.yul\":7771:7772   */\n      0x08\n        /* \"#utility.yul\":7759:7769   */\n      dup4\n        /* \"#utility.yul\":7755:7773   */\n      mul\n        /* \"#utility.yul\":7794:7891   */\n      tag_178\n        /* \"#utility.yul\":7824:7890   */\n      0xffffffffffffffffffffffffffffffffffffffffffffffffffffffffffffffff\n        /* \"#utility.yul\":7813:7822   */\n      dup3\n        /* \"#utility.yul\":7794:7891   */\n      tag_79\n      jump\t// in\n    tag_178:\n        /* \"#utility.yul\":7912:7951   */\n      tag_179\n        /* \"#utility.yul\":7942:7950   */\n      dup7\n        /* \"#utility.yul\":7931:7940   */\n      dup4\n        /* \"#utility.yul\":7912:7951   */\n      tag_79\n      jump\t// in\n    tag_179:\n        /* \"#utility.yul\":7900:7951   */\n      swap6\n      pop\n        /* \"#utility.yul\":7984:7988   */\n      dup1\n        /* \"#utility.yul\":7980:7989   */\n      not\n        /* \"#utility.yul\":7973:7978   */\n      dup5\n        /* \"#utility.yul\":7969:7990   */\n      and\n        /* \"#utility.yul\":7960:7990   */\n      swap4\n      pop\n        /* \"#utility.yul\":8033:8037   */\n      dup1\n        /* \"#utility.yul\":8023:8031   */\n      dup7\n        /* \"#utility.yul\":8019:8038   */\n      and\n        /* \"#utility.yul\":8012:8017   */\n      dup5\n        /* \"#utility.yul\":8009:8039   */\n      or\n        /* \"#utility.yul\":7999:8039   */\n      swap3\n      pop\n        /* \"#utility.yul\":7728:8045   */\n      pop\n      pop\n        /* \"#utility.yul\":7652:8045   */\n      swap4\n      swap3\n      pop\n      pop\n      pop\n      jump\t// out\n        /* \"#utility.yul\":8051:8111   */\n    tag_81:\n        /* \"#utility.yul\":8079:8082   */\n      0x00\n        /* \"#utility.yul\":8100:8105   */\n      dup2\n        /* \"#utility.yul\":8093:8105   */\n      swap1\n      pop\n        /* \"#utility.yul\":8051:8111   */\n      swap2\n      swap1\n      pop\n      jump\t// out\n        /* \"#utility.yul\":8117:8259   */\n    tag_82:\n        /* \"#utility.yul\":8167:8176   */\n      0x00\n        /* \"#utility.yul\":8200:8253   */\n      tag_182\n        /* \"#utility.yul\":8218:8252   */\n      tag_183\n        /* \"#utility.yul\":8227:8251   */\n      tag_184\n        /* \"#utility.yul\":8245:8250   */\n      dup5\n        /* \"#utility.yul\":8227:8251   */\n      tag_54\n      jump\t// in\n    tag_184:\n        /* \"#utility.yul\":8218:8252   */\n      tag_81\n      jump\t// in\n    tag_183:\n        /* \"#utility.yul\":8200:8253   */\n      tag_54\n      jump\t// in\n    tag_182:\n        /* \"#utility.yul\":8187:8253   */\n      swap1\n      pop\n        /* \"#utility.yul\":8117:8259   */\n      swap2\n      swap1\n      pop\n      jump\t// out\n        /* \"#utility.yul\":8265:8340   */\n    tag_83:\n        /* \"#utility.yul\":8308:8311   */\n      0x00\n        /* \"#utility.yul\":8329:8334   */\n      dup2\n        /* \"#utility.yul\":8322:8334   */\n      swap1\n      pop\n        /* \"#utility.yul\":8265:8340   */\n      swap2\n      swap1\n      pop\n      jump\t// out\n        /* \"#utility.yul\":8346:8615   */\n    tag_84:\n        /* \"#utility.yul\":8456:8495   */\n      tag_187\n        /* \"#utility.yul\":8487:8494   */\n      dup4\n        /* \"#utility.yul\":8456:8495   */\n      tag_82\n      jump\t// in\n    tag_187:\n        /* \"#utility.yul\":8517:8608   */\n      tag_188\n        /* \"#utility.yul\":8566:8607   */\n      tag_189\n        /* \"#utility.yul\":8590:8606   */\n      dup3\n        /* \"#utility.yul\":8566:8607   */\n      tag_83\n      jump\t// in\n    tag_189:\n        /* \"#utility.yul\":8558:8564   */\n      dup5\n        /* \"#utility.yul\":8551:8555   */\n      dup5\n        /* \"#utility.yul\":8545:8556   */\n      sload\n        /* \"#utility.yul\":8517:8608   */\n      tag_80\n      jump\t// in\n    tag_188:\n        /* \"#utility.yul\":8511:8515   */\n      dup3\n        /* \"#utility.yul\":8504:8609   */\n      sstore\n        /* \"#utility.yul\":8422:8615   */\n      pop\n        /* \"#utility.yul\":8346:8615   */\n      pop\n      pop\n      pop\n      jump\t// out\n        /* \"#utility.yul\":8621:8694   */\n    tag_85:\n        /* \"#utility.yul\":8666:8669   */\n      0x00\n        /* \"#utility.yul\":8687:8688   */\n      0x00\n        /* \"#utility.yul\":8680:8688   */\n      swap1\n      pop\n        /* \"#utility.yul\":8621:8694   */\n      swap1\n      jump\t// out\n        /* \"#utility.yul\":8700:8889   */\n    tag_86:\n        /* \"#utility.yul\":8777:8809   */\n      tag_192\n      tag_85\n      jump\t// in\n    tag_192:\n        /* \"#utility.yul\":8818:8883   */\n      tag_193\n        /* \"#utility.yul\":8876:8882   */\n      dup2\n        /* \"#utility.yul\":8868:8874   */\n      dup5\n        /* \"#utility.yul\":8862:8866   */\n      dup5\n        /* \"#utility.yul\":8818:8883   */\n      tag_84\n      jump\t// in\n    tag_193:\n        /* \"#utility.yul\":8753:8889   */\n      pop\n        /* \"#utility.yul\":8700:8889   */\n      pop\n      pop\n      jump\t// out\n        /* \"#utility.yul\":8895:9081   */\n    tag_87:\n        /* \"#utility.yul\":8955:9075   */\n    tag_195:\n        /* \"#utility.yul\":8972:8975   */\n      dup2\n        /* \"#utility.yul\":8965:8970   */\n      dup2\n        /* \"#utility.yul\":8962:8976   */\n      lt\n        /* \"#utility.yul\":8955:9075   */\n      iszero\n      tag_197\n      jumpi\n        /* \"#utility.yul\":9026:9065   */\n      tag_198\n        /* \"#utility.yul\":9063:9064   */\n      0x00\n        /* \"#utility.yul\":9056:9061   */\n      dup3\n        /* \"#utility.yul\":9026:9065   */\n      tag_86\n      jump\t// in\n    tag_198:\n        /* \"#utility.yul\":8999:9000   */\n      0x01\n        /* \"#utility.yul\":8992:8997   */\n      dup2\n        /* \"#utility.yul\":8988:9001   */\n      add\n        /* \"#utility.yul\":8979:9001   */\n      swap1\n      pop\n        /* \"#utility.yul\":8955:9075   */\n      jump(tag_195)\n    tag_197:\n        /* \"#utility.yul\":8895:9081   */\n      pop\n      pop\n      jump\t// out\n        /* \"#utility.yul\":9087:9630   */\n    tag_88:\n        /* \"#utility.yul\":9188:9190   */\n      0x1f\n        /* \"#utility.yul\":9183:9186   */\n      dup3\n        /* \"#utility.yul\":9180:9191   */\n      gt\n        /* \"#utility.yul\":9177:9623   */\n      iszero\n      tag_200\n      jumpi\n        /* \"#utility.yul\":9222:9260   */\n      tag_201\n        /* \"#utility.yul\":9254:9259   */\n      dup2\n        /* \"#utility.yul\":9222:9260   */\n      tag_77\n      jump\t// in\n    tag_201:\n        /* \"#utility.yul\":9306:9335   */\n      tag_202\n        /* \"#utility.yul\":9324:9334   */\n      dup5\n        /* \"#utility.yul\":9306:9335   */\n      tag_78\n      jump\t// in\n    tag_202:\n        /* \"#utility.yul\":9296:9304   */\n      dup2\n        /* \"#utility.yul\":9292:9336   */\n      add\n        /* \"#utility.yul\":9489:9491   */\n      0x20\n        /* \"#utility.yul\":9477:9487   */\n      dup6\n        /* \"#utility.yul\":9474:9492   */\n      lt\n        /* \"#utility.yul\":9471:9520   */\n      iszero\n      tag_203\n      jumpi\n        /* \"#utility.yul\":9510:9518   */\n      dup2\n        /* \"#utility.yul\":9495:9518   */\n      swap1\n      pop\n        /* \"#utility.yul\":9471:9520   */\n    tag_203:\n        /* \"#utility.yul\":9533:9613   */\n      tag_204\n        /* \"#utility.yul\":9589:9611   */\n      tag_205\n        /* \"#utility.yul\":9607:9610   */\n      dup6\n        /* \"#utility.yul\":9589:9611   */\n      tag_78\n      jump\t// in\n    tag_205:\n        /* \"#utility.yul\":9579:9587   */\n      dup4\n        /* \"#utility.yul\":9575:9612   */\n      add\n        /* \"#utility.yul\":9562:9573   */\n      dup3\n        /* \"#utility.yul\":9533:9613   */\n      tag_87\n      jump\t// in\n    tag_204:\n        /* \"#utility.yul\":9192:9623   */\n      pop\n      pop\n        /* \"#utility.yul\":9177:9623   */\n    tag_200:\n        /* \"#utility.yul\":9087:9630   */\n      pop\n      pop\n      pop\n      jump\t// out\n        /* \"#utility.yul\":9636:9753   */\n    tag_89:\n        /* \"#utility.yul\":9690:9698   */\n      0x00\n        /* \"#utility.yul\":9740:9745   */\n      dup3\n        /* \"#utility.yul\":9734:9738   */\n      dup3\n        /* \"#utility.yul\":9730:9746   */\n      shr\n        /* \"#utility.yul\":9709:9746   */\n      swap1\n      pop\n        /* \"#utility.yul\":9636:9753   */\n      swap3\n      swap2\n      pop\n      pop\n      jump\t// out\n        /* \"#utility.yul\":9759:9928   */\n    tag_90:\n        /* \"#utility.yul\":9803:9809   */\n      0x00\n        /* \"#utility.yul\":9836:9887   */\n      tag_208\n        /* \"#utility.yul\":9884:9885   */\n      0x00\n        /* \"#utility.yul\":9880:9886   */\n      not\n        /* \"#utility.yul\":9872:9877   */\n      dup5\n        /* \"#utility.yul\":9869:9870   */\n      0x08\n        /* \"#utility.yul\":9865:9878   */\n      mul\n        /* \"#utility.yul\":9836:9887   */\n      tag_89\n      jump\t// in\n    tag_208:\n        /* \"#utility.yul\":9832:9888   */\n      not\n        /* \"#utility.yul\":9917:9921   */\n      dup1\n        /* \"#utility.yul\":9911:9915   */\n      dup4\n        /* \"#utility.yul\":9907:9922   */\n      and\n        /* \"#utility.yul\":9897:9922   */\n      swap2\n      pop\n        /* \"#utility.yul\":9810:9928   */\n      pop\n        /* \"#utility.yul\":9759:9928   */\n      swap3\n      swap2\n      pop\n      pop\n      jump\t// out\n        /* \"#utility.yul\":9933:10228   */\n    tag_91:\n        /* \"#utility.yul\":10009:10013   */\n      0x00\n        /* \"#utility.yul\":10155:10184   */\n      tag_210\n        /* \"#utility.yul\":10180:10183   */\n      dup4\n        /* \"#utility.yul\":10174:10178   */\n      dup4\n        /* \"#utility.yul\":10155:10184   */\n      tag_90\n      jump\t// in\n    tag_210:\n        /* \"#utility.yul\":10147:10184   */\n      swap2\n      pop\n        /* \"#utility.yul\":10217:10220   */\n      dup3\n        /* \"#utility.yul\":10214:10215   */\n      0x02\n        /* \"#utility.yul\":10210:10221   */\n      mul\n        /* \"#utility.yul\":10204:10208   */\n      dup3\n        /* \"#utility.yul\":10201:10222   */\n      or\n        /* \"#utility.yul\":10193:10222   */\n      swap1\n      pop\n        /* \"#utility.yul\":9933:10228   */\n      swap3\n      swap2\n      pop\n      pop\n      jump\t// out\n        /* \"#utility.yul\":10233:11628   */\n    tag_46:\n        /* \"#utility.yul\":10350:10387   */\n      tag_212\n        /* \"#utility.yul\":10383:10386   */\n      dup3\n        /* \"#utility.yul\":10350:10387   */\n      tag_57\n      jump\t// in\n    tag_212:\n        /* \"#utility.yul\":10452:10470   */\n      0xffffffffffffffff\n        /* \"#utility.yul\":10444:10450   */\n      dup2\n        /* \"#utility.yul\":10441:10471   */\n      gt\n        /* \"#utility.yul\":10438:10494   */\n      iszero\n      tag_213\n      jumpi\n        /* \"#utility.yul\":10474:10492   */\n      tag_214\n      tag_69\n      jump\t// in\n    tag_214:\n        /* \"#utility.yul\":10438:10494   */\n    tag_213:\n        /* \"#utility.yul\":10518:10556   */\n      tag_215\n        /* \"#utility.yul\":10550:10554   */\n      dup3\n        /* \"#utility.yul\":10544:10555   */\n      sload\n        /* \"#utility.yul\":10518:10556   */\n      tag_24\n      jump\t// in\n    tag_215:\n        /* \"#utility.yul\":10603:10670   */\n      tag_216\n        /* \"#utility.yul\":10663:10669   */\n      dup3\n        /* \"#utility.yul\":10655:10661   */\n      dup3\n        /* \"#utility.yul\":10649:10653   */\n      dup6\n        /* \"#utility.yul\":10603:10670   */\n      tag_88\n      jump\t// in\n    tag_216:\n        /* \"#utility.yul\":10697:10698   */\n      0x00\n        /* \"#utility.yul\":10721:10725   */\n      0x20\n        /* \"#utility.yul\":10708:10725   */\n      swap1\n      pop\n        /* \"#utility.yul\":10753:10755   */\n      0x1f\n        /* \"#utility.yul\":10745:10751   */\n      dup4\n        /* \"#utility.yul\":10742:10756   */\n      gt\n        /* \"#utility.yul\":10770:10771   */\n      0x01\n        /* \"#utility.yul\":10765:11383   */\n      dup2\n      eq\n      tag_218\n      jumpi\n        /* \"#utility.yul\":11427:11428   */\n      0x00\n        /* \"#utility.yul\":11444:11450   */\n      dup5\n        /* \"#utility.yul\":11441:11518   */\n      iszero\n      tag_219\n      jumpi\n        /* \"#utility.yul\":11493:11502   */\n      dup3\n        /* \"#utility.yul\":11488:11491   */\n      dup8\n        /* \"#utility.yul\":11484:11503   */\n      add\n        /* \"#utility.yul\":11478:11504   */\n      mload\n        /* \"#utility.yul\":11469:11504   */\n      swap1\n      pop\n        /* \"#utility.yul\":11441:11518   */\n    tag_219:\n        /* \"#utility.yul\":11544:11611   */\n      tag_220\n        /* \"#utility.yul\":11604:11610   */\n      dup6\n        /* \"#utility.yul\":11597:11602   */\n      dup3\n        /* \"#utility.yul\":11544:11611   */\n      tag_91\n      jump\t// in\n    tag_220:\n        /* \"#utility.yul\":11538:11542   */\n      dup7\n        /* \"#utility.yul\":11531:11612   */\n      sstore\n        /* \"#utility.yul\":11400:11622   */\n      pop\n        /* \"#utility.yul\":10735:11622   */\n      jump(tag_217)\n        /* \"#utility.yul\":10765:11383   */\n    tag_218:\n        /* \"#utility.yul\":10817:10821   */\n      0x1f\n        /* \"#utility.yul\":10813:10822   */\n      not\n        /* \"#utility.yul\":10805:10811   */\n      dup5\n        /* \"#utility.yul\":10801:10823   */\n      and\n        /* \"#utility.yul\":10851:10888   */\n      tag_221\n        /* \"#utility.yul\":10883:10887   */\n      dup7\n        /* \"#utility.yul\":10851:10888   */\n      tag_77\n      jump\t// in\n    tag_221:\n        /* \"#utility.yul\":10910:10911   */\n      0x00\n        /* \"#utility.yul\":10924:11132   */\n    tag_222:\n        /* \"#utility.yul\":10938:10945   */\n      dup3\n        /* \"#utility.yul\":10935:10936   */\n      dup2\n        /* \"#utility.yul\":10932:10946   */\n      lt\n        /* \"#utility.yul\":10924:11132   */\n      iszero\n      tag_224\n      jumpi\n        /* \"#utility.yul\":11017:11026   */\n      dup5\n        /* \"#utility.yul\":11012:11015   */\n      dup10\n        /* \"#utility.yul\":11008:11027   */\n      add\n        /* \"#utility.yul\":11002:11028   */\n      mload\n        /* \"#utility.yul\":10994:11000   */\n      dup3\n        /* \"#utility.yul\":10987:11029   */\n      sstore\n        /* \"#utility.yul\":11068:11069   */\n      0x01\n        /* \"#utility.yul\":11060:11066   */\n      dup3\n        /* \"#utility.yul\":11056:11070   */\n      add\n        /* \"#utility.yul\":11046:11070   */\n      swap2\n      pop\n        /* \"#utility.yul\":11115:11117   */\n      0x20\n        /* \"#utility.yul\":11104:11113   */\n      dup6\n        /* \"#utility.yul\":11100:11118   */\n      add\n        /* \"#utility.yul\":11087:11118   */\n      swap5\n      pop\n        /* \"#utility.yul\":10961:10965   */\n      0x20\n        /* \"#utility.yul\":10958:10959   */\n      dup2\n        /* \"#utility.yul\":10954:10966   */\n      add\n        /* \"#utility.yul\":10949:10966   */\n      swap1\n      pop\n        /* \"#utility.yul\":10924:11132   */\n      jump(tag_222)\n    tag_224:\n        /* \"#utility.yul\":11160:11166   */\n      dup7\n        /* \"#utility.yul\":11151:11158   */\n      dup4\n        /* \"#utility.yul\":11148:11167   */\n      lt\n        /* \"#utility.yul\":11145:11324   */\n      iszero\n      tag_225\n      jumpi\n        /* \"#utility.yul\":11218:11227   */\n      dup5\n        /* \"#utility.yul\":11213:11216   */\n      dup10\n        /* \"#utility.yul\":11209:11228   */\n      add\n        /* \"#utility.yul\":11203:11229   */\n      mload\n        /* \"#utility.yul\":11261:11309   */\n      tag_226\n        /* \"#utility.yul\":11303:11307   */\n      0x1f\n        /* \"#utility.yul\":11295:11301   */\n      dup10\n        /* \"#utility.yul\":11291:11308   */\n      and\n        /* \"#utility.yul\":11280:11289   */\n      dup3\n        /* \"#utility.yul\":11261:11309   */\n      tag_90\n      jump\t// in\n    tag_226:\n        /* \"#utility.yul\":11253:11259   */\n      dup4\n        /* \"#utility.yul\":11246:11310   */\n      sstore\n        /* \"#utility.yul\":11168:11324   */\n      pop\n        /* \"#utility.yul\":11145:11324   */\n    tag_225:\n        /* \"#utility.yul\":11370:11371   */\n      0x01\n        /* \"#utility.yul\":11366:11367   */\n      0x02\n        /* \"#utility.yul\":11358:11364   */\n      dup9\n        /* \"#utility.yul\":11354:11368   */\n      mul\n        /* \"#utility.yul\":11350:11372   */\n      add\n        /* \"#utility.yul\":11344:11348   */\n      dup9\n        /* \"#utility.yul\":11337:11373   */\n      sstore\n        /* \"#utility.yul\":10772:11383   */\n      pop\n      pop\n      pop\n        /* \"#utility.yul\":10735:11622   */\n    tag_217:\n      pop\n        /* \"#utility.yul\":10325:11628   */\n      pop\n      pop\n      pop\n        /* \"#utility.yul\":10233:11628   */\n      pop\n      pop\n      jump\t// out\n\n    auxdata: 0xa2646970667358221220528560f5309dc2357eeb4e3d6c294bd78dfe2231dc667c3adf8ffc0b09e6edcd64736f6c634300081e0033\n}\n",
				"bytecode": {
					"linkReferences": {},
					"object": "6080604052348015600e575f5ffd5b50610aad8061001c5f395ff3fe608060405234801561000f575f5ffd5b506004361061003f575f3560e01c8063365b98b2146100435780637d2e227d14610075578063d600e1a1146100a7575b5f5ffd5b61005d60048036038101906100589190610471565b6100c3565b60405161006c9392919061051b565b60405180910390f35b61008f600480360381019061008a91906105b8565b610204565b60405161009e9392919061051b565b60405180910390f35b6100c160048036038101906100bc919061070f565b610335565b005b600181815481106100d2575f80fd5b905f5260205f2090600302015f91509050805f0180546100f1906107d8565b80601f016020809104026020016040519081016040528092919081815260200182805461011d906107d8565b80156101685780601f1061013f57610100808354040283529160200191610168565b820191905f5260205f20905b81548152906001019060200180831161014b57829003601f168201915b505050505090806001015490806002018054610183906107d8565b80601f01602080910402602001604051908101604052809291908181526020018280546101af906107d8565b80156101fa5780601f106101d1576101008083540402835291602001916101fa565b820191905f5260205f20905b8154815290600101906020018083116101dd57829003601f168201915b5050505050905083565b5f602052805f5260405f205f91509050805f018054610222906107d8565b80601f016020809104026020016040519081016040528092919081815260200182805461024e906107d8565b80156102995780601f1061027057610100808354040283529160200191610299565b820191905f5260205f20905b81548152906001019060200180831161027c57829003601f168201915b5050505050908060010154908060020180546102b4906107d8565b80601f01602080910402602001604051908101604052809291908181526020018280546102e0906107d8565b801561032b5780601f106103025761010080835404028352916020019161032b565b820191905f5260205f20905b81548152906001019060200180831161030e57829003601f168201915b5050505050905083565b5f6040518060600160405280858152602001848152602001838152509050805f5f8773ffffffffffffffffffffffffffffffffffffffff1673ffffffffffffffffffffffffffffffffffffffff1681526020019081526020015f205f820151815f0190816103a391906109a8565b506020820151816001015560408201518160020190816103c391906109a8565b50905050600181908060018154018082558091505060019003905f5260205f2090600302015f909190919091505f820151815f01908161040391906109a8565b5060208201518160010155604082015181600201908161042391906109a8565b5050505050505050565b5f604051905090565b5f5ffd5b5f5ffd5b5f819050919050565b6104508161043e565b811461045a575f5ffd5b50565b5f8135905061046b81610447565b92915050565b5f6020828403121561048657610485610436565b5b5f6104938482850161045d565b91505092915050565b5f81519050919050565b5f82825260208201905092915050565b8281835e5f83830152505050565b5f601f19601f8301169050919050565b5f6104de8261049c565b6104e881856104a6565b93506104f88185602086016104b6565b610501816104c4565b840191505092915050565b6105158161043e565b82525050565b5f6060820190508181035f83015261053381866104d4565b9050610542602083018561050c565b818103604083015261055481846104d4565b9050949350505050565b5f73ffffffffffffffffffffffffffffffffffffffff82169050919050565b5f6105878261055e565b9050919050565b6105978161057d565b81146105a1575f5ffd5b50565b5f813590506105b28161058e565b92915050565b5f602082840312156105cd576105cc610436565b5b5f6105da848285016105a4565b91505092915050565b5f5ffd5b5f5ffd5b7f4e487b71000000000000000000000000000000000000000000000000000000005f52604160045260245ffd5b610621826104c4565b810181811067ffffffffffffffff821117156106405761063f6105eb565b5b80604052505050565b5f61065261042d565b905061065e8282610618565b919050565b5f67ffffffffffffffff82111561067d5761067c6105eb565b5b610686826104c4565b9050602081019050919050565b828183375f83830152505050565b5f6106b36106ae84610663565b610649565b9050828152602081018484840111156106cf576106ce6105e7565b5b6106da848285610693565b509392505050565b5f82601f8301126106f6576106f56105e3565b5b81356107068482602086016106a1565b91505092915050565b5f5f5f5f6080858703121561072757610726610436565b5b5f610734878288016105a4565b945050602085013567ffffffffffffffff8111156107555761075461043a565b5b610761878288016106e2565b93505060406107728782880161045d565b925050606085013567ffffffffffffffff8111156107935761079261043a565b5b61079f878288016106e2565b91505092959194509250565b7f4e487b71000000000000000000000000000000000000000000000000000000005f52602260045260245ffd5b5f60028204905060018216806107ef57607f821691505b602082108103610802576108016107ab565b5b50919050565b5f819050815f5260205f209050919050565b5f6020601f8301049050919050565b5f82821b905092915050565b5f600883026108647fffffffffffffffffffffffffffffffffffffffffffffffffffffffffffffffff82610829565b61086e8683610829565b95508019841693508086168417925050509392505050565b5f819050919050565b5f6108a96108a461089f8461043e565b610886565b61043e565b9050919050565b5f819050919050565b6108c28361088f565b6108d66108ce826108b0565b848454610835565b825550505050565b5f5f905090565b6108ed6108de565b6108f88184846108b9565b505050565b5b8181101561091b576109105f826108e5565b6001810190506108fe565b5050565b601f8211156109605761093181610808565b61093a8461081a565b81016020851015610949578190505b61095d6109558561081a565b8301826108fd565b50505b505050565b5f82821c905092915050565b5f6109805f1984600802610965565b1980831691505092915050565b5f6109988383610971565b9150826002028217905092915050565b6109b18261049c565b67ffffffffffffffff8111156109ca576109c96105eb565b5b6109d482546107d8565b6109df82828561091f565b5f60209050601f831160018114610a10575f84156109fe578287015190505b610a08858261098d565b865550610a6f565b601f198416610a1e86610808565b5f5b82811015610a4557848901518255600182019150602085019450602081019050610a20565b86831015610a625784890151610a5e601f891682610971565b8355505b6001600288020188555050505b50505050505056fea2646970667358221220528560f5309dc2357eeb4e3d6c294bd78dfe2231dc667c3adf8ffc0b09e6edcd64736f6c634300081e0033",
					"opcodes": "PUSH1 0x80 PUSH1 0x40 MSTORE CALLVALUE DUP1 ISZERO PUSH1 0xE JUMPI PUSH0 PUSH0 REVERT JUMPDEST POP PUSH2 0xAAD DUP1 PUSH2 0x1C PUSH0 CODECOPY PUSH0 RETURN INVALID PUSH1 0x80 PUSH1 0x40 MSTORE CALLVALUE DUP1 ISZERO PUSH2 0xF JUMPI PUSH0 PUSH0 REVERT JUMPDEST POP PUSH1 0x4 CALLDATASIZE LT PUSH2 0x3F JUMPI PUSH0 CALLDATALOAD PUSH1 0xE0 SHR DUP1 PUSH4 0x365B98B2 EQ PUSH2 0x43 JUMPI DUP1 PUSH4 0x7D2E227D EQ PUSH2 0x75 JUMPI DUP1 PUSH4 0xD600E1A1 EQ PUSH2 0xA7 JUMPI JUMPDEST PUSH0 PUSH0 REVERT JUMPDEST PUSH2 0x5D PUSH1 0x4 DUP1 CALLDATASIZE SUB DUP2 ADD SWAP1 PUSH2 0x58 SWAP2 SWAP1 PUSH2 0x471 JUMP JUMPDEST PUSH2 0xC3 JUMP JUMPDEST PUSH1 0x40 MLOAD PUSH2 0x6C SWAP4 SWAP3 SWAP2 SWAP1 PUSH2 0x51B JUMP JUMPDEST PUSH1 0x40 MLOAD DUP1 SWAP2 SUB SWAP1 RETURN JUMPDEST PUSH2 0x8F PUSH1 0x4 DUP1 CALLDATASIZE SUB DUP2 ADD SWAP1 PUSH2 0x8A SWAP2 SWAP1 PUSH2 0x5B8 JUMP JUMPDEST PUSH2 0x204 JUMP JUMPDEST PUSH1 0x40 MLOAD PUSH2 0x9E SWAP4 SWAP3 SWAP2 SWAP1 PUSH2 0x51B JUMP JUMPDEST PUSH1 0x40 MLOAD DUP1 SWAP2 SUB SWAP1 RETURN JUMPDEST PUSH2 0xC1 PUSH1 0x4 DUP1 CALLDATASIZE SUB DUP2 ADD SWAP1 PUSH2 0xBC SWAP2 SWAP1 PUSH2 0x70F JUMP JUMPDEST PUSH2 0x335 JUMP JUMPDEST STOP JUMPDEST PUSH1 0x1 DUP2 DUP2 SLOAD DUP2 LT PUSH2 0xD2 JUMPI PUSH0 DUP1 REVERT JUMPDEST SWAP1 PUSH0 MSTORE PUSH1 0x20 PUSH0 KECCAK256 SWAP1 PUSH1 0x3 MUL ADD PUSH0 SWAP2 POP SWAP1 POP DUP1 PUSH0 ADD DUP1 SLOAD PUSH2 0xF1 SWAP1 PUSH2 0x7D8 JUMP JUMPDEST DUP1 PUSH1 0x1F ADD PUSH1 0x20 DUP1 SWAP2 DIV MUL PUSH1 0x20 ADD PUSH1 0x40 MLOAD SWAP1 DUP2 ADD PUSH1 0x40 MSTORE DUP1 SWAP3 SWAP2 SWAP1 DUP2 DUP2 MSTORE PUSH1 0x20 ADD DUP3 DUP1 SLOAD PUSH2 0x11D SWAP1 PUSH2 0x7D8 JUMP JUMPDEST DUP1 ISZERO PUSH2 0x168 JUMPI DUP1 PUSH1 0x1F LT PUSH2 0x13F JUMPI PUSH2 0x100 DUP1 DUP4 SLOAD DIV MUL DUP4 MSTORE SWAP2 PUSH1 0x20 ADD SWAP2 PUSH2 0x168 JUMP JUMPDEST DUP3 ADD SWAP2 SWAP1 PUSH0 MSTORE PUSH1 0x20 PUSH0 KECCAK256 SWAP1 JUMPDEST DUP2 SLOAD DUP2 MSTORE SWAP1 PUSH1 0x1 ADD SWAP1 PUSH1 0x20 ADD DUP1 DUP4 GT PUSH2 0x14B JUMPI DUP3 SWAP1 SUB PUSH1 0x1F AND DUP3 ADD SWAP2 JUMPDEST POP POP POP POP POP SWAP1 DUP1 PUSH1 0x1 ADD SLOAD SWAP1 DUP1 PUSH1 0x2 ADD DUP1 SLOAD PUSH2 0x183 SWAP1 PUSH2 0x7D8 JUMP JUMPDEST DUP1 PUSH1 0x1F ADD PUSH1 0x20 DUP1 SWAP2 DIV MUL PUSH1 0x20 ADD PUSH1 0x40 MLOAD SWAP1 DUP2 ADD PUSH1 0x40 MSTORE DUP1 SWAP3 SWAP2 SWAP1 DUP2 DUP2 MSTORE PUSH1 0x20 ADD DUP3 DUP1 SLOAD PUSH2 0x1AF SWAP1 PUSH2 0x7D8 JUMP JUMPDEST DUP1 ISZERO PUSH2 0x1FA JUMPI DUP1 PUSH1 0x1F LT PUSH2 0x1D1 JUMPI PUSH2 0x100 DUP1 DUP4 SLOAD DIV MUL DUP4 MSTORE SWAP2 PUSH1 0x20 ADD SWAP2 PUSH2 0x1FA JUMP JUMPDEST DUP3 ADD SWAP2 SWAP1 PUSH0 MSTORE PUSH1 0x20 PUSH0 KECCAK256 SWAP1 JUMPDEST DUP2 SLOAD DUP2 MSTORE SWAP1 PUSH1 0x1 ADD SWAP1 PUSH1 0x20 ADD DUP1 DUP4 GT PUSH2 0x1DD JUMPI DUP3 SWAP1 SUB PUSH1 0x1F AND DUP3 ADD SWAP2 JUMPDEST POP POP POP POP POP SWAP1 POP DUP4 JUMP JUMPDEST PUSH0 PUSH1 0x20 MSTORE DUP1 PUSH0 MSTORE PUSH1 0x40 PUSH0 KECCAK256 PUSH0 SWAP2 POP SWAP1 POP DUP1 PUSH0 ADD DUP1 SLOAD PUSH2 0x222 SWAP1 PUSH2 0x7D8 JUMP JUMPDEST DUP1 PUSH1 0x1F ADD PUSH1 0x20 DUP1 SWAP2 DIV MUL PUSH1 0x20 ADD PUSH1 0x40 MLOAD SWAP1 DUP2 ADD PUSH1 0x40 MSTORE DUP1 SWAP3 SWAP2 SWAP1 DUP2 DUP2 MSTORE PUSH1 0x20 ADD DUP3 DUP1 SLOAD PUSH2 0x24E SWAP1 PUSH2 0x7D8 JUMP JUMPDEST DUP1 ISZERO PUSH2 0x299 JUMPI DUP1 PUSH1 0x1F LT PUSH2 0x270 JUMPI PUSH2 0x100 DUP1 DUP4 SLOAD DIV MUL DUP4 MSTORE SWAP2 PUSH1 0x20 ADD SWAP2 PUSH2 0x299 JUMP JUMPDEST DUP3 ADD SWAP2 SWAP1 PUSH0 MSTORE PUSH1 0x20 PUSH0 KECCAK256 SWAP1 JUMPDEST DUP2 SLOAD DUP2 MSTORE SWAP1 PUSH1 0x1 ADD SWAP1 PUSH1 0x20 ADD DUP1 DUP4 GT PUSH2 0x27C JUMPI DUP3 SWAP1 SUB PUSH1 0x1F AND DUP3 ADD SWAP2 JUMPDEST POP POP POP POP POP SWAP1 DUP1 PUSH1 0x1 ADD SLOAD SWAP1 DUP1 PUSH1 0x2 ADD DUP1 SLOAD PUSH2 0x2B4 SWAP1 PUSH2 0x7D8 JUMP JUMPDEST DUP1 PUSH1 0x1F ADD PUSH1 0x20 DUP1 SWAP2 DIV MUL PUSH1 0x20 ADD PUSH1 0x40 MLOAD SWAP1 DUP2 ADD PUSH1 0x40 MSTORE DUP1 SWAP3 SWAP2 SWAP1 DUP2 DUP2 MSTORE PUSH1 0x20 ADD DUP3 DUP1 SLOAD PUSH2 0x2E0 SWAP1 PUSH2 0x7D8 JUMP JUMPDEST DUP1 ISZERO PUSH2 0x32B JUMPI DUP1 PUSH1 0x1F LT PUSH2 0x302 JUMPI PUSH2 0x100 DUP1 DUP4 SLOAD DIV MUL DUP4 MSTORE SWAP2 PUSH1 0x20 ADD SWAP2 PUSH2 0x32B JUMP JUMPDEST DUP3 ADD SWAP2 SWAP1 PUSH0 MSTORE PUSH1 0x20 PUSH0 KECCAK256 SWAP1 JUMPDEST DUP2 SLOAD DUP2 MSTORE SWAP1 PUSH1 0x1 ADD SWAP1 PUSH1 0x20 ADD DUP1 DUP4 GT PUSH2 0x30E JUMPI DUP3 SWAP1 SUB PUSH1 0x1F AND DUP3 ADD SWAP2 JUMPDEST POP POP POP POP POP SWAP1 POP DUP4 JUMP JUMPDEST PUSH0 PUSH1 0x40 MLOAD DUP1 PUSH1 0x60 ADD PUSH1 0x40 MSTORE DUP1 DUP6 DUP2 MSTORE PUSH1 0x20 ADD DUP5 DUP2 MSTORE PUSH1 0x20 ADD DUP4 DUP2 MSTORE POP SWAP1 POP DUP1 PUSH0 PUSH0 DUP8 PUSH20 0xFFFFFFFFFFFFFFFFFFFFFFFFFFFFFFFFFFFFFFFF AND PUSH20 0xFFFFFFFFFFFFFFFFFFFFFFFFFFFFFFFFFFFFFFFF AND DUP2 MSTORE PUSH1 0x20 ADD SWAP1 DUP2 MSTORE PUSH1 0x20 ADD PUSH0 KECCAK256 PUSH0 DUP3 ADD MLOAD DUP2 PUSH0 ADD SWAP1 DUP2 PUSH2 0x3A3 SWAP2 SWAP1 PUSH2 0x9A8 JUMP JUMPDEST POP PUSH1 0x20 DUP3 ADD MLOAD DUP2 PUSH1 0x1 ADD SSTORE PUSH1 0x40 DUP3 ADD MLOAD DUP2 PUSH1 0x2 ADD SWAP1 DUP2 PUSH2 0x3C3 SWAP2 SWAP1 PUSH2 0x9A8 JUMP JUMPDEST POP SWAP1 POP POP PUSH1 0x1 DUP2 SWAP1 DUP1 PUSH1 0x1 DUP2 SLOAD ADD DUP1 DUP3 SSTORE DUP1 SWAP2 POP POP PUSH1 0x1 SWAP1 SUB SWAP1 PUSH0 MSTORE PUSH1 0x20 PUSH0 KECCAK256 SWAP1 PUSH1 0x3 MUL ADD PUSH0 SWAP1 SWAP2 SWAP1 SWAP2 SWAP1 SWAP2 POP PUSH0 DUP3 ADD MLOAD DUP2 PUSH0 ADD SWAP1 DUP2 PUSH2 0x403 SWAP2 SWAP1 PUSH2 0x9A8 JUMP JUMPDEST POP PUSH1 0x20 DUP3 ADD MLOAD DUP2 PUSH1 0x1 ADD SSTORE PUSH1 0x40 DUP3 ADD MLOAD DUP2 PUSH1 0x2 ADD SWAP1 DUP2 PUSH2 0x423 SWAP2 SWAP1 PUSH2 0x9A8 JUMP JUMPDEST POP POP POP POP POP POP POP POP JUMP JUMPDEST PUSH0 PUSH1 0x40 MLOAD SWAP1 POP SWAP1 JUMP JUMPDEST PUSH0 PUSH0 REVERT JUMPDEST PUSH0 PUSH0 REVERT JUMPDEST PUSH0 DUP2 SWAP1 POP SWAP2 SWAP1 POP JUMP JUMPDEST PUSH2 0x450 DUP2 PUSH2 0x43E JUMP JUMPDEST DUP2 EQ PUSH2 0x45A JUMPI PUSH0 PUSH0 REVERT JUMPDEST POP JUMP JUMPDEST PUSH0 DUP2 CALLDATALOAD SWAP1 POP PUSH2 0x46B DUP2 PUSH2 0x447 JUMP JUMPDEST SWAP3 SWAP2 POP POP JUMP JUMPDEST PUSH0 PUSH1 0x20 DUP3 DUP5 SUB SLT ISZERO PUSH2 0x486 JUMPI PUSH2 0x485 PUSH2 0x436 JUMP JUMPDEST JUMPDEST PUSH0 PUSH2 0x493 DUP5 DUP3 DUP6 ADD PUSH2 0x45D JUMP JUMPDEST SWAP2 POP POP SWAP3 SWAP2 POP POP JUMP JUMPDEST PUSH0 DUP2 MLOAD SWAP1 POP SWAP2 SWAP1 POP JUMP JUMPDEST PUSH0 DUP3 DUP3 MSTORE PUSH1 0x20 DUP3 ADD SWAP1 POP SWAP3 SWAP2 POP POP JUMP JUMPDEST DUP3 DUP2 DUP4 MCOPY PUSH0 DUP4 DUP4 ADD MSTORE POP POP POP JUMP JUMPDEST PUSH0 PUSH1 0x1F NOT PUSH1 0x1F DUP4 ADD AND SWAP1 POP SWAP2 SWAP1 POP JUMP JUMPDEST PUSH0 PUSH2 0x4DE DUP3 PUSH2 0x49C JUMP JUMPDEST PUSH2 0x4E8 DUP2 DUP6 PUSH2 0x4A6 JUMP JUMPDEST SWAP4 POP PUSH2 0x4F8 DUP2 DUP6 PUSH1 0x20 DUP7 ADD PUSH2 0x4B6 JUMP JUMPDEST PUSH2 0x501 DUP2 PUSH2 0x4C4 JUMP JUMPDEST DUP5 ADD SWAP2 POP POP SWAP3 SWAP2 POP POP JUMP JUMPDEST PUSH2 0x515 DUP2 PUSH2 0x43E JUMP JUMPDEST DUP3 MSTORE POP POP JUMP JUMPDEST PUSH0 PUSH1 0x60 DUP3 ADD SWAP1 POP DUP2 DUP2 SUB PUSH0 DUP4 ADD MSTORE PUSH2 0x533 DUP2 DUP7 PUSH2 0x4D4 JUMP JUMPDEST SWAP1 POP PUSH2 0x542 PUSH1 0x20 DUP4 ADD DUP6 PUSH2 0x50C JUMP JUMPDEST DUP2 DUP2 SUB PUSH1 0x40 DUP4 ADD MSTORE PUSH2 0x554 DUP2 DUP5 PUSH2 0x4D4 JUMP JUMPDEST SWAP1 POP SWAP5 SWAP4 POP POP POP POP JUMP JUMPDEST PUSH0 PUSH20 0xFFFFFFFFFFFFFFFFFFFFFFFFFFFFFFFFFFFFFFFF DUP3 AND SWAP1 POP SWAP2 SWAP1 POP JUMP JUMPDEST PUSH0 PUSH2 0x587 DUP3 PUSH2 0x55E JUMP JUMPDEST SWAP1 POP SWAP2 SWAP1 POP JUMP JUMPDEST PUSH2 0x597 DUP2 PUSH2 0x57D JUMP JUMPDEST DUP2 EQ PUSH2 0x5A1 JUMPI PUSH0 PUSH0 REVERT JUMPDEST POP JUMP JUMPDEST PUSH0 DUP2 CALLDATALOAD SWAP1 POP PUSH2 0x5B2 DUP2 PUSH2 0x58E JUMP JUMPDEST SWAP3 SWAP2 POP POP JUMP JUMPDEST PUSH0 PUSH1 0x20 DUP3 DUP5 SUB SLT ISZERO PUSH2 0x5CD JUMPI PUSH2 0x5CC PUSH2 0x436 JUMP JUMPDEST JUMPDEST PUSH0 PUSH2 0x5DA DUP5 DUP3 DUP6 ADD PUSH2 0x5A4 JUMP JUMPDEST SWAP2 POP POP SWAP3 SWAP2 POP POP JUMP JUMPDEST PUSH0 PUSH0 REVERT JUMPDEST PUSH0 PUSH0 REVERT JUMPDEST PUSH32 0x4E487B7100000000000000000000000000000000000000000000000000000000 PUSH0 MSTORE PUSH1 0x41 PUSH1 0x4 MSTORE PUSH1 0x24 PUSH0 REVERT JUMPDEST PUSH2 0x621 DUP3 PUSH2 0x4C4 JUMP JUMPDEST DUP2 ADD DUP2 DUP2 LT PUSH8 0xFFFFFFFFFFFFFFFF DUP3 GT OR ISZERO PUSH2 0x640 JUMPI PUSH2 0x63F PUSH2 0x5EB JUMP JUMPDEST JUMPDEST DUP1 PUSH1 0x40 MSTORE POP POP POP JUMP JUMPDEST PUSH0 PUSH2 0x652 PUSH2 0x42D JUMP JUMPDEST SWAP1 POP PUSH2 0x65E DUP3 DUP3 PUSH2 0x618 JUMP JUMPDEST SWAP2 SWAP1 POP JUMP JUMPDEST PUSH0 PUSH8 0xFFFFFFFFFFFFFFFF DUP3 GT ISZERO PUSH2 0x67D JUMPI PUSH2 0x67C PUSH2 0x5EB JUMP JUMPDEST JUMPDEST PUSH2 0x686 DUP3 PUSH2 0x4C4 JUMP JUMPDEST SWAP1 POP PUSH1 0x20 DUP2 ADD SWAP1 POP SWAP2 SWAP1 POP JUMP JUMPDEST DUP3 DUP2 DUP4 CALLDATACOPY PUSH0 DUP4 DUP4 ADD MSTORE POP POP POP JUMP JUMPDEST PUSH0 PUSH2 0x6B3 PUSH2 0x6AE DUP5 PUSH2 0x663 JUMP JUMPDEST PUSH2 0x649 JUMP JUMPDEST SWAP1 POP DUP3 DUP2 MSTORE PUSH1 0x20 DUP2 ADD DUP5 DUP5 DUP5 ADD GT ISZERO PUSH2 0x6CF JUMPI PUSH2 0x6CE PUSH2 0x5E7 JUMP JUMPDEST JUMPDEST PUSH2 0x6DA DUP5 DUP3 DUP6 PUSH2 0x693 JUMP JUMPDEST POP SWAP4 SWAP3 POP POP POP JUMP JUMPDEST PUSH0 DUP3 PUSH1 0x1F DUP4 ADD SLT PUSH2 0x6F6 JUMPI PUSH2 0x6F5 PUSH2 0x5E3 JUMP JUMPDEST JUMPDEST DUP2 CALLDATALOAD PUSH2 0x706 DUP5 DUP3 PUSH1 0x20 DUP7 ADD PUSH2 0x6A1 JUMP JUMPDEST SWAP2 POP POP SWAP3 SWAP2 POP POP JUMP JUMPDEST PUSH0 PUSH0 PUSH0 PUSH0 PUSH1 0x80 DUP6 DUP8 SUB SLT ISZERO PUSH2 0x727 JUMPI PUSH2 0x726 PUSH2 0x436 JUMP JUMPDEST JUMPDEST PUSH0 PUSH2 0x734 DUP8 DUP3 DUP9 ADD PUSH2 0x5A4 JUMP JUMPDEST SWAP5 POP POP PUSH1 0x20 DUP6 ADD CALLDATALOAD PUSH8 0xFFFFFFFFFFFFFFFF DUP2 GT ISZERO PUSH2 0x755 JUMPI PUSH2 0x754 PUSH2 0x43A JUMP JUMPDEST JUMPDEST PUSH2 0x761 DUP8 DUP3 DUP9 ADD PUSH2 0x6E2 JUMP JUMPDEST SWAP4 POP POP PUSH1 0x40 PUSH2 0x772 DUP8 DUP3 DUP9 ADD PUSH2 0x45D JUMP JUMPDEST SWAP3 POP POP PUSH1 0x60 DUP6 ADD CALLDATALOAD PUSH8 0xFFFFFFFFFFFFFFFF DUP2 GT ISZERO PUSH2 0x793 JUMPI PUSH2 0x792 PUSH2 0x43A JUMP JUMPDEST JUMPDEST PUSH2 0x79F DUP8 DUP3 DUP9 ADD PUSH2 0x6E2 JUMP JUMPDEST SWAP2 POP POP SWAP3 SWAP6 SWAP2 SWAP5 POP SWAP3 POP JUMP JUMPDEST PUSH32 0x4E487B7100000000000000000000000000000000000000000000000000000000 PUSH0 MSTORE PUSH1 0x22 PUSH1 0x4 MSTORE PUSH1 0x24 PUSH0 REVERT JUMPDEST PUSH0 PUSH1 0x2 DUP3 DIV SWAP1 POP PUSH1 0x1 DUP3 AND DUP1 PUSH2 0x7EF JUMPI PUSH1 0x7F DUP3 AND SWAP2 POP JUMPDEST PUSH1 0x20 DUP3 LT DUP2 SUB PUSH2 0x802 JUMPI PUSH2 0x801 PUSH2 0x7AB JUMP JUMPDEST JUMPDEST POP SWAP2 SWAP1 POP JUMP JUMPDEST PUSH0 DUP2 SWAP1 POP DUP2 PUSH0 MSTORE PUSH1 0x20 PUSH0 KECCAK256 SWAP1 POP SWAP2 SWAP1 POP JUMP JUMPDEST PUSH0 PUSH1 0x20 PUSH1 0x1F DUP4 ADD DIV SWAP1 POP SWAP2 SWAP1 POP JUMP JUMPDEST PUSH0 DUP3 DUP3 SHL SWAP1 POP SWAP3 SWAP2 POP POP JUMP JUMPDEST PUSH0 PUSH1 0x8 DUP4 MUL PUSH2 0x864 PUSH32 0xFFFFFFFFFFFFFFFFFFFFFFFFFFFFFFFFFFFFFFFFFFFFFFFFFFFFFFFFFFFFFFFF DUP3 PUSH2 0x829 JUMP JUMPDEST PUSH2 0x86E DUP7 DUP4 PUSH2 0x829 JUMP JUMPDEST SWAP6 POP DUP1 NOT DUP5 AND SWAP4 POP DUP1 DUP7 AND DUP5 OR SWAP3 POP POP POP SWAP4 SWAP3 POP POP POP JUMP JUMPDEST PUSH0 DUP2 SWAP1 POP SWAP2 SWAP1 POP JUMP JUMPDEST PUSH0 PUSH2 0x8A9 PUSH2 0x8A4 PUSH2 0x89F DUP5 PUSH2 0x43E JUMP JUMPDEST PUSH2 0x886 JUMP JUMPDEST PUSH2 0x43E JUMP JUMPDEST SWAP1 POP SWAP2 SWAP1 POP JUMP JUMPDEST PUSH0 DUP2 SWAP1 POP SWAP2 SWAP1 POP JUMP JUMPDEST PUSH2 0x8C2 DUP4 PUSH2 0x88F JUMP JUMPDEST PUSH2 0x8D6 PUSH2 0x8CE DUP3 PUSH2 0x8B0 JUMP JUMPDEST DUP5 DUP5 SLOAD PUSH2 0x835 JUMP JUMPDEST DUP3 SSTORE POP POP POP POP JUMP JUMPDEST PUSH0 PUSH0 SWAP1 POP SWAP1 JUMP JUMPDEST PUSH2 0x8ED PUSH2 0x8DE JUMP JUMPDEST PUSH2 0x8F8 DUP2 DUP5 DUP5 PUSH2 0x8B9 JUMP JUMPDEST POP POP POP JUMP JUMPDEST JUMPDEST DUP2 DUP2 LT ISZERO PUSH2 0x91B JUMPI PUSH2 0x910 PUSH0 DUP3 PUSH2 0x8E5 JUMP JUMPDEST PUSH1 0x1 DUP2 ADD SWAP1 POP PUSH2 0x8FE JUMP JUMPDEST POP POP JUMP JUMPDEST PUSH1 0x1F DUP3 GT ISZERO PUSH2 0x960 JUMPI PUSH2 0x931 DUP2 PUSH2 0x808 JUMP JUMPDEST PUSH2 0x93A DUP5 PUSH2 0x81A JUMP JUMPDEST DUP2 ADD PUSH1 0x20 DUP6 LT ISZERO PUSH2 0x949 JUMPI DUP2 SWAP1 POP JUMPDEST PUSH2 0x95D PUSH2 0x955 DUP6 PUSH2 0x81A JUMP JUMPDEST DUP4 ADD DUP3 PUSH2 0x8FD JUMP JUMPDEST POP POP JUMPDEST POP POP POP JUMP JUMPDEST PUSH0 DUP3 DUP3 SHR SWAP1 POP SWAP3 SWAP2 POP POP JUMP JUMPDEST PUSH0 PUSH2 0x980 PUSH0 NOT DUP5 PUSH1 0x8 MUL PUSH2 0x965 JUMP JUMPDEST NOT DUP1 DUP4 AND SWAP2 POP POP SWAP3 SWAP2 POP POP JUMP JUMPDEST PUSH0 PUSH2 0x998 DUP4 DUP4 PUSH2 0x971 JUMP JUMPDEST SWAP2 POP DUP3 PUSH1 0x2 MUL DUP3 OR SWAP1 POP SWAP3 SWAP2 POP POP JUMP JUMPDEST PUSH2 0x9B1 DUP3 PUSH2 0x49C JUMP JUMPDEST PUSH8 0xFFFFFFFFFFFFFFFF DUP2 GT ISZERO PUSH2 0x9CA JUMPI PUSH2 0x9C9 PUSH2 0x5EB JUMP JUMPDEST JUMPDEST PUSH2 0x9D4 DUP3 SLOAD PUSH2 0x7D8 JUMP JUMPDEST PUSH2 0x9DF DUP3 DUP3 DUP6 PUSH2 0x91F JUMP JUMPDEST PUSH0 PUSH1 0x20 SWAP1 POP PUSH1 0x1F DUP4 GT PUSH1 0x1 DUP2 EQ PUSH2 0xA10 JUMPI PUSH0 DUP5 ISZERO PUSH2 0x9FE JUMPI DUP3 DUP8 ADD MLOAD SWAP1 POP JUMPDEST PUSH2 0xA08 DUP6 DUP3 PUSH2 0x98D JUMP JUMPDEST DUP7 SSTORE POP PUSH2 0xA6F JUMP JUMPDEST PUSH1 0x1F NOT DUP5 AND PUSH2 0xA1E DUP7 PUSH2 0x808 JUMP JUMPDEST PUSH0 JUMPDEST DUP3 DUP2 LT ISZERO PUSH2 0xA45 JUMPI DUP5 DUP10 ADD MLOAD DUP3 SSTORE PUSH1 0x1 DUP3 ADD SWAP2 POP PUSH1 0x20 DUP6 ADD SWAP5 POP PUSH1 0x20 DUP2 ADD SWAP1 POP PUSH2 0xA20 JUMP JUMPDEST DUP7 DUP4 LT ISZERO PUSH2 0xA62 JUMPI DUP5 DUP10 ADD MLOAD PUSH2 0xA5E PUSH1 0x1F DUP10 AND DUP3 PUSH2 0x971 JUMP JUMPDEST DUP4 SSTORE POP JUMPDEST PUSH1 0x1 PUSH1 0x2 DUP9 MUL ADD DUP9 SSTORE POP POP POP JUMPDEST POP POP POP POP POP POP JUMP INVALID LOG2 PUSH5 0x6970667358 0x22 SLT KECCAK256 MSTORE DUP6 PUSH1 0xF5 ADDRESS SWAP14 0xC2 CALLDATALOAD PUSH31 0xEB4E3D6C294BD78DFE2231DC667C3ADF8FFC0B09E6EDCD64736F6C63430008 0x1E STOP CALLER "
				},
				"gasEstimates": {
					"creation": {
						"codeDepositCost": "546600",
						"executionCost": "579",
						"totalCost": "547179"
					},
					"external": {
						"createRegister(address,string,uint256,string)": "infinite",
						"userInformation(address)": "infinite",
						"users(uint256)": "infinite"
					}
				},
				"methodIdentifiers": {
					"createRegister(address,string,uint256,string)": "d600e1a1",
					"userInformation(address)": "7d2e227d",
					"users(uint256)": "365b98b2"
				}
			},
			"storageLayout": {
				"storage": [
					{
						"astId": 13,
						"contract": "smart-contract.sol:UserInformation",
						"label": "userInformation",
						"offset": 0,
						"slot": "0",
						"type": "t_mapping(t_address,t_struct(User)8_storage)"
					},
					{
						"astId": 17,
						"contract": "smart-contract.sol:UserInformation",
						"label": "users",
						"offset": 0,
						"slot": "1",
						"type": "t_array(t_struct(User)8_storage)dyn_storage"
					}
				],
				"types": {
					"t_address": {
						"encoding": "inplace",
						"label": "address",
						"numberOfBytes": "20"
					},
					"t_array(t_struct(User)8_storage)dyn_storage": {
						"base": "t_struct(User)8_storage",
						"encoding": "dynamic_array",
						"label": "struct UserInformation.User[]",
						"numberOfBytes": "32"
					},
					"t_mapping(t_address,t_struct(User)8_storage)": {
						"encoding": "mapping",
						"key": "t_address",
						"label": "mapping(address => struct UserInformation.User)",
						"numberOfBytes": "32",
						"value": "t_struct(User)8_storage"
					},
					"t_string_storage": {
						"encoding": "bytes",
						"label": "string",
						"numberOfBytes": "32"
					},
					"t_struct(User)8_storage": {
						"encoding": "inplace",
						"label": "struct UserInformation.User",
						"members": [
							{
								"astId": 3,
								"contract": "smart-contract.sol:UserInformation",
								"label": "name",
								"offset": 0,
								"slot": "0",
								"type": "t_string_storage"
							},
							{
								"astId": 5,
								"contract": "smart-contract.sol:UserInformation",
								"label": "age",
								"offset": 0,
								"slot": "1",
								"type": "t_uint256"
							},
							{
								"astId": 7,
								"contract": "smart-contract.sol:UserInformation",
								"label": "email",
								"offset": 0,
								"slot": "2",
								"type": "t_string_storage"
							}
						],
						"numberOfBytes": "96"
					},
					"t_uint256": {
						"encoding": "inplace",
						"label": "uint256",
						"numberOfBytes": "32"
					}
				}
			},
			"userdoc": {
				"kind": "user",
				"methods": {},
				"version": 1
			}
		}
	}
}