{
	"smart-contract.sol": {
		"UserInformation": {
			"abi": [
				{
					"inputs": [
						{
							"internalType": "address",
							"name": "",
							"type": "address"
						}
					],
					"name": "userInformation",
					"outputs": [
						{
							"internalType": "string",
							"name": "name",
							"type": "string"
						},
						{
							"internalType": "uint256",
							"name": "age",
							"type": "uint256"
						},
						{
							"internalType": "string",
							"name": "email",
							"type": "string"
						}
					],
					"stateMutability": "view",
					"type": "function"
				}
			],
			"devdoc": {
				"kind": "dev",
				"methods": {},
				"version": 1
			},
			"evm": {
				"assembly": "    /* \"smart-contract.sol\":521:706  contract UserInformation {... */\n  mstore(0x40, 0x80)\n  callvalue\n  dup1\n  iszero\n  tag_1\n  jumpi\n  revert(0x00, 0x00)\ntag_1:\n  pop\n  dataSize(sub_0)\n  dup1\n  dataOffset(sub_0)\n  0x00\n  codecopy\n  0x00\n  return\nstop\n\nsub_0: assembly {\n        /* \"smart-contract.sol\":521:706  contract UserInformation {... */\n      mstore(0x40, 0x80)\n      callvalue\n      dup1\n      iszero\n      tag_1\n      jumpi\n      revert(0x00, 0x00)\n    tag_1:\n      pop\n      jumpi(tag_2, lt(calldatasize, 0x04))\n      shr(0xe0, calldataload(0x00))\n      dup1\n      0x7d2e227d\n      eq\n      tag_3\n      jumpi\n    tag_2:\n      revert(0x00, 0x00)\n        /* \"smart-contract.sol\":649:694  mapping(address=>User) public userInformation */\n    tag_3:\n      tag_4\n      0x04\n      dup1\n      calldatasize\n      sub\n      dup2\n      add\n      swap1\n      tag_5\n      swap2\n      swap1\n      tag_6\n      jump\t// in\n    tag_5:\n      tag_7\n      jump\t// in\n    tag_4:\n      mload(0x40)\n      tag_8\n      swap4\n      swap3\n      swap2\n      swap1\n      tag_9\n      jump\t// in\n    tag_8:\n      mload(0x40)\n      dup1\n      swap2\n      sub\n      swap1\n      return\n    tag_7:\n      mstore(0x20, 0x00)\n      dup1\n      0x00\n      mstore\n      keccak256(0x00, 0x40)\n      0x00\n      swap2\n      pop\n      swap1\n      pop\n      dup1\n      0x00\n      add\n      dup1\n      sload\n      tag_10\n      swap1\n      tag_11\n      jump\t// in\n    tag_10:\n      dup1\n      0x1f\n      add\n      0x20\n      dup1\n      swap2\n      div\n      mul\n      0x20\n      add\n      mload(0x40)\n      swap1\n      dup2\n      add\n      0x40\n      mstore\n      dup1\n      swap3\n      swap2\n      swap1\n      dup2\n      dup2\n      mstore\n      0x20\n      add\n      dup3\n      dup1\n      sload\n      tag_12\n      swap1\n      tag_11\n      jump\t// in\n    tag_12:\n      dup1\n      iszero\n      tag_13\n      jumpi\n      dup1\n      0x1f\n      lt\n      tag_14\n      jumpi\n      0x0100\n      dup1\n      dup4\n      sload\n      div\n      mul\n      dup4\n      mstore\n      swap2\n      0x20\n      add\n      swap2\n      jump(tag_13)\n    tag_14:\n      dup3\n      add\n      swap2\n      swap1\n      0x00\n      mstore\n      keccak256(0x00, 0x20)\n      swap1\n    tag_15:\n      dup2\n      sload\n      dup2\n      mstore\n      swap1\n      0x01\n      add\n      swap1\n      0x20\n      add\n      dup1\n      dup4\n      gt\n      tag_15\n      jumpi\n      dup3\n      swap1\n      sub\n      0x1f\n      and\n      dup3\n      add\n      swap2\n    tag_13:\n      pop\n      pop\n      pop\n      pop\n      pop\n      swap1\n      dup1\n      0x01\n      add\n      sload\n      swap1\n      dup1\n      0x02\n      add\n      dup1\n      sload\n      tag_16\n      swap1\n      tag_11\n      jump\t// in\n    tag_16:\n      dup1\n      0x1f\n      add\n      0x20\n      dup1\n      swap2\n      div\n      mul\n      0x20\n      add\n      mload(0x40)\n      swap1\n      dup2\n      add\n      0x40\n      mstore\n      dup1\n      swap3\n      swap2\n      swap1\n      dup2\n      dup2\n      mstore\n      0x20\n      add\n      dup3\n      dup1\n      sload\n      tag_17\n      swap1\n      tag_11\n      jump\t// in\n    tag_17:\n      dup1\n      iszero\n      tag_18\n      jumpi\n      dup1\n      0x1f\n      lt\n      tag_19\n      jumpi\n      0x0100\n      dup1\n      dup4\n      sload\n      div\n      mul\n      dup4\n      mstore\n      swap2\n      0x20\n      add\n      swap2\n      jump(tag_18)\n    tag_19:\n      dup3\n      add\n      swap2\n      swap1\n      0x00\n      mstore\n      keccak256(0x00, 0x20)\n      swap1\n    tag_20:\n      dup2\n      sload\n      dup2\n      mstore\n      swap1\n      0x01\n      add\n      swap1\n      0x20\n      add\n      dup1\n      dup4\n      gt\n      tag_20\n      jumpi\n      dup3\n      swap1\n      sub\n      0x1f\n      and\n      dup3\n      add\n      swap2\n    tag_18:\n      pop\n      pop\n      pop\n      pop\n      pop\n      swap1\n      pop\n      dup4\n      jump\t// out\n        /* \"#utility.yul\":88:205   */\n    tag_22:\n        /* \"#utility.yul\":197:198   */\n      0x00\n        /* \"#utility.yul\":194:195   */\n      0x00\n        /* \"#utility.yul\":187:199   */\n      revert\n        /* \"#utility.yul\":334:460   */\n    tag_24:\n        /* \"#utility.yul\":371:378   */\n      0x00\n        /* \"#utility.yul\":411:453   */\n      0xffffffffffffffffffffffffffffffffffffffff\n        /* \"#utility.yul\":404:409   */\n      dup3\n        /* \"#utility.yul\":400:454   */\n      and\n        /* \"#utility.yul\":389:454   */\n      swap1\n      pop\n        /* \"#utility.yul\":334:460   */\n      swap2\n      swap1\n      pop\n      jump\t// out\n        /* \"#utility.yul\":466:562   */\n    tag_25:\n        /* \"#utility.yul\":503:510   */\n      0x00\n        /* \"#utility.yul\":532:556   */\n      tag_42\n        /* \"#utility.yul\":550:555   */\n      dup3\n        /* \"#utility.yul\":532:556   */\n      tag_24\n      jump\t// in\n    tag_42:\n        /* \"#utility.yul\":521:556   */\n      swap1\n      pop\n        /* \"#utility.yul\":466:562   */\n      swap2\n      swap1\n      pop\n      jump\t// out\n        /* \"#utility.yul\":568:690   */\n    tag_26:\n        /* \"#utility.yul\":641:665   */\n      tag_44\n        /* \"#utility.yul\":659:664   */\n      dup2\n        /* \"#utility.yul\":641:665   */\n      tag_25\n      jump\t// in\n    tag_44:\n        /* \"#utility.yul\":634:639   */\n      dup2\n        /* \"#utility.yul\":631:666   */\n      eq\n        /* \"#utility.yul\":621:684   */\n      tag_45\n      jumpi\n        /* \"#utility.yul\":680:681   */\n      0x00\n        /* \"#utility.yul\":677:678   */\n      0x00\n        /* \"#utility.yul\":670:682   */\n      revert\n        /* \"#utility.yul\":621:684   */\n    tag_45:\n        /* \"#utility.yul\":568:690   */\n      pop\n      jump\t// out\n        /* \"#utility.yul\":696:835   */\n    tag_27:\n        /* \"#utility.yul\":742:747   */\n      0x00\n        /* \"#utility.yul\":780:786   */\n      dup2\n        /* \"#utility.yul\":767:787   */\n      calldataload\n        /* \"#utility.yul\":758:787   */\n      swap1\n      pop\n        /* \"#utility.yul\":796:829   */\n      tag_47\n        /* \"#utility.yul\":823:828   */\n      dup2\n        /* \"#utility.yul\":796:829   */\n      tag_26\n      jump\t// in\n    tag_47:\n        /* \"#utility.yul\":696:835   */\n      swap3\n      swap2\n      pop\n      pop\n      jump\t// out\n        /* \"#utility.yul\":841:1170   */\n    tag_6:\n        /* \"#utility.yul\":900:906   */\n      0x00\n        /* \"#utility.yul\":949:951   */\n      0x20\n        /* \"#utility.yul\":937:946   */\n      dup3\n        /* \"#utility.yul\":928:935   */\n      dup5\n        /* \"#utility.yul\":924:947   */\n      sub\n        /* \"#utility.yul\":920:952   */\n      slt\n        /* \"#utility.yul\":917:1036   */\n      iszero\n      tag_49\n      jumpi\n        /* \"#utility.yul\":955:1034   */\n      tag_50\n      tag_22\n      jump\t// in\n    tag_50:\n        /* \"#utility.yul\":917:1036   */\n    tag_49:\n        /* \"#utility.yul\":1075:1076   */\n      0x00\n        /* \"#utility.yul\":1100:1153   */\n      tag_51\n        /* \"#utility.yul\":1145:1152   */\n      dup5\n        /* \"#utility.yul\":1136:1142   */\n      dup3\n        /* \"#utility.yul\":1125:1134   */\n      dup6\n        /* \"#utility.yul\":1121:1143   */\n      add\n        /* \"#utility.yul\":1100:1153   */\n      tag_27\n      jump\t// in\n    tag_51:\n        /* \"#utility.yul\":1090:1153   */\n      swap2\n      pop\n        /* \"#utility.yul\":1046:1163   */\n      pop\n        /* \"#utility.yul\":841:1170   */\n      swap3\n      swap2\n      pop\n      pop\n      jump\t// out\n        /* \"#utility.yul\":1176:1275   */\n    tag_28:\n        /* \"#utility.yul\":1228:1234   */\n      0x00\n        /* \"#utility.yul\":1262:1267   */\n      dup2\n        /* \"#utility.yul\":1256:1268   */\n      mload\n        /* \"#utility.yul\":1246:1268   */\n      swap1\n      pop\n        /* \"#utility.yul\":1176:1275   */\n      swap2\n      swap1\n      pop\n      jump\t// out\n        /* \"#utility.yul\":1281:1450   */\n    tag_29:\n        /* \"#utility.yul\":1365:1376   */\n      0x00\n        /* \"#utility.yul\":1399:1405   */\n      dup3\n        /* \"#utility.yul\":1394:1397   */\n      dup3\n        /* \"#utility.yul\":1387:1406   */\n      mstore\n        /* \"#utility.yul\":1439:1443   */\n      0x20\n        /* \"#utility.yul\":1434:1437   */\n      dup3\n        /* \"#utility.yul\":1430:1444   */\n      add\n        /* \"#utility.yul\":1415:1444   */\n      swap1\n      pop\n        /* \"#utility.yul\":1281:1450   */\n      swap3\n      swap2\n      pop\n      pop\n      jump\t// out\n        /* \"#utility.yul\":1456:1595   */\n    tag_30:\n        /* \"#utility.yul\":1545:1551   */\n      dup3\n        /* \"#utility.yul\":1540:1543   */\n      dup2\n        /* \"#utility.yul\":1535:1538   */\n      dup4\n        /* \"#utility.yul\":1529:1552   */\n      mcopy\n        /* \"#utility.yul\":1586:1587   */\n      0x00\n        /* \"#utility.yul\":1577:1583   */\n      dup4\n        /* \"#utility.yul\":1572:1575   */\n      dup4\n        /* \"#utility.yul\":1568:1584   */\n      add\n        /* \"#utility.yul\":1561:1588   */\n      mstore\n        /* \"#utility.yul\":1456:1595   */\n      pop\n      pop\n      pop\n      jump\t// out\n        /* \"#utility.yul\":1601:1703   */\n    tag_31:\n        /* \"#utility.yul\":1642:1648   */\n      0x00\n        /* \"#utility.yul\":1693:1695   */\n      0x1f\n        /* \"#utility.yul\":1689:1696   */\n      not\n        /* \"#utility.yul\":1684:1686   */\n      0x1f\n        /* \"#utility.yul\":1677:1682   */\n      dup4\n        /* \"#utility.yul\":1673:1687   */\n      add\n        /* \"#utility.yul\":1669:1697   */\n      and\n        /* \"#utility.yul\":1659:1697   */\n      swap1\n      pop\n        /* \"#utility.yul\":1601:1703   */\n      swap2\n      swap1\n      pop\n      jump\t// out\n        /* \"#utility.yul\":1709:2086   */\n    tag_32:\n        /* \"#utility.yul\":1797:1800   */\n      0x00\n        /* \"#utility.yul\":1825:1864   */\n      tag_57\n        /* \"#utility.yul\":1858:1863   */\n      dup3\n        /* \"#utility.yul\":1825:1864   */\n      tag_28\n      jump\t// in\n    tag_57:\n        /* \"#utility.yul\":1880:1951   */\n      tag_58\n        /* \"#utility.yul\":1944:1950   */\n      dup2\n        /* \"#utility.yul\":1939:1942   */\n      dup6\n        /* \"#utility.yul\":1880:1951   */\n      tag_29\n      jump\t// in\n    tag_58:\n        /* \"#utility.yul\":1873:1951   */\n      swap4\n      pop\n        /* \"#utility.yul\":1960:2025   */\n      tag_59\n        /* \"#utility.yul\":2018:2024   */\n      dup2\n        /* \"#utility.yul\":2013:2016   */\n      dup6\n        /* \"#utility.yul\":2006:2010   */\n      0x20\n        /* \"#utility.yul\":1999:2004   */\n      dup7\n        /* \"#utility.yul\":1995:2011   */\n      add\n        /* \"#utility.yul\":1960:2025   */\n      tag_30\n      jump\t// in\n    tag_59:\n        /* \"#utility.yul\":2050:2079   */\n      tag_60\n        /* \"#utility.yul\":2072:2078   */\n      dup2\n        /* \"#utility.yul\":2050:2079   */\n      tag_31\n      jump\t// in\n    tag_60:\n        /* \"#utility.yul\":2045:2048   */\n      dup5\n        /* \"#utility.yul\":2041:2080   */\n      add\n        /* \"#utility.yul\":2034:2080   */\n      swap2\n      pop\n        /* \"#utility.yul\":1801:2086   */\n      pop\n        /* \"#utility.yul\":1709:2086   */\n      swap3\n      swap2\n      pop\n      pop\n      jump\t// out\n        /* \"#utility.yul\":2092:2169   */\n    tag_33:\n        /* \"#utility.yul\":2129:2136   */\n      0x00\n        /* \"#utility.yul\":2158:2163   */\n      dup2\n        /* \"#utility.yul\":2147:2163   */\n      swap1\n      pop\n        /* \"#utility.yul\":2092:2169   */\n      swap2\n      swap1\n      pop\n      jump\t// out\n        /* \"#utility.yul\":2175:2293   */\n    tag_34:\n        /* \"#utility.yul\":2262:2286   */\n      tag_63\n        /* \"#utility.yul\":2280:2285   */\n      dup2\n        /* \"#utility.yul\":2262:2286   */\n      tag_33\n      jump\t// in\n    tag_63:\n        /* \"#utility.yul\":2257:2260   */\n      dup3\n        /* \"#utility.yul\":2250:2287   */\n      mstore\n        /* \"#utility.yul\":2175:2293   */\n      pop\n      pop\n      jump\t// out\n        /* \"#utility.yul\":2299:2923   */\n    tag_9:\n        /* \"#utility.yul\":2488:2492   */\n      0x00\n        /* \"#utility.yul\":2526:2528   */\n      0x60\n        /* \"#utility.yul\":2515:2524   */\n      dup3\n        /* \"#utility.yul\":2511:2529   */\n      add\n        /* \"#utility.yul\":2503:2529   */\n      swap1\n      pop\n        /* \"#utility.yul\":2575:2584   */\n      dup2\n        /* \"#utility.yul\":2569:2573   */\n      dup2\n        /* \"#utility.yul\":2565:2585   */\n      sub\n        /* \"#utility.yul\":2561:2562   */\n      0x00\n        /* \"#utility.yul\":2550:2559   */\n      dup4\n        /* \"#utility.yul\":2546:2563   */\n      add\n        /* \"#utility.yul\":2539:2586   */\n      mstore\n        /* \"#utility.yul\":2603:2681   */\n      tag_65\n        /* \"#utility.yul\":2676:2680   */\n      dup2\n        /* \"#utility.yul\":2667:2673   */\n      dup7\n        /* \"#utility.yul\":2603:2681   */\n      tag_32\n      jump\t// in\n    tag_65:\n        /* \"#utility.yul\":2595:2681   */\n      swap1\n      pop\n        /* \"#utility.yul\":2691:2763   */\n      tag_66\n        /* \"#utility.yul\":2759:2761   */\n      0x20\n        /* \"#utility.yul\":2748:2757   */\n      dup4\n        /* \"#utility.yul\":2744:2762   */\n      add\n        /* \"#utility.yul\":2735:2741   */\n      dup6\n        /* \"#utility.yul\":2691:2763   */\n      tag_34\n      jump\t// in\n    tag_66:\n        /* \"#utility.yul\":2810:2819   */\n      dup2\n        /* \"#utility.yul\":2804:2808   */\n      dup2\n        /* \"#utility.yul\":2800:2820   */\n      sub\n        /* \"#utility.yul\":2795:2797   */\n      0x40\n        /* \"#utility.yul\":2784:2793   */\n      dup4\n        /* \"#utility.yul\":2780:2798   */\n      add\n        /* \"#utility.yul\":2773:2821   */\n      mstore\n        /* \"#utility.yul\":2838:2916   */\n      tag_67\n        /* \"#utility.yul\":2911:2915   */\n      dup2\n        /* \"#utility.yul\":2902:2908   */\n      dup5\n        /* \"#utility.yul\":2838:2916   */\n      tag_32\n      jump\t// in\n    tag_67:\n        /* \"#utility.yul\":2830:2916   */\n      swap1\n      pop\n        /* \"#utility.yul\":2299:2923   */\n      swap5\n      swap4\n      pop\n      pop\n      pop\n      pop\n      jump\t// out\n        /* \"#utility.yul\":2929:3109   */\n    tag_35:\n        /* \"#utility.yul\":2977:3054   */\n      0x4e487b7100000000000000000000000000000000000000000000000000000000\n        /* \"#utility.yul\":2974:2975   */\n      0x00\n        /* \"#utility.yul\":2967:3055   */\n      mstore\n        /* \"#utility.yul\":3074:3078   */\n      0x22\n        /* \"#utility.yul\":3071:3072   */\n      0x04\n        /* \"#utility.yul\":3064:3079   */\n      mstore\n        /* \"#utility.yul\":3098:3102   */\n      0x24\n        /* \"#utility.yul\":3095:3096   */\n      0x00\n        /* \"#utility.yul\":3088:3103   */\n      revert\n        /* \"#utility.yul\":3115:3435   */\n    tag_11:\n        /* \"#utility.yul\":3159:3165   */\n      0x00\n        /* \"#utility.yul\":3196:3197   */\n      0x02\n        /* \"#utility.yul\":3190:3194   */\n      dup3\n        /* \"#utility.yul\":3186:3198   */\n      div\n        /* \"#utility.yul\":3176:3198   */\n      swap1\n      pop\n        /* \"#utility.yul\":3243:3244   */\n      0x01\n        /* \"#utility.yul\":3237:3241   */\n      dup3\n        /* \"#utility.yul\":3233:3245   */\n      and\n        /* \"#utility.yul\":3264:3282   */\n      dup1\n        /* \"#utility.yul\":3254:3335   */\n      tag_70\n      jumpi\n        /* \"#utility.yul\":3320:3324   */\n      0x7f\n        /* \"#utility.yul\":3312:3318   */\n      dup3\n        /* \"#utility.yul\":3308:3325   */\n      and\n        /* \"#utility.yul\":3298:3325   */\n      swap2\n      pop\n        /* \"#utility.yul\":3254:3335   */\n    tag_70:\n        /* \"#utility.yul\":3382:3384   */\n      0x20\n        /* \"#utility.yul\":3374:3380   */\n      dup3\n        /* \"#utility.yul\":3371:3385   */\n      lt\n        /* \"#utility.yul\":3351:3369   */\n      dup2\n        /* \"#utility.yul\":3348:3386   */\n      sub\n        /* \"#utility.yul\":3345:3429   */\n      tag_71\n      jumpi\n        /* \"#utility.yul\":3401:3419   */\n      tag_72\n      tag_35\n      jump\t// in\n    tag_72:\n        /* \"#utility.yul\":3345:3429   */\n    tag_71:\n        /* \"#utility.yul\":3166:3435   */\n      pop\n        /* \"#utility.yul\":3115:3435   */\n      swap2\n      swap1\n      pop\n      jump\t// out\n\n    auxdata: 0xa2646970667358221220559536458fba9c473041bdbb894b3718bfc192576d8044d30258f1cfd2ed964064736f6c634300081e0033\n}\n",
				"bytecode": {
					"linkReferences": {},
					"object": "6080604052348015600e575f5ffd5b506103778061001c5f395ff3fe608060405234801561000f575f5ffd5b5060043610610029575f3560e01c80637d2e227d1461002d575b5f5ffd5b610047600480360381019061004291906101ee565b61005f565b604051610056939291906102a1565b60405180910390f35b5f602052805f5260405f205f91509050805f01805461007d90610311565b80601f01602080910402602001604051908101604052809291908181526020018280546100a990610311565b80156100f45780601f106100cb576101008083540402835291602001916100f4565b820191905f5260205f20905b8154815290600101906020018083116100d757829003601f168201915b50505050509080600101549080600201805461010f90610311565b80601f016020809104026020016040519081016040528092919081815260200182805461013b90610311565b80156101865780601f1061015d57610100808354040283529160200191610186565b820191905f5260205f20905b81548152906001019060200180831161016957829003601f168201915b5050505050905083565b5f5ffd5b5f73ffffffffffffffffffffffffffffffffffffffff82169050919050565b5f6101bd82610194565b9050919050565b6101cd816101b3565b81146101d7575f5ffd5b50565b5f813590506101e8816101c4565b92915050565b5f6020828403121561020357610202610190565b5b5f610210848285016101da565b91505092915050565b5f81519050919050565b5f82825260208201905092915050565b8281835e5f83830152505050565b5f601f19601f8301169050919050565b5f61025b82610219565b6102658185610223565b9350610275818560208601610233565b61027e81610241565b840191505092915050565b5f819050919050565b61029b81610289565b82525050565b5f6060820190508181035f8301526102b98186610251565b90506102c86020830185610292565b81810360408301526102da8184610251565b9050949350505050565b7f4e487b71000000000000000000000000000000000000000000000000000000005f52602260045260245ffd5b5f600282049050600182168061032857607f821691505b60208210810361033b5761033a6102e4565b5b5091905056fea2646970667358221220559536458fba9c473041bdbb894b3718bfc192576d8044d30258f1cfd2ed964064736f6c634300081e0033",
					"opcodes": "PUSH1 0x80 PUSH1 0x40 MSTORE CALLVALUE DUP1 ISZERO PUSH1 0xE JUMPI PUSH0 PUSH0 REVERT JUMPDEST POP PUSH2 0x377 DUP1 PUSH2 0x1C PUSH0 CODECOPY PUSH0 RETURN INVALID PUSH1 0x80 PUSH1 0x40 MSTORE CALLVALUE DUP1 ISZERO PUSH2 0xF JUMPI PUSH0 PUSH0 REVERT JUMPDEST POP PUSH1 0x4 CALLDATASIZE LT PUSH2 0x29 JUMPI PUSH0 CALLDATALOAD PUSH1 0xE0 SHR DUP1 PUSH4 0x7D2E227D EQ PUSH2 0x2D JUMPI JUMPDEST PUSH0 PUSH0 REVERT JUMPDEST PUSH2 0x47 PUSH1 0x4 DUP1 CALLDATASIZE SUB DUP2 ADD SWAP1 PUSH2 0x42 SWAP2 SWAP1 PUSH2 0x1EE JUMP JUMPDEST PUSH2 0x5F JUMP JUMPDEST PUSH1 0x40 MLOAD PUSH2 0x56 SWAP4 SWAP3 SWAP2 SWAP1 PUSH2 0x2A1 JUMP JUMPDEST PUSH1 0x40 MLOAD DUP1 SWAP2 SUB SWAP1 RETURN JUMPDEST PUSH0 PUSH1 0x20 MSTORE DUP1 PUSH0 MSTORE PUSH1 0x40 PUSH0 KECCAK256 PUSH0 SWAP2 POP SWAP1 POP DUP1 PUSH0 ADD DUP1 SLOAD PUSH2 0x7D SWAP1 PUSH2 0x311 JUMP JUMPDEST DUP1 PUSH1 0x1F ADD PUSH1 0x20 DUP1 SWAP2 DIV MUL PUSH1 0x20 ADD PUSH1 0x40 MLOAD SWAP1 DUP2 ADD PUSH1 0x40 MSTORE DUP1 SWAP3 SWAP2 SWAP1 DUP2 DUP2 MSTORE PUSH1 0x20 ADD DUP3 DUP1 SLOAD PUSH2 0xA9 SWAP1 PUSH2 0x311 JUMP JUMPDEST DUP1 ISZERO PUSH2 0xF4 JUMPI DUP1 PUSH1 0x1F LT PUSH2 0xCB JUMPI PUSH2 0x100 DUP1 DUP4 SLOAD DIV MUL DUP4 MSTORE SWAP2 PUSH1 0x20 ADD SWAP2 PUSH2 0xF4 JUMP JUMPDEST DUP3 ADD SWAP2 SWAP1 PUSH0 MSTORE PUSH1 0x20 PUSH0 KECCAK256 SWAP1 JUMPDEST DUP2 SLOAD DUP2 MSTORE SWAP1 PUSH1 0x1 ADD SWAP1 PUSH1 0x20 ADD DUP1 DUP4 GT PUSH2 0xD7 JUMPI DUP3 SWAP1 SUB PUSH1 0x1F AND DUP3 ADD SWAP2 JUMPDEST POP POP POP POP POP SWAP1 DUP1 PUSH1 0x1 ADD SLOAD SWAP1 DUP1 PUSH1 0x2 ADD DUP1 SLOAD PUSH2 0x10F SWAP1 PUSH2 0x311 JUMP JUMPDEST DUP1 PUSH1 0x1F ADD PUSH1 0x20 DUP1 SWAP2 DIV MUL PUSH1 0x20 ADD PUSH1 0x40 MLOAD SWAP1 DUP2 ADD PUSH1 0x40 MSTORE DUP1 SWAP3 SWAP2 SWAP1 DUP2 DUP2 MSTORE PUSH1 0x20 ADD DUP3 DUP1 SLOAD PUSH2 0x13B SWAP1 PUSH2 0x311 JUMP JUMPDEST DUP1 ISZERO PUSH2 0x186 JUMPI DUP1 PUSH1 0x1F LT PUSH2 0x15D JUMPI PUSH2 0x100 DUP1 DUP4 SLOAD DIV MUL DUP4 MSTORE SWAP2 PUSH1 0x20 ADD SWAP2 PUSH2 0x186 JUMP JUMPDEST DUP3 ADD SWAP2 SWAP1 PUSH0 MSTORE PUSH1 0x20 PUSH0 KECCAK256 SWAP1 JUMPDEST DUP2 SLOAD DUP2 MSTORE SWAP1 PUSH1 0x1 ADD SWAP1 PUSH1 0x20 ADD DUP1 DUP4 GT PUSH2 0x169 JUMPI DUP3 SWAP1 SUB PUSH1 0x1F AND DUP3 ADD SWAP2 JUMPDEST POP POP POP POP POP SWAP1 POP DUP4 JUMP JUMPDEST PUSH0 PUSH0 REVERT JUMPDEST PUSH0 PUSH20 0xFFFFFFFFFFFFFFFFFFFFFFFFFFFFFFFFFFFFFFFF DUP3 AND SWAP1 POP SWAP2 SWAP1 POP JUMP JUMPDEST PUSH0 PUSH2 0x1BD DUP3 PUSH2 0x194 JUMP JUMPDEST SWAP1 POP SWAP2 SWAP1 POP JUMP JUMPDEST PUSH2 0x1CD DUP2 PUSH2 0x1B3 JUMP JUMPDEST DUP2 EQ PUSH2 0x1D7 JUMPI PUSH0 PUSH0 REVERT JUMPDEST POP JUMP JUMPDEST PUSH0 DUP2 CALLDATALOAD SWAP1 POP PUSH2 0x1E8 DUP2 PUSH2 0x1C4 JUMP JUMPDEST SWAP3 SWAP2 POP POP JUMP JUMPDEST PUSH0 PUSH1 0x20 DUP3 DUP5 SUB SLT ISZERO PUSH2 0x203 JUMPI PUSH2 0x202 PUSH2 0x190 JUMP JUMPDEST JUMPDEST PUSH0 PUSH2 0x210 DUP5 DUP3 DUP6 ADD PUSH2 0x1DA JUMP JUMPDEST SWAP2 POP POP SWAP3 SWAP2 POP POP JUMP JUMPDEST PUSH0 DUP2 MLOAD SWAP1 POP SWAP2 SWAP1 POP JUMP JUMPDEST PUSH0 DUP3 DUP3 MSTORE PUSH1 0x20 DUP3 ADD SWAP1 POP SWAP3 SWAP2 POP POP JUMP JUMPDEST DUP3 DUP2 DUP4 MCOPY PUSH0 DUP4 DUP4 ADD MSTORE POP POP POP JUMP JUMPDEST PUSH0 PUSH1 0x1F NOT PUSH1 0x1F DUP4 ADD AND SWAP1 POP SWAP2 SWAP1 POP JUMP JUMPDEST PUSH0 PUSH2 0x25B DUP3 PUSH2 0x219 JUMP JUMPDEST PUSH2 0x265 DUP2 DUP6 PUSH2 0x223 JUMP JUMPDEST SWAP4 POP PUSH2 0x275 DUP2 DUP6 PUSH1 0x20 DUP7 ADD PUSH2 0x233 JUMP JUMPDEST PUSH2 0x27E DUP2 PUSH2 0x241 JUMP JUMPDEST DUP5 ADD SWAP2 POP POP SWAP3 SWAP2 POP POP JUMP JUMPDEST PUSH0 DUP2 SWAP1 POP SWAP2 SWAP1 POP JUMP JUMPDEST PUSH2 0x29B DUP2 PUSH2 0x289 JUMP JUMPDEST DUP3 MSTORE POP POP JUMP JUMPDEST PUSH0 PUSH1 0x60 DUP3 ADD SWAP1 POP DUP2 DUP2 SUB PUSH0 DUP4 ADD MSTORE PUSH2 0x2B9 DUP2 DUP7 PUSH2 0x251 JUMP JUMPDEST SWAP1 POP PUSH2 0x2C8 PUSH1 0x20 DUP4 ADD DUP6 PUSH2 0x292 JUMP JUMPDEST DUP2 DUP2 SUB PUSH1 0x40 DUP4 ADD MSTORE PUSH2 0x2DA DUP2 DUP5 PUSH2 0x251 JUMP JUMPDEST SWAP1 POP SWAP5 SWAP4 POP POP POP POP JUMP JUMPDEST PUSH32 0x4E487B7100000000000000000000000000000000000000000000000000000000 PUSH0 MSTORE PUSH1 0x22 PUSH1 0x4 MSTORE PUSH1 0x24 PUSH0 REVERT JUMPDEST PUSH0 PUSH1 0x2 DUP3 DIV SWAP1 POP PUSH1 0x1 DUP3 AND DUP1 PUSH2 0x328 JUMPI PUSH1 0x7F DUP3 AND SWAP2 POP JUMPDEST PUSH1 0x20 DUP3 LT DUP2 SUB PUSH2 0x33B JUMPI PUSH2 0x33A PUSH2 0x2E4 JUMP JUMPDEST JUMPDEST POP SWAP2 SWAP1 POP JUMP INVALID LOG2 PUSH5 0x6970667358 0x22 SLT KECCAK256 SSTORE SWAP6 CALLDATASIZE GASLIMIT DUP16 0xBA SWAP13 SELFBALANCE ADDRESS COINBASE 0xBD 0xBB DUP10 0x4B CALLDATACOPY XOR 0xBF 0xC1 SWAP3 JUMPI PUSH14 0x8044D30258F1CFD2ED964064736F PUSH13 0x634300081E0033000000000000 "
				},
				"gasEstimates": {
					"creation": {
						"codeDepositCost": "177400",
						"executionCost": "218",
						"totalCost": "177618"
					},
					"external": {
						"userInformation(address)": "infinite"
					}
				},
				"methodIdentifiers": {
					"userInformation(address)": "7d2e227d"
				}
			},
			"storageLayout": {
				"storage": [
					{
						"astId": 13,
						"contract": "smart-contract.sol:UserInformation",
						"label": "userInformation",
						"offset": 0,
						"slot": "0",
						"type": "t_mapping(t_address,t_struct(User)8_storage)"
					}
				],
				"types": {
					"t_address": {
						"encoding": "inplace",
						"label": "address",
						"numberOfBytes": "20"
					},
					"t_mapping(t_address,t_struct(User)8_storage)": {
						"encoding": "mapping",
						"key": "t_address",
						"label": "mapping(address => struct UserInformation.User)",
						"numberOfBytes": "32",
						"value": "t_struct(User)8_storage"
					},
					"t_string_storage": {
						"encoding": "bytes",
						"label": "string",
						"numberOfBytes": "32"
					},
					"t_struct(User)8_storage": {
						"encoding": "inplace",
						"label": "struct UserInformation.User",
						"members": [
							{
								"astId": 3,
								"contract": "smart-contract.sol:UserInformation",
								"label": "name",
								"offset": 0,
								"slot": "0",
								"type": "t_string_storage"
							},
							{
								"astId": 5,
								"contract": "smart-contract.sol:UserInformation",
								"label": "age",
								"offset": 0,
								"slot": "1",
								"type": "t_uint256"
							},
							{
								"astId": 7,
								"contract": "smart-contract.sol:UserInformation",
								"label": "email",
								"offset": 0,
								"slot": "2",
								"type": "t_string_storage"
							}
						],
						"numberOfBytes": "96"
					},
					"t_uint256": {
						"encoding": "inplace",
						"label": "uint256",
						"numberOfBytes": "32"
					}
				}
			},
			"userdoc": {
				"kind": "user",
				"methods": {},
				"version": 1
			}
		}
	}
}