{
	"smart-contract.sol": {
		"UserInformation": {
			"abi": [
				{
					"inputs": [
						{
							"internalType": "address",
							"name": "user_",
							"type": "address"
						},
						{
							"internalType": "string",
							"name": "name_",
							"type": "string"
						},
						{
							"internalType": "uint256",
							"name": "age_",
							"type": "uint256"
						},
						{
							"internalType": "string",
							"name": "email_",
							"type": "string"
						}
					],
					"name": "createRegister",
					"outputs": [],
					"stateMutability": "nonpayable",
					"type": "function"
				},
				{
					"inputs": [
						{
							"internalType": "address",
							"name": "user_",
							"type": "address"
						}
					],
					"name": "getProfile",
					"outputs": [
						{
							"components": [
								{
									"internalType": "string",
									"name": "name",
									"type": "string"
								},
								{
									"internalType": "uint256",
									"name": "age",
									"type": "uint256"
								},
								{
									"internalType": "string",
									"name": "email",
									"type": "string"
								},
								{
									"internalType": "uint256",
									"name": "timestamp",
									"type": "uint256"
								}
							],
							"internalType": "struct UserInformation.User",
							"name": "",
							"type": "tuple"
						}
					],
					"stateMutability": "view",
					"type": "function"
				},
				{
					"inputs": [
						{
							"internalType": "address",
							"name": "user_",
							"type": "address"
						},
						{
							"internalType": "string",
							"name": "name_",
							"type": "string"
						},
						{
							"internalType": "uint256",
							"name": "age_",
							"type": "uint256"
						},
						{
							"internalType": "string",
							"name": "email_",
							"type": "string"
						}
					],
					"name": "updateProfile",
					"outputs": [],
					"stateMutability": "nonpayable",
					"type": "function"
				},
				{
					"inputs": [
						{
							"internalType": "address",
							"name": "",
							"type": "address"
						}
					],
					"name": "userInformation",
					"outputs": [
						{
							"internalType": "string",
							"name": "name",
							"type": "string"
						},
						{
							"internalType": "uint256",
							"name": "age",
							"type": "uint256"
						},
						{
							"internalType": "string",
							"name": "email",
							"type": "string"
						},
						{
							"internalType": "uint256",
							"name": "timestamp",
							"type": "uint256"
						}
					],
					"stateMutability": "view",
					"type": "function"
				},
				{
					"inputs": [
						{
							"internalType": "uint256",
							"name": "",
							"type": "uint256"
						}
					],
					"name": "users",
					"outputs": [
						{
							"internalType": "string",
							"name": "name",
							"type": "string"
						},
						{
							"internalType": "uint256",
							"name": "age",
							"type": "uint256"
						},
						{
							"internalType": "string",
							"name": "email",
							"type": "string"
						},
						{
							"internalType": "uint256",
							"name": "timestamp",
							"type": "uint256"
						}
					],
					"stateMutability": "view",
					"type": "function"
				}
			],
			"devdoc": {
				"kind": "dev",
				"methods": {},
				"version": 1
			},
			"evm": {
				"assembly": "    /* \"smart-contract.sol\":521:1793  contract UserInformation {... */\n  mstore(0x40, 0x80)\n  callvalue\n  dup1\n  iszero\n  tag_1\n  jumpi\n  revert(0x00, 0x00)\ntag_1:\n  pop\n  dataSize(sub_0)\n  dup1\n  dataOffset(sub_0)\n  0x00\n  codecopy\n  0x00\n  return\nstop\n\nsub_0: assembly {\n        /* \"smart-contract.sol\":521:1793  contract UserInformation {... */\n      mstore(0x40, 0x80)\n      callvalue\n      dup1\n      iszero\n      tag_1\n      jumpi\n      revert(0x00, 0x00)\n    tag_1:\n      pop\n      jumpi(tag_2, lt(calldatasize, 0x04))\n      shr(0xe0, calldataload(0x00))\n      dup1\n      0x088d4978\n      eq\n      tag_3\n      jumpi\n      dup1\n      0x0f53a470\n      eq\n      tag_4\n      jumpi\n      dup1\n      0x365b98b2\n      eq\n      tag_5\n      jumpi\n      dup1\n      0x7d2e227d\n      eq\n      tag_6\n      jumpi\n      dup1\n      0xd600e1a1\n      eq\n      tag_7\n      jumpi\n    tag_2:\n      revert(0x00, 0x00)\n        /* \"smart-contract.sol\":1217:1665  function updateProfile(address user_, string memory name_, uint256 age_, string memory email_) public {                ... */\n    tag_3:\n      tag_8\n      0x04\n      dup1\n      calldatasize\n      sub\n      dup2\n      add\n      swap1\n      tag_9\n      swap2\n      swap1\n      tag_10\n      jump\t// in\n    tag_9:\n      tag_11\n      jump\t// in\n    tag_8:\n      stop\n        /* \"smart-contract.sol\":1673:1790  function getProfile(address user_) public view returns (User memory) {... */\n    tag_4:\n      tag_12\n      0x04\n      dup1\n      calldatasize\n      sub\n      dup2\n      add\n      swap1\n      tag_13\n      swap2\n      swap1\n      tag_14\n      jump\t// in\n    tag_13:\n      tag_15\n      jump\t// in\n    tag_12:\n      mload(0x40)\n      tag_16\n      swap2\n      swap1\n      tag_17\n      jump\t// in\n    tag_16:\n      mload(0x40)\n      dup1\n      swap2\n      sub\n      swap1\n      return\n        /* \"smart-contract.sol\":732:751  User[] public users */\n    tag_5:\n      tag_18\n      0x04\n      dup1\n      calldatasize\n      sub\n      dup2\n      add\n      swap1\n      tag_19\n      swap2\n      swap1\n      tag_20\n      jump\t// in\n    tag_19:\n      tag_21\n      jump\t// in\n    tag_18:\n      mload(0x40)\n      tag_22\n      swap5\n      swap4\n      swap3\n      swap2\n      swap1\n      tag_23\n      jump\t// in\n    tag_22:\n      mload(0x40)\n      dup1\n      swap2\n      sub\n      swap1\n      return\n        /* \"smart-contract.sol\":680:725  mapping(address=>User) public userInformation */\n    tag_6:\n      tag_24\n      0x04\n      dup1\n      calldatasize\n      sub\n      dup2\n      add\n      swap1\n      tag_25\n      swap2\n      swap1\n      tag_14\n      jump\t// in\n    tag_25:\n      tag_26\n      jump\t// in\n    tag_24:\n      mload(0x40)\n      tag_27\n      swap5\n      swap4\n      swap3\n      swap2\n      swap1\n      tag_23\n      jump\t// in\n    tag_27:\n      mload(0x40)\n      dup1\n      swap2\n      sub\n      swap1\n      return\n        /* \"smart-contract.sol\":760:1209  function createRegister(address user_, string memory name_, uint256 age_, string memory email_) public {  ... */\n    tag_7:\n      tag_28\n      0x04\n      dup1\n      calldatasize\n      sub\n      dup2\n      add\n      swap1\n      tag_29\n      swap2\n      swap1\n      tag_10\n      jump\t// in\n    tag_29:\n      tag_30\n      jump\t// in\n    tag_28:\n      stop\n        /* \"smart-contract.sol\":1217:1665  function updateProfile(address user_, string memory name_, uint256 age_, string memory email_) public {                ... */\n    tag_11:\n        /* \"smart-contract.sol\":1399:1400  0 */\n      0x00\n        /* \"smart-contract.sol\":1360:1375  userInformation */\n      0x00\n        /* \"smart-contract.sol\":1360:1382  userInformation[user_] */\n      0x00\n        /* \"smart-contract.sol\":1376:1381  user_ */\n      dup7\n        /* \"smart-contract.sol\":1360:1382  userInformation[user_] */\n      0xffffffffffffffffffffffffffffffffffffffff\n      and\n      0xffffffffffffffffffffffffffffffffffffffff\n      and\n      dup2\n      mstore\n      0x20\n      add\n      swap1\n      dup2\n      mstore\n      0x20\n      add\n      0x00\n      keccak256\n        /* \"smart-contract.sol\":1360:1387  userInformation[user_].name */\n      0x00\n      add\n        /* \"smart-contract.sol\":1354:1395  bytes(userInformation[user_].name).length */\n      dup1\n      sload\n      tag_32\n      swap1\n      tag_33\n      jump\t// in\n    tag_32:\n      swap1\n      pop\n        /* \"smart-contract.sol\":1354:1400  bytes(userInformation[user_].name).length != 0 */\n      sub\n        /* \"smart-contract.sol\":1346:1424  require(bytes(userInformation[user_].name).length != 0, \"User not registered\") */\n      tag_34\n      jumpi\n      mload(0x40)\n      0x08c379a000000000000000000000000000000000000000000000000000000000\n      dup2\n      mstore\n      0x04\n      add\n      tag_35\n      swap1\n      tag_36\n      jump\t// in\n    tag_35:\n      mload(0x40)\n      dup1\n      swap2\n      sub\n      swap1\n      revert\n    tag_34:\n        /* \"smart-contract.sol\":1435:1451  User memory user */\n      0x00\n        /* \"smart-contract.sol\":1454:1590  User({... */\n      mload(0x40)\n      dup1\n      0x80\n      add\n      0x40\n      mstore\n      dup1\n        /* \"smart-contract.sol\":1480:1485  name_ */\n      dup6\n        /* \"smart-contract.sol\":1454:1590  User({... */\n      dup2\n      mstore\n      0x20\n      add\n        /* \"smart-contract.sol\":1505:1509  age_ */\n      dup5\n        /* \"smart-contract.sol\":1454:1590  User({... */\n      dup2\n      mstore\n      0x20\n      add\n        /* \"smart-contract.sol\":1531:1537  email_ */\n      dup4\n        /* \"smart-contract.sol\":1454:1590  User({... */\n      dup2\n      mstore\n      0x20\n      add\n        /* \"smart-contract.sol\":1563:1578  block.timestamp */\n      timestamp\n        /* \"smart-contract.sol\":1454:1590  User({... */\n      dup2\n      mstore\n      pop\n        /* \"smart-contract.sol\":1435:1590  User memory user = User({... */\n      swap1\n      pop\n        /* \"smart-contract.sol\":1626:1630  user */\n      dup1\n        /* \"smart-contract.sol\":1601:1616  userInformation */\n      0x00\n        /* \"smart-contract.sol\":1601:1623  userInformation[user_] */\n      0x00\n        /* \"smart-contract.sol\":1617:1622  user_ */\n      dup8\n        /* \"smart-contract.sol\":1601:1623  userInformation[user_] */\n      0xffffffffffffffffffffffffffffffffffffffff\n      and\n      0xffffffffffffffffffffffffffffffffffffffff\n      and\n      dup2\n      mstore\n      0x20\n      add\n      swap1\n      dup2\n      mstore\n      0x20\n      add\n      0x00\n      keccak256\n        /* \"smart-contract.sol\":1601:1630  userInformation[user_] = user */\n      0x00\n      dup3\n      add\n      mload\n      dup2\n      0x00\n      add\n      swap1\n      dup2\n      tag_37\n      swap2\n      swap1\n      tag_38\n      jump\t// in\n    tag_37:\n      pop\n      0x20\n      dup3\n      add\n      mload\n      dup2\n      0x01\n      add\n      sstore\n      0x40\n      dup3\n      add\n      mload\n      dup2\n      0x02\n      add\n      swap1\n      dup2\n      tag_39\n      swap2\n      swap1\n      tag_38\n      jump\t// in\n    tag_39:\n      pop\n      0x60\n      dup3\n      add\n      mload\n      dup2\n      0x03\n      add\n      sstore\n      swap1\n      pop\n      pop\n        /* \"smart-contract.sol\":1641:1646  users */\n      0x01\n        /* \"smart-contract.sol\":1652:1656  user */\n      dup2\n        /* \"smart-contract.sol\":1641:1657  users.push(user) */\n      swap1\n      dup1\n      0x01\n      dup2\n      sload\n      add\n      dup1\n      dup3\n      sstore\n      dup1\n      swap2\n      pop\n      pop\n      0x01\n      swap1\n      sub\n      swap1\n      0x00\n      mstore\n      keccak256(0x00, 0x20)\n      swap1\n      0x04\n      mul\n      add\n      0x00\n      swap1\n      swap2\n      swap1\n      swap2\n      swap1\n      swap2\n      pop\n      0x00\n      dup3\n      add\n      mload\n      dup2\n      0x00\n      add\n      swap1\n      dup2\n      tag_41\n      swap2\n      swap1\n      tag_38\n      jump\t// in\n    tag_41:\n      pop\n      0x20\n      dup3\n      add\n      mload\n      dup2\n      0x01\n      add\n      sstore\n      0x40\n      dup3\n      add\n      mload\n      dup2\n      0x02\n      add\n      swap1\n      dup2\n      tag_42\n      swap2\n      swap1\n      tag_38\n      jump\t// in\n    tag_42:\n      pop\n      0x60\n      dup3\n      add\n      mload\n      dup2\n      0x03\n      add\n      sstore\n      pop\n      pop\n        /* \"smart-contract.sol\":1319:1665  {                ... */\n      pop\n        /* \"smart-contract.sol\":1217:1665  function updateProfile(address user_, string memory name_, uint256 age_, string memory email_) public {                ... */\n      pop\n      pop\n      pop\n      pop\n      jump\t// out\n        /* \"smart-contract.sol\":1673:1790  function getProfile(address user_) public view returns (User memory) {... */\n    tag_15:\n        /* \"smart-contract.sol\":1729:1740  User memory */\n      tag_43\n      tag_44\n      jump\t// in\n    tag_43:\n        /* \"smart-contract.sol\":1760:1775  userInformation */\n      0x00\n        /* \"smart-contract.sol\":1760:1782  userInformation[user_] */\n      0x00\n        /* \"smart-contract.sol\":1776:1781  user_ */\n      dup4\n        /* \"smart-contract.sol\":1760:1782  userInformation[user_] */\n      0xffffffffffffffffffffffffffffffffffffffff\n      and\n      0xffffffffffffffffffffffffffffffffffffffff\n      and\n      dup2\n      mstore\n      0x20\n      add\n      swap1\n      dup2\n      mstore\n      0x20\n      add\n      0x00\n      keccak256\n        /* \"smart-contract.sol\":1753:1782  return userInformation[user_] */\n      mload(0x40)\n      dup1\n      0x80\n      add\n      0x40\n      mstore\n      swap1\n      dup2\n      0x00\n      dup3\n      add\n      dup1\n      sload\n      tag_46\n      swap1\n      tag_33\n      jump\t// in\n    tag_46:\n      dup1\n      0x1f\n      add\n      0x20\n      dup1\n      swap2\n      div\n      mul\n      0x20\n      add\n      mload(0x40)\n      swap1\n      dup2\n      add\n      0x40\n      mstore\n      dup1\n      swap3\n      swap2\n      swap1\n      dup2\n      dup2\n      mstore\n      0x20\n      add\n      dup3\n      dup1\n      sload\n      tag_47\n      swap1\n      tag_33\n      jump\t// in\n    tag_47:\n      dup1\n      iszero\n      tag_48\n      jumpi\n      dup1\n      0x1f\n      lt\n      tag_49\n      jumpi\n      0x0100\n      dup1\n      dup4\n      sload\n      div\n      mul\n      dup4\n      mstore\n      swap2\n      0x20\n      add\n      swap2\n      jump(tag_48)\n    tag_49:\n      dup3\n      add\n      swap2\n      swap1\n      0x00\n      mstore\n      keccak256(0x00, 0x20)\n      swap1\n    tag_50:\n      dup2\n      sload\n      dup2\n      mstore\n      swap1\n      0x01\n      add\n      swap1\n      0x20\n      add\n      dup1\n      dup4\n      gt\n      tag_50\n      jumpi\n      dup3\n      swap1\n      sub\n      0x1f\n      and\n      dup3\n      add\n      swap2\n    tag_48:\n      pop\n      pop\n      pop\n      pop\n      pop\n      dup2\n      mstore\n      0x20\n      add\n      0x01\n      dup3\n      add\n      sload\n      dup2\n      mstore\n      0x20\n      add\n      0x02\n      dup3\n      add\n      dup1\n      sload\n      tag_51\n      swap1\n      tag_33\n      jump\t// in\n    tag_51:\n      dup1\n      0x1f\n      add\n      0x20\n      dup1\n      swap2\n      div\n      mul\n      0x20\n      add\n      mload(0x40)\n      swap1\n      dup2\n      add\n      0x40\n      mstore\n      dup1\n      swap3\n      swap2\n      swap1\n      dup2\n      dup2\n      mstore\n      0x20\n      add\n      dup3\n      dup1\n      sload\n      tag_52\n      swap1\n      tag_33\n      jump\t// in\n    tag_52:\n      dup1\n      iszero\n      tag_53\n      jumpi\n      dup1\n      0x1f\n      lt\n      tag_54\n      jumpi\n      0x0100\n      dup1\n      dup4\n      sload\n      div\n      mul\n      dup4\n      mstore\n      swap2\n      0x20\n      add\n      swap2\n      jump(tag_53)\n    tag_54:\n      dup3\n      add\n      swap2\n      swap1\n      0x00\n      mstore\n      keccak256(0x00, 0x20)\n      swap1\n    tag_55:\n      dup2\n      sload\n      dup2\n      mstore\n      swap1\n      0x01\n      add\n      swap1\n      0x20\n      add\n      dup1\n      dup4\n      gt\n      tag_55\n      jumpi\n      dup3\n      swap1\n      sub\n      0x1f\n      and\n      dup3\n      add\n      swap2\n    tag_53:\n      pop\n      pop\n      pop\n      pop\n      pop\n      dup2\n      mstore\n      0x20\n      add\n      0x03\n      dup3\n      add\n      sload\n      dup2\n      mstore\n      pop\n      pop\n      swap1\n      pop\n        /* \"smart-contract.sol\":1673:1790  function getProfile(address user_) public view returns (User memory) {... */\n      swap2\n      swap1\n      pop\n      jump\t// out\n        /* \"smart-contract.sol\":732:751  User[] public users */\n    tag_21:\n      0x01\n      dup2\n      dup2\n      sload\n      dup2\n      lt\n      tag_56\n      jumpi\n      0x00\n      dup1\n      revert\n    tag_56:\n      swap1\n      0x00\n      mstore\n      keccak256(0x00, 0x20)\n      swap1\n      0x04\n      mul\n      add\n      0x00\n      swap2\n      pop\n      swap1\n      pop\n      dup1\n      0x00\n      add\n      dup1\n      sload\n      tag_58\n      swap1\n      tag_33\n      jump\t// in\n    tag_58:\n      dup1\n      0x1f\n      add\n      0x20\n      dup1\n      swap2\n      div\n      mul\n      0x20\n      add\n      mload(0x40)\n      swap1\n      dup2\n      add\n      0x40\n      mstore\n      dup1\n      swap3\n      swap2\n      swap1\n      dup2\n      dup2\n      mstore\n      0x20\n      add\n      dup3\n      dup1\n      sload\n      tag_59\n      swap1\n      tag_33\n      jump\t// in\n    tag_59:\n      dup1\n      iszero\n      tag_60\n      jumpi\n      dup1\n      0x1f\n      lt\n      tag_61\n      jumpi\n      0x0100\n      dup1\n      dup4\n      sload\n      div\n      mul\n      dup4\n      mstore\n      swap2\n      0x20\n      add\n      swap2\n      jump(tag_60)\n    tag_61:\n      dup3\n      add\n      swap2\n      swap1\n      0x00\n      mstore\n      keccak256(0x00, 0x20)\n      swap1\n    tag_62:\n      dup2\n      sload\n      dup2\n      mstore\n      swap1\n      0x01\n      add\n      swap1\n      0x20\n      add\n      dup1\n      dup4\n      gt\n      tag_62\n      jumpi\n      dup3\n      swap1\n      sub\n      0x1f\n      and\n      dup3\n      add\n      swap2\n    tag_60:\n      pop\n      pop\n      pop\n      pop\n      pop\n      swap1\n      dup1\n      0x01\n      add\n      sload\n      swap1\n      dup1\n      0x02\n      add\n      dup1\n      sload\n      tag_63\n      swap1\n      tag_33\n      jump\t// in\n    tag_63:\n      dup1\n      0x1f\n      add\n      0x20\n      dup1\n      swap2\n      div\n      mul\n      0x20\n      add\n      mload(0x40)\n      swap1\n      dup2\n      add\n      0x40\n      mstore\n      dup1\n      swap3\n      swap2\n      swap1\n      dup2\n      dup2\n      mstore\n      0x20\n      add\n      dup3\n      dup1\n      sload\n      tag_64\n      swap1\n      tag_33\n      jump\t// in\n    tag_64:\n      dup1\n      iszero\n      tag_65\n      jumpi\n      dup1\n      0x1f\n      lt\n      tag_66\n      jumpi\n      0x0100\n      dup1\n      dup4\n      sload\n      div\n      mul\n      dup4\n      mstore\n      swap2\n      0x20\n      add\n      swap2\n      jump(tag_65)\n    tag_66:\n      dup3\n      add\n      swap2\n      swap1\n      0x00\n      mstore\n      keccak256(0x00, 0x20)\n      swap1\n    tag_67:\n      dup2\n      sload\n      dup2\n      mstore\n      swap1\n      0x01\n      add\n      swap1\n      0x20\n      add\n      dup1\n      dup4\n      gt\n      tag_67\n      jumpi\n      dup3\n      swap1\n      sub\n      0x1f\n      and\n      dup3\n      add\n      swap2\n    tag_65:\n      pop\n      pop\n      pop\n      pop\n      pop\n      swap1\n      dup1\n      0x03\n      add\n      sload\n      swap1\n      pop\n      dup5\n      jump\t// out\n        /* \"smart-contract.sol\":680:725  mapping(address=>User) public userInformation */\n    tag_26:\n      mstore(0x20, 0x00)\n      dup1\n      0x00\n      mstore\n      keccak256(0x00, 0x40)\n      0x00\n      swap2\n      pop\n      swap1\n      pop\n      dup1\n      0x00\n      add\n      dup1\n      sload\n      tag_68\n      swap1\n      tag_33\n      jump\t// in\n    tag_68:\n      dup1\n      0x1f\n      add\n      0x20\n      dup1\n      swap2\n      div\n      mul\n      0x20\n      add\n      mload(0x40)\n      swap1\n      dup2\n      add\n      0x40\n      mstore\n      dup1\n      swap3\n      swap2\n      swap1\n      dup2\n      dup2\n      mstore\n      0x20\n      add\n      dup3\n      dup1\n      sload\n      tag_69\n      swap1\n      tag_33\n      jump\t// in\n    tag_69:\n      dup1\n      iszero\n      tag_70\n      jumpi\n      dup1\n      0x1f\n      lt\n      tag_71\n      jumpi\n      0x0100\n      dup1\n      dup4\n      sload\n      div\n      mul\n      dup4\n      mstore\n      swap2\n      0x20\n      add\n      swap2\n      jump(tag_70)\n    tag_71:\n      dup3\n      add\n      swap2\n      swap1\n      0x00\n      mstore\n      keccak256(0x00, 0x20)\n      swap1\n    tag_72:\n      dup2\n      sload\n      dup2\n      mstore\n      swap1\n      0x01\n      add\n      swap1\n      0x20\n      add\n      dup1\n      dup4\n      gt\n      tag_72\n      jumpi\n      dup3\n      swap1\n      sub\n      0x1f\n      and\n      dup3\n      add\n      swap2\n    tag_70:\n      pop\n      pop\n      pop\n      pop\n      pop\n      swap1\n      dup1\n      0x01\n      add\n      sload\n      swap1\n      dup1\n      0x02\n      add\n      dup1\n      sload\n      tag_73\n      swap1\n      tag_33\n      jump\t// in\n    tag_73:\n      dup1\n      0x1f\n      add\n      0x20\n      dup1\n      swap2\n      div\n      mul\n      0x20\n      add\n      mload(0x40)\n      swap1\n      dup2\n      add\n      0x40\n      mstore\n      dup1\n      swap3\n      swap2\n      swap1\n      dup2\n      dup2\n      mstore\n      0x20\n      add\n      dup3\n      dup1\n      sload\n      tag_74\n      swap1\n      tag_33\n      jump\t// in\n    tag_74:\n      dup1\n      iszero\n      tag_75\n      jumpi\n      dup1\n      0x1f\n      lt\n      tag_76\n      jumpi\n      0x0100\n      dup1\n      dup4\n      sload\n      div\n      mul\n      dup4\n      mstore\n      swap2\n      0x20\n      add\n      swap2\n      jump(tag_75)\n    tag_76:\n      dup3\n      add\n      swap2\n      swap1\n      0x00\n      mstore\n      keccak256(0x00, 0x20)\n      swap1\n    tag_77:\n      dup2\n      sload\n      dup2\n      mstore\n      swap1\n      0x01\n      add\n      swap1\n      0x20\n      add\n      dup1\n      dup4\n      gt\n      tag_77\n      jumpi\n      dup3\n      swap1\n      sub\n      0x1f\n      and\n      dup3\n      add\n      swap2\n    tag_75:\n      pop\n      pop\n      pop\n      pop\n      pop\n      swap1\n      dup1\n      0x03\n      add\n      sload\n      swap1\n      pop\n      dup5\n      jump\t// out\n        /* \"smart-contract.sol\":760:1209  function createRegister(address user_, string memory name_, uint256 age_, string memory email_) public {  ... */\n    tag_30:\n        /* \"smart-contract.sol\":929:930  0 */\n      0x00\n        /* \"smart-contract.sol\":890:905  userInformation */\n      0x00\n        /* \"smart-contract.sol\":890:912  userInformation[user_] */\n      0x00\n        /* \"smart-contract.sol\":906:911  user_ */\n      dup7\n        /* \"smart-contract.sol\":890:912  userInformation[user_] */\n      0xffffffffffffffffffffffffffffffffffffffff\n      and\n      0xffffffffffffffffffffffffffffffffffffffff\n      and\n      dup2\n      mstore\n      0x20\n      add\n      swap1\n      dup2\n      mstore\n      0x20\n      add\n      0x00\n      keccak256\n        /* \"smart-contract.sol\":890:917  userInformation[user_].name */\n      0x00\n      add\n        /* \"smart-contract.sol\":884:925  bytes(userInformation[user_].name).length */\n      dup1\n      sload\n      tag_79\n      swap1\n      tag_33\n      jump\t// in\n    tag_79:\n      swap1\n      pop\n        /* \"smart-contract.sol\":884:930  bytes(userInformation[user_].name).length == 0 */\n      eq\n        /* \"smart-contract.sol\":876:958  require(bytes(userInformation[user_].name).length == 0, \"User already registered\") */\n      tag_80\n      jumpi\n      mload(0x40)\n      0x08c379a000000000000000000000000000000000000000000000000000000000\n      dup2\n      mstore\n      0x04\n      add\n      tag_81\n      swap1\n      tag_82\n      jump\t// in\n    tag_81:\n      mload(0x40)\n      dup1\n      swap2\n      sub\n      swap1\n      revert\n    tag_80:\n        /* \"smart-contract.sol\":979:995  User memory user */\n      0x00\n        /* \"smart-contract.sol\":998:1134  User({... */\n      mload(0x40)\n      dup1\n      0x80\n      add\n      0x40\n      mstore\n      dup1\n        /* \"smart-contract.sol\":1024:1029  name_ */\n      dup6\n        /* \"smart-contract.sol\":998:1134  User({... */\n      dup2\n      mstore\n      0x20\n      add\n        /* \"smart-contract.sol\":1049:1053  age_ */\n      dup5\n        /* \"smart-contract.sol\":998:1134  User({... */\n      dup2\n      mstore\n      0x20\n      add\n        /* \"smart-contract.sol\":1075:1081  email_ */\n      dup4\n        /* \"smart-contract.sol\":998:1134  User({... */\n      dup2\n      mstore\n      0x20\n      add\n        /* \"smart-contract.sol\":1107:1122  block.timestamp */\n      timestamp\n        /* \"smart-contract.sol\":998:1134  User({... */\n      dup2\n      mstore\n      pop\n        /* \"smart-contract.sol\":979:1134  User memory user = User({... */\n      swap1\n      pop\n        /* \"smart-contract.sol\":1170:1174  user */\n      dup1\n        /* \"smart-contract.sol\":1145:1160  userInformation */\n      0x00\n        /* \"smart-contract.sol\":1145:1167  userInformation[user_] */\n      0x00\n        /* \"smart-contract.sol\":1161:1166  user_ */\n      dup8\n        /* \"smart-contract.sol\":1145:1167  userInformation[user_] */\n      0xffffffffffffffffffffffffffffffffffffffff\n      and\n      0xffffffffffffffffffffffffffffffffffffffff\n      and\n      dup2\n      mstore\n      0x20\n      add\n      swap1\n      dup2\n      mstore\n      0x20\n      add\n      0x00\n      keccak256\n        /* \"smart-contract.sol\":1145:1174  userInformation[user_] = user */\n      0x00\n      dup3\n      add\n      mload\n      dup2\n      0x00\n      add\n      swap1\n      dup2\n      tag_83\n      swap2\n      swap1\n      tag_38\n      jump\t// in\n    tag_83:\n      pop\n      0x20\n      dup3\n      add\n      mload\n      dup2\n      0x01\n      add\n      sstore\n      0x40\n      dup3\n      add\n      mload\n      dup2\n      0x02\n      add\n      swap1\n      dup2\n      tag_84\n      swap2\n      swap1\n      tag_38\n      jump\t// in\n    tag_84:\n      pop\n      0x60\n      dup3\n      add\n      mload\n      dup2\n      0x03\n      add\n      sstore\n      swap1\n      pop\n      pop\n        /* \"smart-contract.sol\":1185:1190  users */\n      0x01\n        /* \"smart-contract.sol\":1196:1200  user */\n      dup2\n        /* \"smart-contract.sol\":1185:1201  users.push(user) */\n      swap1\n      dup1\n      0x01\n      dup2\n      sload\n      add\n      dup1\n      dup3\n      sstore\n      dup1\n      swap2\n      pop\n      pop\n      0x01\n      swap1\n      sub\n      swap1\n      0x00\n      mstore\n      keccak256(0x00, 0x20)\n      swap1\n      0x04\n      mul\n      add\n      0x00\n      swap1\n      swap2\n      swap1\n      swap2\n      swap1\n      swap2\n      pop\n      0x00\n      dup3\n      add\n      mload\n      dup2\n      0x00\n      add\n      swap1\n      dup2\n      tag_86\n      swap2\n      swap1\n      tag_38\n      jump\t// in\n    tag_86:\n      pop\n      0x20\n      dup3\n      add\n      mload\n      dup2\n      0x01\n      add\n      sstore\n      0x40\n      dup3\n      add\n      mload\n      dup2\n      0x02\n      add\n      swap1\n      dup2\n      tag_87\n      swap2\n      swap1\n      tag_38\n      jump\t// in\n    tag_87:\n      pop\n      0x60\n      dup3\n      add\n      mload\n      dup2\n      0x03\n      add\n      sstore\n      pop\n      pop\n        /* \"smart-contract.sol\":863:1209  {  ... */\n      pop\n        /* \"smart-contract.sol\":760:1209  function createRegister(address user_, string memory name_, uint256 age_, string memory email_) public {  ... */\n      pop\n      pop\n      pop\n      pop\n      jump\t// out\n    tag_44:\n      mload(0x40)\n      dup1\n      0x80\n      add\n      0x40\n      mstore\n      dup1\n      0x60\n      dup2\n      mstore\n      0x20\n      add\n      0x00\n      dup2\n      mstore\n      0x20\n      add\n      0x60\n      dup2\n      mstore\n      0x20\n      add\n      0x00\n      dup2\n      mstore\n      pop\n      swap1\n      jump\t// out\n        /* \"#utility.yul\":7:82   */\n    tag_88:\n        /* \"#utility.yul\":40:46   */\n      0x00\n        /* \"#utility.yul\":73:75   */\n      0x40\n        /* \"#utility.yul\":67:76   */\n      mload\n        /* \"#utility.yul\":57:76   */\n      swap1\n      pop\n        /* \"#utility.yul\":7:82   */\n      swap1\n      jump\t// out\n        /* \"#utility.yul\":88:205   */\n    tag_89:\n        /* \"#utility.yul\":197:198   */\n      0x00\n        /* \"#utility.yul\":194:195   */\n      0x00\n        /* \"#utility.yul\":187:199   */\n      revert\n        /* \"#utility.yul\":211:328   */\n    tag_90:\n        /* \"#utility.yul\":320:321   */\n      0x00\n        /* \"#utility.yul\":317:318   */\n      0x00\n        /* \"#utility.yul\":310:322   */\n      revert\n        /* \"#utility.yul\":334:460   */\n    tag_91:\n        /* \"#utility.yul\":371:378   */\n      0x00\n        /* \"#utility.yul\":411:453   */\n      0xffffffffffffffffffffffffffffffffffffffff\n        /* \"#utility.yul\":404:409   */\n      dup3\n        /* \"#utility.yul\":400:454   */\n      and\n        /* \"#utility.yul\":389:454   */\n      swap1\n      pop\n        /* \"#utility.yul\":334:460   */\n      swap2\n      swap1\n      pop\n      jump\t// out\n        /* \"#utility.yul\":466:562   */\n    tag_92:\n        /* \"#utility.yul\":503:510   */\n      0x00\n        /* \"#utility.yul\":532:556   */\n      tag_143\n        /* \"#utility.yul\":550:555   */\n      dup3\n        /* \"#utility.yul\":532:556   */\n      tag_91\n      jump\t// in\n    tag_143:\n        /* \"#utility.yul\":521:556   */\n      swap1\n      pop\n        /* \"#utility.yul\":466:562   */\n      swap2\n      swap1\n      pop\n      jump\t// out\n        /* \"#utility.yul\":568:690   */\n    tag_93:\n        /* \"#utility.yul\":641:665   */\n      tag_145\n        /* \"#utility.yul\":659:664   */\n      dup2\n        /* \"#utility.yul\":641:665   */\n      tag_92\n      jump\t// in\n    tag_145:\n        /* \"#utility.yul\":634:639   */\n      dup2\n        /* \"#utility.yul\":631:666   */\n      eq\n        /* \"#utility.yul\":621:684   */\n      tag_146\n      jumpi\n        /* \"#utility.yul\":680:681   */\n      0x00\n        /* \"#utility.yul\":677:678   */\n      0x00\n        /* \"#utility.yul\":670:682   */\n      revert\n        /* \"#utility.yul\":621:684   */\n    tag_146:\n        /* \"#utility.yul\":568:690   */\n      pop\n      jump\t// out\n        /* \"#utility.yul\":696:835   */\n    tag_94:\n        /* \"#utility.yul\":742:747   */\n      0x00\n        /* \"#utility.yul\":780:786   */\n      dup2\n        /* \"#utility.yul\":767:787   */\n      calldataload\n        /* \"#utility.yul\":758:787   */\n      swap1\n      pop\n        /* \"#utility.yul\":796:829   */\n      tag_148\n        /* \"#utility.yul\":823:828   */\n      dup2\n        /* \"#utility.yul\":796:829   */\n      tag_93\n      jump\t// in\n    tag_148:\n        /* \"#utility.yul\":696:835   */\n      swap3\n      swap2\n      pop\n      pop\n      jump\t// out\n        /* \"#utility.yul\":841:958   */\n    tag_95:\n        /* \"#utility.yul\":950:951   */\n      0x00\n        /* \"#utility.yul\":947:948   */\n      0x00\n        /* \"#utility.yul\":940:952   */\n      revert\n        /* \"#utility.yul\":964:1081   */\n    tag_96:\n        /* \"#utility.yul\":1073:1074   */\n      0x00\n        /* \"#utility.yul\":1070:1071   */\n      0x00\n        /* \"#utility.yul\":1063:1075   */\n      revert\n        /* \"#utility.yul\":1087:1189   */\n    tag_97:\n        /* \"#utility.yul\":1128:1134   */\n      0x00\n        /* \"#utility.yul\":1179:1181   */\n      0x1f\n        /* \"#utility.yul\":1175:1182   */\n      not\n        /* \"#utility.yul\":1170:1172   */\n      0x1f\n        /* \"#utility.yul\":1163:1168   */\n      dup4\n        /* \"#utility.yul\":1159:1173   */\n      add\n        /* \"#utility.yul\":1155:1183   */\n      and\n        /* \"#utility.yul\":1145:1183   */\n      swap1\n      pop\n        /* \"#utility.yul\":1087:1189   */\n      swap2\n      swap1\n      pop\n      jump\t// out\n        /* \"#utility.yul\":1195:1375   */\n    tag_98:\n        /* \"#utility.yul\":1243:1320   */\n      0x4e487b7100000000000000000000000000000000000000000000000000000000\n        /* \"#utility.yul\":1240:1241   */\n      0x00\n        /* \"#utility.yul\":1233:1321   */\n      mstore\n        /* \"#utility.yul\":1340:1344   */\n      0x41\n        /* \"#utility.yul\":1337:1338   */\n      0x04\n        /* \"#utility.yul\":1330:1345   */\n      mstore\n        /* \"#utility.yul\":1364:1368   */\n      0x24\n        /* \"#utility.yul\":1361:1362   */\n      0x00\n        /* \"#utility.yul\":1354:1369   */\n      revert\n        /* \"#utility.yul\":1381:1662   */\n    tag_99:\n        /* \"#utility.yul\":1464:1491   */\n      tag_154\n        /* \"#utility.yul\":1486:1490   */\n      dup3\n        /* \"#utility.yul\":1464:1491   */\n      tag_97\n      jump\t// in\n    tag_154:\n        /* \"#utility.yul\":1456:1462   */\n      dup2\n        /* \"#utility.yul\":1452:1492   */\n      add\n        /* \"#utility.yul\":1594:1600   */\n      dup2\n        /* \"#utility.yul\":1582:1592   */\n      dup2\n        /* \"#utility.yul\":1579:1601   */\n      lt\n        /* \"#utility.yul\":1558:1576   */\n      0xffffffffffffffff\n        /* \"#utility.yul\":1546:1556   */\n      dup3\n        /* \"#utility.yul\":1543:1577   */\n      gt\n        /* \"#utility.yul\":1540:1602   */\n      or\n        /* \"#utility.yul\":1537:1625   */\n      iszero\n      tag_155\n      jumpi\n        /* \"#utility.yul\":1605:1623   */\n      tag_156\n      tag_98\n      jump\t// in\n    tag_156:\n        /* \"#utility.yul\":1537:1625   */\n    tag_155:\n        /* \"#utility.yul\":1645:1655   */\n      dup1\n        /* \"#utility.yul\":1641:1643   */\n      0x40\n        /* \"#utility.yul\":1634:1656   */\n      mstore\n        /* \"#utility.yul\":1424:1662   */\n      pop\n        /* \"#utility.yul\":1381:1662   */\n      pop\n      pop\n      jump\t// out\n        /* \"#utility.yul\":1668:1797   */\n    tag_100:\n        /* \"#utility.yul\":1702:1708   */\n      0x00\n        /* \"#utility.yul\":1729:1749   */\n      tag_158\n      tag_88\n      jump\t// in\n    tag_158:\n        /* \"#utility.yul\":1719:1749   */\n      swap1\n      pop\n        /* \"#utility.yul\":1758:1791   */\n      tag_159\n        /* \"#utility.yul\":1786:1790   */\n      dup3\n        /* \"#utility.yul\":1778:1784   */\n      dup3\n        /* \"#utility.yul\":1758:1791   */\n      tag_99\n      jump\t// in\n    tag_159:\n        /* \"#utility.yul\":1668:1797   */\n      swap2\n      swap1\n      pop\n      jump\t// out\n        /* \"#utility.yul\":1803:2111   */\n    tag_101:\n        /* \"#utility.yul\":1865:1869   */\n      0x00\n        /* \"#utility.yul\":1955:1973   */\n      0xffffffffffffffff\n        /* \"#utility.yul\":1947:1953   */\n      dup3\n        /* \"#utility.yul\":1944:1974   */\n      gt\n        /* \"#utility.yul\":1941:1997   */\n      iszero\n      tag_161\n      jumpi\n        /* \"#utility.yul\":1977:1995   */\n      tag_162\n      tag_98\n      jump\t// in\n    tag_162:\n        /* \"#utility.yul\":1941:1997   */\n    tag_161:\n        /* \"#utility.yul\":2015:2044   */\n      tag_163\n        /* \"#utility.yul\":2037:2043   */\n      dup3\n        /* \"#utility.yul\":2015:2044   */\n      tag_97\n      jump\t// in\n    tag_163:\n        /* \"#utility.yul\":2007:2044   */\n      swap1\n      pop\n        /* \"#utility.yul\":2099:2103   */\n      0x20\n        /* \"#utility.yul\":2093:2097   */\n      dup2\n        /* \"#utility.yul\":2089:2104   */\n      add\n        /* \"#utility.yul\":2081:2104   */\n      swap1\n      pop\n        /* \"#utility.yul\":1803:2111   */\n      swap2\n      swap1\n      pop\n      jump\t// out\n        /* \"#utility.yul\":2117:2265   */\n    tag_102:\n        /* \"#utility.yul\":2215:2221   */\n      dup3\n        /* \"#utility.yul\":2210:2213   */\n      dup2\n        /* \"#utility.yul\":2205:2208   */\n      dup4\n        /* \"#utility.yul\":2192:2222   */\n      calldatacopy\n        /* \"#utility.yul\":2256:2257   */\n      0x00\n        /* \"#utility.yul\":2247:2253   */\n      dup4\n        /* \"#utility.yul\":2242:2245   */\n      dup4\n        /* \"#utility.yul\":2238:2254   */\n      add\n        /* \"#utility.yul\":2231:2258   */\n      mstore\n        /* \"#utility.yul\":2117:2265   */\n      pop\n      pop\n      pop\n      jump\t// out\n        /* \"#utility.yul\":2271:2696   */\n    tag_103:\n        /* \"#utility.yul\":2349:2354   */\n      0x00\n        /* \"#utility.yul\":2374:2440   */\n      tag_166\n        /* \"#utility.yul\":2390:2439   */\n      tag_167\n        /* \"#utility.yul\":2432:2438   */\n      dup5\n        /* \"#utility.yul\":2390:2439   */\n      tag_101\n      jump\t// in\n    tag_167:\n        /* \"#utility.yul\":2374:2440   */\n      tag_100\n      jump\t// in\n    tag_166:\n        /* \"#utility.yul\":2365:2440   */\n      swap1\n      pop\n        /* \"#utility.yul\":2463:2469   */\n      dup3\n        /* \"#utility.yul\":2456:2461   */\n      dup2\n        /* \"#utility.yul\":2449:2470   */\n      mstore\n        /* \"#utility.yul\":2501:2505   */\n      0x20\n        /* \"#utility.yul\":2494:2499   */\n      dup2\n        /* \"#utility.yul\":2490:2506   */\n      add\n        /* \"#utility.yul\":2539:2542   */\n      dup5\n        /* \"#utility.yul\":2530:2536   */\n      dup5\n        /* \"#utility.yul\":2525:2528   */\n      dup5\n        /* \"#utility.yul\":2521:2537   */\n      add\n        /* \"#utility.yul\":2518:2543   */\n      gt\n        /* \"#utility.yul\":2515:2627   */\n      iszero\n      tag_168\n      jumpi\n        /* \"#utility.yul\":2546:2625   */\n      tag_169\n      tag_96\n      jump\t// in\n    tag_169:\n        /* \"#utility.yul\":2515:2627   */\n    tag_168:\n        /* \"#utility.yul\":2636:2690   */\n      tag_170\n        /* \"#utility.yul\":2683:2689   */\n      dup5\n        /* \"#utility.yul\":2678:2681   */\n      dup3\n        /* \"#utility.yul\":2673:2676   */\n      dup6\n        /* \"#utility.yul\":2636:2690   */\n      tag_102\n      jump\t// in\n    tag_170:\n        /* \"#utility.yul\":2355:2696   */\n      pop\n        /* \"#utility.yul\":2271:2696   */\n      swap4\n      swap3\n      pop\n      pop\n      pop\n      jump\t// out\n        /* \"#utility.yul\":2716:3056   */\n    tag_104:\n        /* \"#utility.yul\":2772:2777   */\n      0x00\n        /* \"#utility.yul\":2821:2824   */\n      dup3\n        /* \"#utility.yul\":2814:2818   */\n      0x1f\n        /* \"#utility.yul\":2806:2812   */\n      dup4\n        /* \"#utility.yul\":2802:2819   */\n      add\n        /* \"#utility.yul\":2798:2825   */\n      slt\n        /* \"#utility.yul\":2788:2910   */\n      tag_172\n      jumpi\n        /* \"#utility.yul\":2829:2908   */\n      tag_173\n      tag_95\n      jump\t// in\n    tag_173:\n        /* \"#utility.yul\":2788:2910   */\n    tag_172:\n        /* \"#utility.yul\":2946:2952   */\n      dup2\n        /* \"#utility.yul\":2933:2953   */\n      calldataload\n        /* \"#utility.yul\":2971:3050   */\n      tag_174\n        /* \"#utility.yul\":3046:3049   */\n      dup5\n        /* \"#utility.yul\":3038:3044   */\n      dup3\n        /* \"#utility.yul\":3031:3035   */\n      0x20\n        /* \"#utility.yul\":3023:3029   */\n      dup7\n        /* \"#utility.yul\":3019:3036   */\n      add\n        /* \"#utility.yul\":2971:3050   */\n      tag_103\n      jump\t// in\n    tag_174:\n        /* \"#utility.yul\":2962:3050   */\n      swap2\n      pop\n        /* \"#utility.yul\":2778:3056   */\n      pop\n        /* \"#utility.yul\":2716:3056   */\n      swap3\n      swap2\n      pop\n      pop\n      jump\t// out\n        /* \"#utility.yul\":3062:3139   */\n    tag_105:\n        /* \"#utility.yul\":3099:3106   */\n      0x00\n        /* \"#utility.yul\":3128:3133   */\n      dup2\n        /* \"#utility.yul\":3117:3133   */\n      swap1\n      pop\n        /* \"#utility.yul\":3062:3139   */\n      swap2\n      swap1\n      pop\n      jump\t// out\n        /* \"#utility.yul\":3145:3267   */\n    tag_106:\n        /* \"#utility.yul\":3218:3242   */\n      tag_177\n        /* \"#utility.yul\":3236:3241   */\n      dup2\n        /* \"#utility.yul\":3218:3242   */\n      tag_105\n      jump\t// in\n    tag_177:\n        /* \"#utility.yul\":3211:3216   */\n      dup2\n        /* \"#utility.yul\":3208:3243   */\n      eq\n        /* \"#utility.yul\":3198:3261   */\n      tag_178\n      jumpi\n        /* \"#utility.yul\":3257:3258   */\n      0x00\n        /* \"#utility.yul\":3254:3255   */\n      0x00\n        /* \"#utility.yul\":3247:3259   */\n      revert\n        /* \"#utility.yul\":3198:3261   */\n    tag_178:\n        /* \"#utility.yul\":3145:3267   */\n      pop\n      jump\t// out\n        /* \"#utility.yul\":3273:3412   */\n    tag_107:\n        /* \"#utility.yul\":3319:3324   */\n      0x00\n        /* \"#utility.yul\":3357:3363   */\n      dup2\n        /* \"#utility.yul\":3344:3364   */\n      calldataload\n        /* \"#utility.yul\":3335:3364   */\n      swap1\n      pop\n        /* \"#utility.yul\":3373:3406   */\n      tag_180\n        /* \"#utility.yul\":3400:3405   */\n      dup2\n        /* \"#utility.yul\":3373:3406   */\n      tag_106\n      jump\t// in\n    tag_180:\n        /* \"#utility.yul\":3273:3412   */\n      swap3\n      swap2\n      pop\n      pop\n      jump\t// out\n        /* \"#utility.yul\":3418:4543   */\n    tag_10:\n        /* \"#utility.yul\":3524:3530   */\n      0x00\n        /* \"#utility.yul\":3532:3538   */\n      0x00\n        /* \"#utility.yul\":3540:3546   */\n      0x00\n        /* \"#utility.yul\":3548:3554   */\n      0x00\n        /* \"#utility.yul\":3597:3600   */\n      0x80\n        /* \"#utility.yul\":3585:3594   */\n      dup6\n        /* \"#utility.yul\":3576:3583   */\n      dup8\n        /* \"#utility.yul\":3572:3595   */\n      sub\n        /* \"#utility.yul\":3568:3601   */\n      slt\n        /* \"#utility.yul\":3565:3685   */\n      iszero\n      tag_182\n      jumpi\n        /* \"#utility.yul\":3604:3683   */\n      tag_183\n      tag_89\n      jump\t// in\n    tag_183:\n        /* \"#utility.yul\":3565:3685   */\n    tag_182:\n        /* \"#utility.yul\":3724:3725   */\n      0x00\n        /* \"#utility.yul\":3749:3802   */\n      tag_184\n        /* \"#utility.yul\":3794:3801   */\n      dup8\n        /* \"#utility.yul\":3785:3791   */\n      dup3\n        /* \"#utility.yul\":3774:3783   */\n      dup9\n        /* \"#utility.yul\":3770:3792   */\n      add\n        /* \"#utility.yul\":3749:3802   */\n      tag_94\n      jump\t// in\n    tag_184:\n        /* \"#utility.yul\":3739:3802   */\n      swap5\n      pop\n        /* \"#utility.yul\":3695:3812   */\n      pop\n        /* \"#utility.yul\":3879:3881   */\n      0x20\n        /* \"#utility.yul\":3868:3877   */\n      dup6\n        /* \"#utility.yul\":3864:3882   */\n      add\n        /* \"#utility.yul\":3851:3883   */\n      calldataload\n        /* \"#utility.yul\":3910:3928   */\n      0xffffffffffffffff\n        /* \"#utility.yul\":3902:3908   */\n      dup2\n        /* \"#utility.yul\":3899:3929   */\n      gt\n        /* \"#utility.yul\":3896:4013   */\n      iszero\n      tag_185\n      jumpi\n        /* \"#utility.yul\":3932:4011   */\n      tag_186\n      tag_90\n      jump\t// in\n    tag_186:\n        /* \"#utility.yul\":3896:4013   */\n    tag_185:\n        /* \"#utility.yul\":4037:4100   */\n      tag_187\n        /* \"#utility.yul\":4092:4099   */\n      dup8\n        /* \"#utility.yul\":4083:4089   */\n      dup3\n        /* \"#utility.yul\":4072:4081   */\n      dup9\n        /* \"#utility.yul\":4068:4090   */\n      add\n        /* \"#utility.yul\":4037:4100   */\n      tag_104\n      jump\t// in\n    tag_187:\n        /* \"#utility.yul\":4027:4100   */\n      swap4\n      pop\n        /* \"#utility.yul\":3822:4110   */\n      pop\n        /* \"#utility.yul\":4149:4151   */\n      0x40\n        /* \"#utility.yul\":4175:4228   */\n      tag_188\n        /* \"#utility.yul\":4220:4227   */\n      dup8\n        /* \"#utility.yul\":4211:4217   */\n      dup3\n        /* \"#utility.yul\":4200:4209   */\n      dup9\n        /* \"#utility.yul\":4196:4218   */\n      add\n        /* \"#utility.yul\":4175:4228   */\n      tag_107\n      jump\t// in\n    tag_188:\n        /* \"#utility.yul\":4165:4228   */\n      swap3\n      pop\n        /* \"#utility.yul\":4120:4238   */\n      pop\n        /* \"#utility.yul\":4305:4307   */\n      0x60\n        /* \"#utility.yul\":4294:4303   */\n      dup6\n        /* \"#utility.yul\":4290:4308   */\n      add\n        /* \"#utility.yul\":4277:4309   */\n      calldataload\n        /* \"#utility.yul\":4336:4354   */\n      0xffffffffffffffff\n        /* \"#utility.yul\":4328:4334   */\n      dup2\n        /* \"#utility.yul\":4325:4355   */\n      gt\n        /* \"#utility.yul\":4322:4439   */\n      iszero\n      tag_189\n      jumpi\n        /* \"#utility.yul\":4358:4437   */\n      tag_190\n      tag_90\n      jump\t// in\n    tag_190:\n        /* \"#utility.yul\":4322:4439   */\n    tag_189:\n        /* \"#utility.yul\":4463:4526   */\n      tag_191\n        /* \"#utility.yul\":4518:4525   */\n      dup8\n        /* \"#utility.yul\":4509:4515   */\n      dup3\n        /* \"#utility.yul\":4498:4507   */\n      dup9\n        /* \"#utility.yul\":4494:4516   */\n      add\n        /* \"#utility.yul\":4463:4526   */\n      tag_104\n      jump\t// in\n    tag_191:\n        /* \"#utility.yul\":4453:4526   */\n      swap2\n      pop\n        /* \"#utility.yul\":4248:4536   */\n      pop\n        /* \"#utility.yul\":3418:4543   */\n      swap3\n      swap6\n      swap2\n      swap5\n      pop\n      swap3\n      pop\n      jump\t// out\n        /* \"#utility.yul\":4549:4878   */\n    tag_14:\n        /* \"#utility.yul\":4608:4614   */\n      0x00\n        /* \"#utility.yul\":4657:4659   */\n      0x20\n        /* \"#utility.yul\":4645:4654   */\n      dup3\n        /* \"#utility.yul\":4636:4643   */\n      dup5\n        /* \"#utility.yul\":4632:4655   */\n      sub\n        /* \"#utility.yul\":4628:4660   */\n      slt\n        /* \"#utility.yul\":4625:4744   */\n      iszero\n      tag_193\n      jumpi\n        /* \"#utility.yul\":4663:4742   */\n      tag_194\n      tag_89\n      jump\t// in\n    tag_194:\n        /* \"#utility.yul\":4625:4744   */\n    tag_193:\n        /* \"#utility.yul\":4783:4784   */\n      0x00\n        /* \"#utility.yul\":4808:4861   */\n      tag_195\n        /* \"#utility.yul\":4853:4860   */\n      dup5\n        /* \"#utility.yul\":4844:4850   */\n      dup3\n        /* \"#utility.yul\":4833:4842   */\n      dup6\n        /* \"#utility.yul\":4829:4851   */\n      add\n        /* \"#utility.yul\":4808:4861   */\n      tag_94\n      jump\t// in\n    tag_195:\n        /* \"#utility.yul\":4798:4861   */\n      swap2\n      pop\n        /* \"#utility.yul\":4754:4871   */\n      pop\n        /* \"#utility.yul\":4549:4878   */\n      swap3\n      swap2\n      pop\n      pop\n      jump\t// out\n        /* \"#utility.yul\":4884:4983   */\n    tag_108:\n        /* \"#utility.yul\":4936:4942   */\n      0x00\n        /* \"#utility.yul\":4970:4975   */\n      dup2\n        /* \"#utility.yul\":4964:4976   */\n      mload\n        /* \"#utility.yul\":4954:4976   */\n      swap1\n      pop\n        /* \"#utility.yul\":4884:4983   */\n      swap2\n      swap1\n      pop\n      jump\t// out\n        /* \"#utility.yul\":4989:5148   */\n    tag_109:\n        /* \"#utility.yul\":5063:5074   */\n      0x00\n        /* \"#utility.yul\":5097:5103   */\n      dup3\n        /* \"#utility.yul\":5092:5095   */\n      dup3\n        /* \"#utility.yul\":5085:5104   */\n      mstore\n        /* \"#utility.yul\":5137:5141   */\n      0x20\n        /* \"#utility.yul\":5132:5135   */\n      dup3\n        /* \"#utility.yul\":5128:5142   */\n      add\n        /* \"#utility.yul\":5113:5142   */\n      swap1\n      pop\n        /* \"#utility.yul\":4989:5148   */\n      swap3\n      swap2\n      pop\n      pop\n      jump\t// out\n        /* \"#utility.yul\":5154:5293   */\n    tag_110:\n        /* \"#utility.yul\":5243:5249   */\n      dup3\n        /* \"#utility.yul\":5238:5241   */\n      dup2\n        /* \"#utility.yul\":5233:5236   */\n      dup4\n        /* \"#utility.yul\":5227:5250   */\n      mcopy\n        /* \"#utility.yul\":5284:5285   */\n      0x00\n        /* \"#utility.yul\":5275:5281   */\n      dup4\n        /* \"#utility.yul\":5270:5273   */\n      dup4\n        /* \"#utility.yul\":5266:5282   */\n      add\n        /* \"#utility.yul\":5259:5286   */\n      mstore\n        /* \"#utility.yul\":5154:5293   */\n      pop\n      pop\n      pop\n      jump\t// out\n        /* \"#utility.yul\":5299:5656   */\n    tag_111:\n        /* \"#utility.yul\":5377:5380   */\n      0x00\n        /* \"#utility.yul\":5405:5444   */\n      tag_200\n        /* \"#utility.yul\":5438:5443   */\n      dup3\n        /* \"#utility.yul\":5405:5444   */\n      tag_108\n      jump\t// in\n    tag_200:\n        /* \"#utility.yul\":5460:5521   */\n      tag_201\n        /* \"#utility.yul\":5514:5520   */\n      dup2\n        /* \"#utility.yul\":5509:5512   */\n      dup6\n        /* \"#utility.yul\":5460:5521   */\n      tag_109\n      jump\t// in\n    tag_201:\n        /* \"#utility.yul\":5453:5521   */\n      swap4\n      pop\n        /* \"#utility.yul\":5530:5595   */\n      tag_202\n        /* \"#utility.yul\":5588:5594   */\n      dup2\n        /* \"#utility.yul\":5583:5586   */\n      dup6\n        /* \"#utility.yul\":5576:5580   */\n      0x20\n        /* \"#utility.yul\":5569:5574   */\n      dup7\n        /* \"#utility.yul\":5565:5581   */\n      add\n        /* \"#utility.yul\":5530:5595   */\n      tag_110\n      jump\t// in\n    tag_202:\n        /* \"#utility.yul\":5620:5649   */\n      tag_203\n        /* \"#utility.yul\":5642:5648   */\n      dup2\n        /* \"#utility.yul\":5620:5649   */\n      tag_97\n      jump\t// in\n    tag_203:\n        /* \"#utility.yul\":5615:5618   */\n      dup5\n        /* \"#utility.yul\":5611:5650   */\n      add\n        /* \"#utility.yul\":5604:5650   */\n      swap2\n      pop\n        /* \"#utility.yul\":5381:5656   */\n      pop\n        /* \"#utility.yul\":5299:5656   */\n      swap3\n      swap2\n      pop\n      pop\n      jump\t// out\n        /* \"#utility.yul\":5662:5770   */\n    tag_112:\n        /* \"#utility.yul\":5739:5763   */\n      tag_205\n        /* \"#utility.yul\":5757:5762   */\n      dup2\n        /* \"#utility.yul\":5739:5763   */\n      tag_105\n      jump\t// in\n    tag_205:\n        /* \"#utility.yul\":5734:5737   */\n      dup3\n        /* \"#utility.yul\":5727:5764   */\n      mstore\n        /* \"#utility.yul\":5662:5770   */\n      pop\n      pop\n      jump\t// out\n        /* \"#utility.yul\":5842:6862   */\n    tag_113:\n        /* \"#utility.yul\":5951:5954   */\n      0x00\n        /* \"#utility.yul\":5987:5991   */\n      0x80\n        /* \"#utility.yul\":5982:5985   */\n      dup4\n        /* \"#utility.yul\":5978:5992   */\n      add\n        /* \"#utility.yul\":6074:6078   */\n      0x00\n        /* \"#utility.yul\":6067:6072   */\n      dup4\n        /* \"#utility.yul\":6063:6079   */\n      add\n        /* \"#utility.yul\":6057:6080   */\n      mload\n        /* \"#utility.yul\":6127:6130   */\n      dup5\n        /* \"#utility.yul\":6121:6125   */\n      dup3\n        /* \"#utility.yul\":6117:6131   */\n      sub\n        /* \"#utility.yul\":6110:6114   */\n      0x00\n        /* \"#utility.yul\":6105:6108   */\n      dup7\n        /* \"#utility.yul\":6101:6115   */\n      add\n        /* \"#utility.yul\":6094:6132   */\n      mstore\n        /* \"#utility.yul\":6153:6226   */\n      tag_207\n        /* \"#utility.yul\":6221:6225   */\n      dup3\n        /* \"#utility.yul\":6207:6219   */\n      dup3\n        /* \"#utility.yul\":6153:6226   */\n      tag_111\n      jump\t// in\n    tag_207:\n        /* \"#utility.yul\":6145:6226   */\n      swap2\n      pop\n        /* \"#utility.yul\":6002:6237   */\n      pop\n        /* \"#utility.yul\":6318:6322   */\n      0x20\n        /* \"#utility.yul\":6311:6316   */\n      dup4\n        /* \"#utility.yul\":6307:6323   */\n      add\n        /* \"#utility.yul\":6301:6324   */\n      mload\n        /* \"#utility.yul\":6337:6400   */\n      tag_208\n        /* \"#utility.yul\":6394:6398   */\n      0x20\n        /* \"#utility.yul\":6389:6392   */\n      dup7\n        /* \"#utility.yul\":6385:6399   */\n      add\n        /* \"#utility.yul\":6371:6383   */\n      dup3\n        /* \"#utility.yul\":6337:6400   */\n      tag_112\n      jump\t// in\n    tag_208:\n        /* \"#utility.yul\":6247:6410   */\n      pop\n        /* \"#utility.yul\":6493:6497   */\n      0x40\n        /* \"#utility.yul\":6486:6491   */\n      dup4\n        /* \"#utility.yul\":6482:6498   */\n      add\n        /* \"#utility.yul\":6476:6499   */\n      mload\n        /* \"#utility.yul\":6546:6549   */\n      dup5\n        /* \"#utility.yul\":6540:6544   */\n      dup3\n        /* \"#utility.yul\":6536:6550   */\n      sub\n        /* \"#utility.yul\":6529:6533   */\n      0x40\n        /* \"#utility.yul\":6524:6527   */\n      dup7\n        /* \"#utility.yul\":6520:6534   */\n      add\n        /* \"#utility.yul\":6513:6551   */\n      mstore\n        /* \"#utility.yul\":6572:6645   */\n      tag_209\n        /* \"#utility.yul\":6640:6644   */\n      dup3\n        /* \"#utility.yul\":6626:6638   */\n      dup3\n        /* \"#utility.yul\":6572:6645   */\n      tag_111\n      jump\t// in\n    tag_209:\n        /* \"#utility.yul\":6564:6645   */\n      swap2\n      pop\n        /* \"#utility.yul\":6420:6656   */\n      pop\n        /* \"#utility.yul\":6743:6747   */\n      0x60\n        /* \"#utility.yul\":6736:6741   */\n      dup4\n        /* \"#utility.yul\":6732:6748   */\n      add\n        /* \"#utility.yul\":6726:6749   */\n      mload\n        /* \"#utility.yul\":6762:6825   */\n      tag_210\n        /* \"#utility.yul\":6819:6823   */\n      0x60\n        /* \"#utility.yul\":6814:6817   */\n      dup7\n        /* \"#utility.yul\":6810:6824   */\n      add\n        /* \"#utility.yul\":6796:6808   */\n      dup3\n        /* \"#utility.yul\":6762:6825   */\n      tag_112\n      jump\t// in\n    tag_210:\n        /* \"#utility.yul\":6666:6835   */\n      pop\n        /* \"#utility.yul\":6852:6856   */\n      dup1\n        /* \"#utility.yul\":6845:6856   */\n      swap2\n      pop\n        /* \"#utility.yul\":5956:6862   */\n      pop\n        /* \"#utility.yul\":5842:6862   */\n      swap3\n      swap2\n      pop\n      pop\n      jump\t// out\n        /* \"#utility.yul\":6868:7221   */\n    tag_17:\n        /* \"#utility.yul\":7001:7005   */\n      0x00\n        /* \"#utility.yul\":7039:7041   */\n      0x20\n        /* \"#utility.yul\":7028:7037   */\n      dup3\n        /* \"#utility.yul\":7024:7042   */\n      add\n        /* \"#utility.yul\":7016:7042   */\n      swap1\n      pop\n        /* \"#utility.yul\":7088:7097   */\n      dup2\n        /* \"#utility.yul\":7082:7086   */\n      dup2\n        /* \"#utility.yul\":7078:7098   */\n      sub\n        /* \"#utility.yul\":7074:7075   */\n      0x00\n        /* \"#utility.yul\":7063:7072   */\n      dup4\n        /* \"#utility.yul\":7059:7076   */\n      add\n        /* \"#utility.yul\":7052:7099   */\n      mstore\n        /* \"#utility.yul\":7116:7214   */\n      tag_212\n        /* \"#utility.yul\":7209:7213   */\n      dup2\n        /* \"#utility.yul\":7200:7206   */\n      dup5\n        /* \"#utility.yul\":7116:7214   */\n      tag_113\n      jump\t// in\n    tag_212:\n        /* \"#utility.yul\":7108:7214   */\n      swap1\n      pop\n        /* \"#utility.yul\":6868:7221   */\n      swap3\n      swap2\n      pop\n      pop\n      jump\t// out\n        /* \"#utility.yul\":7227:7556   */\n    tag_20:\n        /* \"#utility.yul\":7286:7292   */\n      0x00\n        /* \"#utility.yul\":7335:7337   */\n      0x20\n        /* \"#utility.yul\":7323:7332   */\n      dup3\n        /* \"#utility.yul\":7314:7321   */\n      dup5\n        /* \"#utility.yul\":7310:7333   */\n      sub\n        /* \"#utility.yul\":7306:7338   */\n      slt\n        /* \"#utility.yul\":7303:7422   */\n      iszero\n      tag_214\n      jumpi\n        /* \"#utility.yul\":7341:7420   */\n      tag_215\n      tag_89\n      jump\t// in\n    tag_215:\n        /* \"#utility.yul\":7303:7422   */\n    tag_214:\n        /* \"#utility.yul\":7461:7462   */\n      0x00\n        /* \"#utility.yul\":7486:7539   */\n      tag_216\n        /* \"#utility.yul\":7531:7538   */\n      dup5\n        /* \"#utility.yul\":7522:7528   */\n      dup3\n        /* \"#utility.yul\":7511:7520   */\n      dup6\n        /* \"#utility.yul\":7507:7529   */\n      add\n        /* \"#utility.yul\":7486:7539   */\n      tag_107\n      jump\t// in\n    tag_216:\n        /* \"#utility.yul\":7476:7539   */\n      swap2\n      pop\n        /* \"#utility.yul\":7432:7549   */\n      pop\n        /* \"#utility.yul\":7227:7556   */\n      swap3\n      swap2\n      pop\n      pop\n      jump\t// out\n        /* \"#utility.yul\":7562:7731   */\n    tag_114:\n        /* \"#utility.yul\":7646:7657   */\n      0x00\n        /* \"#utility.yul\":7680:7686   */\n      dup3\n        /* \"#utility.yul\":7675:7678   */\n      dup3\n        /* \"#utility.yul\":7668:7687   */\n      mstore\n        /* \"#utility.yul\":7720:7724   */\n      0x20\n        /* \"#utility.yul\":7715:7718   */\n      dup3\n        /* \"#utility.yul\":7711:7725   */\n      add\n        /* \"#utility.yul\":7696:7725   */\n      swap1\n      pop\n        /* \"#utility.yul\":7562:7731   */\n      swap3\n      swap2\n      pop\n      pop\n      jump\t// out\n        /* \"#utility.yul\":7737:8114   */\n    tag_115:\n        /* \"#utility.yul\":7825:7828   */\n      0x00\n        /* \"#utility.yul\":7853:7892   */\n      tag_219\n        /* \"#utility.yul\":7886:7891   */\n      dup3\n        /* \"#utility.yul\":7853:7892   */\n      tag_108\n      jump\t// in\n    tag_219:\n        /* \"#utility.yul\":7908:7979   */\n      tag_220\n        /* \"#utility.yul\":7972:7978   */\n      dup2\n        /* \"#utility.yul\":7967:7970   */\n      dup6\n        /* \"#utility.yul\":7908:7979   */\n      tag_114\n      jump\t// in\n    tag_220:\n        /* \"#utility.yul\":7901:7979   */\n      swap4\n      pop\n        /* \"#utility.yul\":7988:8053   */\n      tag_221\n        /* \"#utility.yul\":8046:8052   */\n      dup2\n        /* \"#utility.yul\":8041:8044   */\n      dup6\n        /* \"#utility.yul\":8034:8038   */\n      0x20\n        /* \"#utility.yul\":8027:8032   */\n      dup7\n        /* \"#utility.yul\":8023:8039   */\n      add\n        /* \"#utility.yul\":7988:8053   */\n      tag_110\n      jump\t// in\n    tag_221:\n        /* \"#utility.yul\":8078:8107   */\n      tag_222\n        /* \"#utility.yul\":8100:8106   */\n      dup2\n        /* \"#utility.yul\":8078:8107   */\n      tag_97\n      jump\t// in\n    tag_222:\n        /* \"#utility.yul\":8073:8076   */\n      dup5\n        /* \"#utility.yul\":8069:8108   */\n      add\n        /* \"#utility.yul\":8062:8108   */\n      swap2\n      pop\n        /* \"#utility.yul\":7829:8114   */\n      pop\n        /* \"#utility.yul\":7737:8114   */\n      swap3\n      swap2\n      pop\n      pop\n      jump\t// out\n        /* \"#utility.yul\":8120:8238   */\n    tag_116:\n        /* \"#utility.yul\":8207:8231   */\n      tag_224\n        /* \"#utility.yul\":8225:8230   */\n      dup2\n        /* \"#utility.yul\":8207:8231   */\n      tag_105\n      jump\t// in\n    tag_224:\n        /* \"#utility.yul\":8202:8205   */\n      dup3\n        /* \"#utility.yul\":8195:8232   */\n      mstore\n        /* \"#utility.yul\":8120:8238   */\n      pop\n      pop\n      jump\t// out\n        /* \"#utility.yul\":8244:8979   */\n    tag_23:\n        /* \"#utility.yul\":8461:8465   */\n      0x00\n        /* \"#utility.yul\":8499:8502   */\n      0x80\n        /* \"#utility.yul\":8488:8497   */\n      dup3\n        /* \"#utility.yul\":8484:8503   */\n      add\n        /* \"#utility.yul\":8476:8503   */\n      swap1\n      pop\n        /* \"#utility.yul\":8549:8558   */\n      dup2\n        /* \"#utility.yul\":8543:8547   */\n      dup2\n        /* \"#utility.yul\":8539:8559   */\n      sub\n        /* \"#utility.yul\":8535:8536   */\n      0x00\n        /* \"#utility.yul\":8524:8533   */\n      dup4\n        /* \"#utility.yul\":8520:8537   */\n      add\n        /* \"#utility.yul\":8513:8560   */\n      mstore\n        /* \"#utility.yul\":8577:8655   */\n      tag_226\n        /* \"#utility.yul\":8650:8654   */\n      dup2\n        /* \"#utility.yul\":8641:8647   */\n      dup8\n        /* \"#utility.yul\":8577:8655   */\n      tag_115\n      jump\t// in\n    tag_226:\n        /* \"#utility.yul\":8569:8655   */\n      swap1\n      pop\n        /* \"#utility.yul\":8665:8737   */\n      tag_227\n        /* \"#utility.yul\":8733:8735   */\n      0x20\n        /* \"#utility.yul\":8722:8731   */\n      dup4\n        /* \"#utility.yul\":8718:8736   */\n      add\n        /* \"#utility.yul\":8709:8715   */\n      dup7\n        /* \"#utility.yul\":8665:8737   */\n      tag_116\n      jump\t// in\n    tag_227:\n        /* \"#utility.yul\":8784:8793   */\n      dup2\n        /* \"#utility.yul\":8778:8782   */\n      dup2\n        /* \"#utility.yul\":8774:8794   */\n      sub\n        /* \"#utility.yul\":8769:8771   */\n      0x40\n        /* \"#utility.yul\":8758:8767   */\n      dup4\n        /* \"#utility.yul\":8754:8772   */\n      add\n        /* \"#utility.yul\":8747:8795   */\n      mstore\n        /* \"#utility.yul\":8812:8890   */\n      tag_228\n        /* \"#utility.yul\":8885:8889   */\n      dup2\n        /* \"#utility.yul\":8876:8882   */\n      dup6\n        /* \"#utility.yul\":8812:8890   */\n      tag_115\n      jump\t// in\n    tag_228:\n        /* \"#utility.yul\":8804:8890   */\n      swap1\n      pop\n        /* \"#utility.yul\":8900:8972   */\n      tag_229\n        /* \"#utility.yul\":8968:8970   */\n      0x60\n        /* \"#utility.yul\":8957:8966   */\n      dup4\n        /* \"#utility.yul\":8953:8971   */\n      add\n        /* \"#utility.yul\":8944:8950   */\n      dup5\n        /* \"#utility.yul\":8900:8972   */\n      tag_116\n      jump\t// in\n    tag_229:\n        /* \"#utility.yul\":8244:8979   */\n      swap6\n      swap5\n      pop\n      pop\n      pop\n      pop\n      pop\n      jump\t// out\n        /* \"#utility.yul\":8985:9165   */\n    tag_117:\n        /* \"#utility.yul\":9033:9110   */\n      0x4e487b7100000000000000000000000000000000000000000000000000000000\n        /* \"#utility.yul\":9030:9031   */\n      0x00\n        /* \"#utility.yul\":9023:9111   */\n      mstore\n        /* \"#utility.yul\":9130:9134   */\n      0x22\n        /* \"#utility.yul\":9127:9128   */\n      0x04\n        /* \"#utility.yul\":9120:9135   */\n      mstore\n        /* \"#utility.yul\":9154:9158   */\n      0x24\n        /* \"#utility.yul\":9151:9152   */\n      0x00\n        /* \"#utility.yul\":9144:9159   */\n      revert\n        /* \"#utility.yul\":9171:9491   */\n    tag_33:\n        /* \"#utility.yul\":9215:9221   */\n      0x00\n        /* \"#utility.yul\":9252:9253   */\n      0x02\n        /* \"#utility.yul\":9246:9250   */\n      dup3\n        /* \"#utility.yul\":9242:9254   */\n      div\n        /* \"#utility.yul\":9232:9254   */\n      swap1\n      pop\n        /* \"#utility.yul\":9299:9300   */\n      0x01\n        /* \"#utility.yul\":9293:9297   */\n      dup3\n        /* \"#utility.yul\":9289:9301   */\n      and\n        /* \"#utility.yul\":9320:9338   */\n      dup1\n        /* \"#utility.yul\":9310:9391   */\n      tag_232\n      jumpi\n        /* \"#utility.yul\":9376:9380   */\n      0x7f\n        /* \"#utility.yul\":9368:9374   */\n      dup3\n        /* \"#utility.yul\":9364:9381   */\n      and\n        /* \"#utility.yul\":9354:9381   */\n      swap2\n      pop\n        /* \"#utility.yul\":9310:9391   */\n    tag_232:\n        /* \"#utility.yul\":9438:9440   */\n      0x20\n        /* \"#utility.yul\":9430:9436   */\n      dup3\n        /* \"#utility.yul\":9427:9441   */\n      lt\n        /* \"#utility.yul\":9407:9425   */\n      dup2\n        /* \"#utility.yul\":9404:9442   */\n      sub\n        /* \"#utility.yul\":9401:9485   */\n      tag_233\n      jumpi\n        /* \"#utility.yul\":9457:9475   */\n      tag_234\n      tag_117\n      jump\t// in\n    tag_234:\n        /* \"#utility.yul\":9401:9485   */\n    tag_233:\n        /* \"#utility.yul\":9222:9491   */\n      pop\n        /* \"#utility.yul\":9171:9491   */\n      swap2\n      swap1\n      pop\n      jump\t// out\n        /* \"#utility.yul\":9497:9666   */\n    tag_118:\n        /* \"#utility.yul\":9637:9658   */\n      0x55736572206e6f74207265676973746572656400000000000000000000000000\n        /* \"#utility.yul\":9633:9634   */\n      0x00\n        /* \"#utility.yul\":9625:9631   */\n      dup3\n        /* \"#utility.yul\":9621:9635   */\n      add\n        /* \"#utility.yul\":9614:9659   */\n      mstore\n        /* \"#utility.yul\":9497:9666   */\n      pop\n      jump\t// out\n        /* \"#utility.yul\":9672:10038   */\n    tag_119:\n        /* \"#utility.yul\":9814:9817   */\n      0x00\n        /* \"#utility.yul\":9835:9902   */\n      tag_237\n        /* \"#utility.yul\":9899:9901   */\n      0x13\n        /* \"#utility.yul\":9894:9897   */\n      dup4\n        /* \"#utility.yul\":9835:9902   */\n      tag_114\n      jump\t// in\n    tag_237:\n        /* \"#utility.yul\":9828:9902   */\n      swap2\n      pop\n        /* \"#utility.yul\":9911:10004   */\n      tag_238\n        /* \"#utility.yul\":10000:10003   */\n      dup3\n        /* \"#utility.yul\":9911:10004   */\n      tag_118\n      jump\t// in\n    tag_238:\n        /* \"#utility.yul\":10029:10031   */\n      0x20\n        /* \"#utility.yul\":10024:10027   */\n      dup3\n        /* \"#utility.yul\":10020:10032   */\n      add\n        /* \"#utility.yul\":10013:10032   */\n      swap1\n      pop\n        /* \"#utility.yul\":9672:10038   */\n      swap2\n      swap1\n      pop\n      jump\t// out\n        /* \"#utility.yul\":10044:10463   */\n    tag_36:\n        /* \"#utility.yul\":10210:10214   */\n      0x00\n        /* \"#utility.yul\":10248:10250   */\n      0x20\n        /* \"#utility.yul\":10237:10246   */\n      dup3\n        /* \"#utility.yul\":10233:10251   */\n      add\n        /* \"#utility.yul\":10225:10251   */\n      swap1\n      pop\n        /* \"#utility.yul\":10297:10306   */\n      dup2\n        /* \"#utility.yul\":10291:10295   */\n      dup2\n        /* \"#utility.yul\":10287:10307   */\n      sub\n        /* \"#utility.yul\":10283:10284   */\n      0x00\n        /* \"#utility.yul\":10272:10281   */\n      dup4\n        /* \"#utility.yul\":10268:10285   */\n      add\n        /* \"#utility.yul\":10261:10308   */\n      mstore\n        /* \"#utility.yul\":10325:10456   */\n      tag_240\n        /* \"#utility.yul\":10451:10455   */\n      dup2\n        /* \"#utility.yul\":10325:10456   */\n      tag_119\n      jump\t// in\n    tag_240:\n        /* \"#utility.yul\":10317:10456   */\n      swap1\n      pop\n        /* \"#utility.yul\":10044:10463   */\n      swap2\n      swap1\n      pop\n      jump\t// out\n        /* \"#utility.yul\":10469:10610   */\n    tag_120:\n        /* \"#utility.yul\":10518:10522   */\n      0x00\n        /* \"#utility.yul\":10541:10544   */\n      dup2\n        /* \"#utility.yul\":10533:10544   */\n      swap1\n      pop\n        /* \"#utility.yul\":10564:10567   */\n      dup2\n        /* \"#utility.yul\":10561:10562   */\n      0x00\n        /* \"#utility.yul\":10554:10568   */\n      mstore\n        /* \"#utility.yul\":10598:10602   */\n      0x20\n        /* \"#utility.yul\":10595:10596   */\n      0x00\n        /* \"#utility.yul\":10585:10603   */\n      keccak256\n        /* \"#utility.yul\":10577:10603   */\n      swap1\n      pop\n        /* \"#utility.yul\":10469:10610   */\n      swap2\n      swap1\n      pop\n      jump\t// out\n        /* \"#utility.yul\":10616:10709   */\n    tag_121:\n        /* \"#utility.yul\":10653:10659   */\n      0x00\n        /* \"#utility.yul\":10700:10702   */\n      0x20\n        /* \"#utility.yul\":10695:10697   */\n      0x1f\n        /* \"#utility.yul\":10688:10693   */\n      dup4\n        /* \"#utility.yul\":10684:10698   */\n      add\n        /* \"#utility.yul\":10680:10703   */\n      div\n        /* \"#utility.yul\":10670:10703   */\n      swap1\n      pop\n        /* \"#utility.yul\":10616:10709   */\n      swap2\n      swap1\n      pop\n      jump\t// out\n        /* \"#utility.yul\":10715:10822   */\n    tag_122:\n        /* \"#utility.yul\":10759:10767   */\n      0x00\n        /* \"#utility.yul\":10809:10814   */\n      dup3\n        /* \"#utility.yul\":10803:10807   */\n      dup3\n        /* \"#utility.yul\":10799:10815   */\n      shl\n        /* \"#utility.yul\":10778:10815   */\n      swap1\n      pop\n        /* \"#utility.yul\":10715:10822   */\n      swap3\n      swap2\n      pop\n      pop\n      jump\t// out\n        /* \"#utility.yul\":10828:11221   */\n    tag_123:\n        /* \"#utility.yul\":10897:10903   */\n      0x00\n        /* \"#utility.yul\":10947:10948   */\n      0x08\n        /* \"#utility.yul\":10935:10945   */\n      dup4\n        /* \"#utility.yul\":10931:10949   */\n      mul\n        /* \"#utility.yul\":10970:11067   */\n      tag_245\n        /* \"#utility.yul\":11000:11066   */\n      0xffffffffffffffffffffffffffffffffffffffffffffffffffffffffffffffff\n        /* \"#utility.yul\":10989:10998   */\n      dup3\n        /* \"#utility.yul\":10970:11067   */\n      tag_122\n      jump\t// in\n    tag_245:\n        /* \"#utility.yul\":11088:11127   */\n      tag_246\n        /* \"#utility.yul\":11118:11126   */\n      dup7\n        /* \"#utility.yul\":11107:11116   */\n      dup4\n        /* \"#utility.yul\":11088:11127   */\n      tag_122\n      jump\t// in\n    tag_246:\n        /* \"#utility.yul\":11076:11127   */\n      swap6\n      pop\n        /* \"#utility.yul\":11160:11164   */\n      dup1\n        /* \"#utility.yul\":11156:11165   */\n      not\n        /* \"#utility.yul\":11149:11154   */\n      dup5\n        /* \"#utility.yul\":11145:11166   */\n      and\n        /* \"#utility.yul\":11136:11166   */\n      swap4\n      pop\n        /* \"#utility.yul\":11209:11213   */\n      dup1\n        /* \"#utility.yul\":11199:11207   */\n      dup7\n        /* \"#utility.yul\":11195:11214   */\n      and\n        /* \"#utility.yul\":11188:11193   */\n      dup5\n        /* \"#utility.yul\":11185:11215   */\n      or\n        /* \"#utility.yul\":11175:11215   */\n      swap3\n      pop\n        /* \"#utility.yul\":10904:11221   */\n      pop\n      pop\n        /* \"#utility.yul\":10828:11221   */\n      swap4\n      swap3\n      pop\n      pop\n      pop\n      jump\t// out\n        /* \"#utility.yul\":11227:11287   */\n    tag_124:\n        /* \"#utility.yul\":11255:11258   */\n      0x00\n        /* \"#utility.yul\":11276:11281   */\n      dup2\n        /* \"#utility.yul\":11269:11281   */\n      swap1\n      pop\n        /* \"#utility.yul\":11227:11287   */\n      swap2\n      swap1\n      pop\n      jump\t// out\n        /* \"#utility.yul\":11293:11435   */\n    tag_125:\n        /* \"#utility.yul\":11343:11352   */\n      0x00\n        /* \"#utility.yul\":11376:11429   */\n      tag_249\n        /* \"#utility.yul\":11394:11428   */\n      tag_250\n        /* \"#utility.yul\":11403:11427   */\n      tag_251\n        /* \"#utility.yul\":11421:11426   */\n      dup5\n        /* \"#utility.yul\":11403:11427   */\n      tag_105\n      jump\t// in\n    tag_251:\n        /* \"#utility.yul\":11394:11428   */\n      tag_124\n      jump\t// in\n    tag_250:\n        /* \"#utility.yul\":11376:11429   */\n      tag_105\n      jump\t// in\n    tag_249:\n        /* \"#utility.yul\":11363:11429   */\n      swap1\n      pop\n        /* \"#utility.yul\":11293:11435   */\n      swap2\n      swap1\n      pop\n      jump\t// out\n        /* \"#utility.yul\":11441:11516   */\n    tag_126:\n        /* \"#utility.yul\":11484:11487   */\n      0x00\n        /* \"#utility.yul\":11505:11510   */\n      dup2\n        /* \"#utility.yul\":11498:11510   */\n      swap1\n      pop\n        /* \"#utility.yul\":11441:11516   */\n      swap2\n      swap1\n      pop\n      jump\t// out\n        /* \"#utility.yul\":11522:11791   */\n    tag_127:\n        /* \"#utility.yul\":11632:11671   */\n      tag_254\n        /* \"#utility.yul\":11663:11670   */\n      dup4\n        /* \"#utility.yul\":11632:11671   */\n      tag_125\n      jump\t// in\n    tag_254:\n        /* \"#utility.yul\":11693:11784   */\n      tag_255\n        /* \"#utility.yul\":11742:11783   */\n      tag_256\n        /* \"#utility.yul\":11766:11782   */\n      dup3\n        /* \"#utility.yul\":11742:11783   */\n      tag_126\n      jump\t// in\n    tag_256:\n        /* \"#utility.yul\":11734:11740   */\n      dup5\n        /* \"#utility.yul\":11727:11731   */\n      dup5\n        /* \"#utility.yul\":11721:11732   */\n      sload\n        /* \"#utility.yul\":11693:11784   */\n      tag_123\n      jump\t// in\n    tag_255:\n        /* \"#utility.yul\":11687:11691   */\n      dup3\n        /* \"#utility.yul\":11680:11785   */\n      sstore\n        /* \"#utility.yul\":11598:11791   */\n      pop\n        /* \"#utility.yul\":11522:11791   */\n      pop\n      pop\n      pop\n      jump\t// out\n        /* \"#utility.yul\":11797:11870   */\n    tag_128:\n        /* \"#utility.yul\":11842:11845   */\n      0x00\n        /* \"#utility.yul\":11863:11864   */\n      0x00\n        /* \"#utility.yul\":11856:11864   */\n      swap1\n      pop\n        /* \"#utility.yul\":11797:11870   */\n      swap1\n      jump\t// out\n        /* \"#utility.yul\":11876:12065   */\n    tag_129:\n        /* \"#utility.yul\":11953:11985   */\n      tag_259\n      tag_128\n      jump\t// in\n    tag_259:\n        /* \"#utility.yul\":11994:12059   */\n      tag_260\n        /* \"#utility.yul\":12052:12058   */\n      dup2\n        /* \"#utility.yul\":12044:12050   */\n      dup5\n        /* \"#utility.yul\":12038:12042   */\n      dup5\n        /* \"#utility.yul\":11994:12059   */\n      tag_127\n      jump\t// in\n    tag_260:\n        /* \"#utility.yul\":11929:12065   */\n      pop\n        /* \"#utility.yul\":11876:12065   */\n      pop\n      pop\n      jump\t// out\n        /* \"#utility.yul\":12071:12257   */\n    tag_130:\n        /* \"#utility.yul\":12131:12251   */\n    tag_262:\n        /* \"#utility.yul\":12148:12151   */\n      dup2\n        /* \"#utility.yul\":12141:12146   */\n      dup2\n        /* \"#utility.yul\":12138:12152   */\n      lt\n        /* \"#utility.yul\":12131:12251   */\n      iszero\n      tag_264\n      jumpi\n        /* \"#utility.yul\":12202:12241   */\n      tag_265\n        /* \"#utility.yul\":12239:12240   */\n      0x00\n        /* \"#utility.yul\":12232:12237   */\n      dup3\n        /* \"#utility.yul\":12202:12241   */\n      tag_129\n      jump\t// in\n    tag_265:\n        /* \"#utility.yul\":12175:12176   */\n      0x01\n        /* \"#utility.yul\":12168:12173   */\n      dup2\n        /* \"#utility.yul\":12164:12177   */\n      add\n        /* \"#utility.yul\":12155:12177   */\n      swap1\n      pop\n        /* \"#utility.yul\":12131:12251   */\n      jump(tag_262)\n    tag_264:\n        /* \"#utility.yul\":12071:12257   */\n      pop\n      pop\n      jump\t// out\n        /* \"#utility.yul\":12263:12806   */\n    tag_131:\n        /* \"#utility.yul\":12364:12366   */\n      0x1f\n        /* \"#utility.yul\":12359:12362   */\n      dup3\n        /* \"#utility.yul\":12356:12367   */\n      gt\n        /* \"#utility.yul\":12353:12799   */\n      iszero\n      tag_267\n      jumpi\n        /* \"#utility.yul\":12398:12436   */\n      tag_268\n        /* \"#utility.yul\":12430:12435   */\n      dup2\n        /* \"#utility.yul\":12398:12436   */\n      tag_120\n      jump\t// in\n    tag_268:\n        /* \"#utility.yul\":12482:12511   */\n      tag_269\n        /* \"#utility.yul\":12500:12510   */\n      dup5\n        /* \"#utility.yul\":12482:12511   */\n      tag_121\n      jump\t// in\n    tag_269:\n        /* \"#utility.yul\":12472:12480   */\n      dup2\n        /* \"#utility.yul\":12468:12512   */\n      add\n        /* \"#utility.yul\":12665:12667   */\n      0x20\n        /* \"#utility.yul\":12653:12663   */\n      dup6\n        /* \"#utility.yul\":12650:12668   */\n      lt\n        /* \"#utility.yul\":12647:12696   */\n      iszero\n      tag_270\n      jumpi\n        /* \"#utility.yul\":12686:12694   */\n      dup2\n        /* \"#utility.yul\":12671:12694   */\n      swap1\n      pop\n        /* \"#utility.yul\":12647:12696   */\n    tag_270:\n        /* \"#utility.yul\":12709:12789   */\n      tag_271\n        /* \"#utility.yul\":12765:12787   */\n      tag_272\n        /* \"#utility.yul\":12783:12786   */\n      dup6\n        /* \"#utility.yul\":12765:12787   */\n      tag_121\n      jump\t// in\n    tag_272:\n        /* \"#utility.yul\":12755:12763   */\n      dup4\n        /* \"#utility.yul\":12751:12788   */\n      add\n        /* \"#utility.yul\":12738:12749   */\n      dup3\n        /* \"#utility.yul\":12709:12789   */\n      tag_130\n      jump\t// in\n    tag_271:\n        /* \"#utility.yul\":12368:12799   */\n      pop\n      pop\n        /* \"#utility.yul\":12353:12799   */\n    tag_267:\n        /* \"#utility.yul\":12263:12806   */\n      pop\n      pop\n      pop\n      jump\t// out\n        /* \"#utility.yul\":12812:12929   */\n    tag_132:\n        /* \"#utility.yul\":12866:12874   */\n      0x00\n        /* \"#utility.yul\":12916:12921   */\n      dup3\n        /* \"#utility.yul\":12910:12914   */\n      dup3\n        /* \"#utility.yul\":12906:12922   */\n      shr\n        /* \"#utility.yul\":12885:12922   */\n      swap1\n      pop\n        /* \"#utility.yul\":12812:12929   */\n      swap3\n      swap2\n      pop\n      pop\n      jump\t// out\n        /* \"#utility.yul\":12935:13104   */\n    tag_133:\n        /* \"#utility.yul\":12979:12985   */\n      0x00\n        /* \"#utility.yul\":13012:13063   */\n      tag_275\n        /* \"#utility.yul\":13060:13061   */\n      0x00\n        /* \"#utility.yul\":13056:13062   */\n      not\n        /* \"#utility.yul\":13048:13053   */\n      dup5\n        /* \"#utility.yul\":13045:13046   */\n      0x08\n        /* \"#utility.yul\":13041:13054   */\n      mul\n        /* \"#utility.yul\":13012:13063   */\n      tag_132\n      jump\t// in\n    tag_275:\n        /* \"#utility.yul\":13008:13064   */\n      not\n        /* \"#utility.yul\":13093:13097   */\n      dup1\n        /* \"#utility.yul\":13087:13091   */\n      dup4\n        /* \"#utility.yul\":13083:13098   */\n      and\n        /* \"#utility.yul\":13073:13098   */\n      swap2\n      pop\n        /* \"#utility.yul\":12986:13104   */\n      pop\n        /* \"#utility.yul\":12935:13104   */\n      swap3\n      swap2\n      pop\n      pop\n      jump\t// out\n        /* \"#utility.yul\":13109:13404   */\n    tag_134:\n        /* \"#utility.yul\":13185:13189   */\n      0x00\n        /* \"#utility.yul\":13331:13360   */\n      tag_277\n        /* \"#utility.yul\":13356:13359   */\n      dup4\n        /* \"#utility.yul\":13350:13354   */\n      dup4\n        /* \"#utility.yul\":13331:13360   */\n      tag_133\n      jump\t// in\n    tag_277:\n        /* \"#utility.yul\":13323:13360   */\n      swap2\n      pop\n        /* \"#utility.yul\":13393:13396   */\n      dup3\n        /* \"#utility.yul\":13390:13391   */\n      0x02\n        /* \"#utility.yul\":13386:13397   */\n      mul\n        /* \"#utility.yul\":13380:13384   */\n      dup3\n        /* \"#utility.yul\":13377:13398   */\n      or\n        /* \"#utility.yul\":13369:13398   */\n      swap1\n      pop\n        /* \"#utility.yul\":13109:13404   */\n      swap3\n      swap2\n      pop\n      pop\n      jump\t// out\n        /* \"#utility.yul\":13409:14804   */\n    tag_38:\n        /* \"#utility.yul\":13526:13563   */\n      tag_279\n        /* \"#utility.yul\":13559:13562   */\n      dup3\n        /* \"#utility.yul\":13526:13563   */\n      tag_108\n      jump\t// in\n    tag_279:\n        /* \"#utility.yul\":13628:13646   */\n      0xffffffffffffffff\n        /* \"#utility.yul\":13620:13626   */\n      dup2\n        /* \"#utility.yul\":13617:13647   */\n      gt\n        /* \"#utility.yul\":13614:13670   */\n      iszero\n      tag_280\n      jumpi\n        /* \"#utility.yul\":13650:13668   */\n      tag_281\n      tag_98\n      jump\t// in\n    tag_281:\n        /* \"#utility.yul\":13614:13670   */\n    tag_280:\n        /* \"#utility.yul\":13694:13732   */\n      tag_282\n        /* \"#utility.yul\":13726:13730   */\n      dup3\n        /* \"#utility.yul\":13720:13731   */\n      sload\n        /* \"#utility.yul\":13694:13732   */\n      tag_33\n      jump\t// in\n    tag_282:\n        /* \"#utility.yul\":13779:13846   */\n      tag_283\n        /* \"#utility.yul\":13839:13845   */\n      dup3\n        /* \"#utility.yul\":13831:13837   */\n      dup3\n        /* \"#utility.yul\":13825:13829   */\n      dup6\n        /* \"#utility.yul\":13779:13846   */\n      tag_131\n      jump\t// in\n    tag_283:\n        /* \"#utility.yul\":13873:13874   */\n      0x00\n        /* \"#utility.yul\":13897:13901   */\n      0x20\n        /* \"#utility.yul\":13884:13901   */\n      swap1\n      pop\n        /* \"#utility.yul\":13929:13931   */\n      0x1f\n        /* \"#utility.yul\":13921:13927   */\n      dup4\n        /* \"#utility.yul\":13918:13932   */\n      gt\n        /* \"#utility.yul\":13946:13947   */\n      0x01\n        /* \"#utility.yul\":13941:14559   */\n      dup2\n      eq\n      tag_285\n      jumpi\n        /* \"#utility.yul\":14603:14604   */\n      0x00\n        /* \"#utility.yul\":14620:14626   */\n      dup5\n        /* \"#utility.yul\":14617:14694   */\n      iszero\n      tag_286\n      jumpi\n        /* \"#utility.yul\":14669:14678   */\n      dup3\n        /* \"#utility.yul\":14664:14667   */\n      dup8\n        /* \"#utility.yul\":14660:14679   */\n      add\n        /* \"#utility.yul\":14654:14680   */\n      mload\n        /* \"#utility.yul\":14645:14680   */\n      swap1\n      pop\n        /* \"#utility.yul\":14617:14694   */\n    tag_286:\n        /* \"#utility.yul\":14720:14787   */\n      tag_287\n        /* \"#utility.yul\":14780:14786   */\n      dup6\n        /* \"#utility.yul\":14773:14778   */\n      dup3\n        /* \"#utility.yul\":14720:14787   */\n      tag_134\n      jump\t// in\n    tag_287:\n        /* \"#utility.yul\":14714:14718   */\n      dup7\n        /* \"#utility.yul\":14707:14788   */\n      sstore\n        /* \"#utility.yul\":14576:14798   */\n      pop\n        /* \"#utility.yul\":13911:14798   */\n      jump(tag_284)\n        /* \"#utility.yul\":13941:14559   */\n    tag_285:\n        /* \"#utility.yul\":13993:13997   */\n      0x1f\n        /* \"#utility.yul\":13989:13998   */\n      not\n        /* \"#utility.yul\":13981:13987   */\n      dup5\n        /* \"#utility.yul\":13977:13999   */\n      and\n        /* \"#utility.yul\":14027:14064   */\n      tag_288\n        /* \"#utility.yul\":14059:14063   */\n      dup7\n        /* \"#utility.yul\":14027:14064   */\n      tag_120\n      jump\t// in\n    tag_288:\n        /* \"#utility.yul\":14086:14087   */\n      0x00\n        /* \"#utility.yul\":14100:14308   */\n    tag_289:\n        /* \"#utility.yul\":14114:14121   */\n      dup3\n        /* \"#utility.yul\":14111:14112   */\n      dup2\n        /* \"#utility.yul\":14108:14122   */\n      lt\n        /* \"#utility.yul\":14100:14308   */\n      iszero\n      tag_291\n      jumpi\n        /* \"#utility.yul\":14193:14202   */\n      dup5\n        /* \"#utility.yul\":14188:14191   */\n      dup10\n        /* \"#utility.yul\":14184:14203   */\n      add\n        /* \"#utility.yul\":14178:14204   */\n      mload\n        /* \"#utility.yul\":14170:14176   */\n      dup3\n        /* \"#utility.yul\":14163:14205   */\n      sstore\n        /* \"#utility.yul\":14244:14245   */\n      0x01\n        /* \"#utility.yul\":14236:14242   */\n      dup3\n        /* \"#utility.yul\":14232:14246   */\n      add\n        /* \"#utility.yul\":14222:14246   */\n      swap2\n      pop\n        /* \"#utility.yul\":14291:14293   */\n      0x20\n        /* \"#utility.yul\":14280:14289   */\n      dup6\n        /* \"#utility.yul\":14276:14294   */\n      add\n        /* \"#utility.yul\":14263:14294   */\n      swap5\n      pop\n        /* \"#utility.yul\":14137:14141   */\n      0x20\n        /* \"#utility.yul\":14134:14135   */\n      dup2\n        /* \"#utility.yul\":14130:14142   */\n      add\n        /* \"#utility.yul\":14125:14142   */\n      swap1\n      pop\n        /* \"#utility.yul\":14100:14308   */\n      jump(tag_289)\n    tag_291:\n        /* \"#utility.yul\":14336:14342   */\n      dup7\n        /* \"#utility.yul\":14327:14334   */\n      dup4\n        /* \"#utility.yul\":14324:14343   */\n      lt\n        /* \"#utility.yul\":14321:14500   */\n      iszero\n      tag_292\n      jumpi\n        /* \"#utility.yul\":14394:14403   */\n      dup5\n        /* \"#utility.yul\":14389:14392   */\n      dup10\n        /* \"#utility.yul\":14385:14404   */\n      add\n        /* \"#utility.yul\":14379:14405   */\n      mload\n        /* \"#utility.yul\":14437:14485   */\n      tag_293\n        /* \"#utility.yul\":14479:14483   */\n      0x1f\n        /* \"#utility.yul\":14471:14477   */\n      dup10\n        /* \"#utility.yul\":14467:14484   */\n      and\n        /* \"#utility.yul\":14456:14465   */\n      dup3\n        /* \"#utility.yul\":14437:14485   */\n      tag_133\n      jump\t// in\n    tag_293:\n        /* \"#utility.yul\":14429:14435   */\n      dup4\n        /* \"#utility.yul\":14422:14486   */\n      sstore\n        /* \"#utility.yul\":14344:14500   */\n      pop\n        /* \"#utility.yul\":14321:14500   */\n    tag_292:\n        /* \"#utility.yul\":14546:14547   */\n      0x01\n        /* \"#utility.yul\":14542:14543   */\n      0x02\n        /* \"#utility.yul\":14534:14540   */\n      dup9\n        /* \"#utility.yul\":14530:14544   */\n      mul\n        /* \"#utility.yul\":14526:14548   */\n      add\n        /* \"#utility.yul\":14520:14524   */\n      dup9\n        /* \"#utility.yul\":14513:14549   */\n      sstore\n        /* \"#utility.yul\":13948:14559   */\n      pop\n      pop\n      pop\n        /* \"#utility.yul\":13911:14798   */\n    tag_284:\n      pop\n        /* \"#utility.yul\":13501:14804   */\n      pop\n      pop\n      pop\n        /* \"#utility.yul\":13409:14804   */\n      pop\n      pop\n      jump\t// out\n        /* \"#utility.yul\":14810:14983   */\n    tag_135:\n        /* \"#utility.yul\":14950:14975   */\n      0x5573657220616c72656164792072656769737465726564000000000000000000\n        /* \"#utility.yul\":14946:14947   */\n      0x00\n        /* \"#utility.yul\":14938:14944   */\n      dup3\n        /* \"#utility.yul\":14934:14948   */\n      add\n        /* \"#utility.yul\":14927:14976   */\n      mstore\n        /* \"#utility.yul\":14810:14983   */\n      pop\n      jump\t// out\n        /* \"#utility.yul\":14989:15355   */\n    tag_136:\n        /* \"#utility.yul\":15131:15134   */\n      0x00\n        /* \"#utility.yul\":15152:15219   */\n      tag_296\n        /* \"#utility.yul\":15216:15218   */\n      0x17\n        /* \"#utility.yul\":15211:15214   */\n      dup4\n        /* \"#utility.yul\":15152:15219   */\n      tag_114\n      jump\t// in\n    tag_296:\n        /* \"#utility.yul\":15145:15219   */\n      swap2\n      pop\n        /* \"#utility.yul\":15228:15321   */\n      tag_297\n        /* \"#utility.yul\":15317:15320   */\n      dup3\n        /* \"#utility.yul\":15228:15321   */\n      tag_135\n      jump\t// in\n    tag_297:\n        /* \"#utility.yul\":15346:15348   */\n      0x20\n        /* \"#utility.yul\":15341:15344   */\n      dup3\n        /* \"#utility.yul\":15337:15349   */\n      add\n        /* \"#utility.yul\":15330:15349   */\n      swap1\n      pop\n        /* \"#utility.yul\":14989:15355   */\n      swap2\n      swap1\n      pop\n      jump\t// out\n        /* \"#utility.yul\":15361:15780   */\n    tag_82:\n        /* \"#utility.yul\":15527:15531   */\n      0x00\n        /* \"#utility.yul\":15565:15567   */\n      0x20\n        /* \"#utility.yul\":15554:15563   */\n      dup3\n        /* \"#utility.yul\":15550:15568   */\n      add\n        /* \"#utility.yul\":15542:15568   */\n      swap1\n      pop\n        /* \"#utility.yul\":15614:15623   */\n      dup2\n        /* \"#utility.yul\":15608:15612   */\n      dup2\n        /* \"#utility.yul\":15604:15624   */\n      sub\n        /* \"#utility.yul\":15600:15601   */\n      0x00\n        /* \"#utility.yul\":15589:15598   */\n      dup4\n        /* \"#utility.yul\":15585:15602   */\n      add\n        /* \"#utility.yul\":15578:15625   */\n      mstore\n        /* \"#utility.yul\":15642:15773   */\n      tag_299\n        /* \"#utility.yul\":15768:15772   */\n      dup2\n        /* \"#utility.yul\":15642:15773   */\n      tag_136\n      jump\t// in\n    tag_299:\n        /* \"#utility.yul\":15634:15773   */\n      swap1\n      pop\n        /* \"#utility.yul\":15361:15780   */\n      swap2\n      swap1\n      pop\n      jump\t// out\n\n    auxdata: 0xa2646970667358221220d926696c7d69368964bc3e0e61c5c8850d133f0cd94bbc9b67494626bc2d5c5464736f6c634300081e0033\n}\n",
				"bytecode": {
					"linkReferences": {},
					"object": "6080604052348015600e575f5ffd5b506110cc8061001c5f395ff3fe608060405234801561000f575f5ffd5b5060043610610055575f3560e01c8063088d4978146100595780630f53a47014610075578063365b98b2146100a55780637d2e227d146100d8578063d600e1a11461010b575b5f5ffd5b610073600480360381019061006e9190610a6a565b610127565b005b61008f600480360381019061008a9190610b06565b6102c5565b60405161009c9190610c07565b60405180910390f35b6100bf60048036038101906100ba9190610c27565b61044e565b6040516100cf9493929190610ca9565b60405180910390f35b6100f260048036038101906100ed9190610b06565b610595565b6040516101029493929190610ca9565b60405180910390f35b61012560048036038101906101209190610a6a565b6106cc565b005b5f5f5f8673ffffffffffffffffffffffffffffffffffffffff1673ffffffffffffffffffffffffffffffffffffffff1681526020019081526020015f205f01805461017190610d27565b9050036101b3576040517f08c379a00000000000000000000000000000000000000000000000000000000081526004016101aa90610da1565b60405180910390fd5b5f6040518060800160405280858152602001848152602001838152602001428152509050805f5f8773ffffffffffffffffffffffffffffffffffffffff1673ffffffffffffffffffffffffffffffffffffffff1681526020019081526020015f205f820151815f0190816102279190610f5f565b506020820151816001015560408201518160020190816102479190610f5f565b5060608201518160030155905050600181908060018154018082558091505060019003905f5260205f2090600402015f909190919091505f820151815f0190816102919190610f5f565b506020820151816001015560408201518160020190816102b19190610f5f565b506060820151816003015550505050505050565b6102cd61086a565b5f5f8373ffffffffffffffffffffffffffffffffffffffff1673ffffffffffffffffffffffffffffffffffffffff1681526020019081526020015f206040518060800160405290815f8201805461032390610d27565b80601f016020809104026020016040519081016040528092919081815260200182805461034f90610d27565b801561039a5780601f106103715761010080835404028352916020019161039a565b820191905f5260205f20905b81548152906001019060200180831161037d57829003601f168201915b50505050508152602001600182015481526020016002820180546103bd90610d27565b80601f01602080910402602001604051908101604052809291908181526020018280546103e990610d27565b80156104345780601f1061040b57610100808354040283529160200191610434565b820191905f5260205f20905b81548152906001019060200180831161041757829003601f168201915b505050505081526020016003820154815250509050919050565b6001818154811061045d575f80fd5b905f5260205f2090600402015f91509050805f01805461047c90610d27565b80601f01602080910402602001604051908101604052809291908181526020018280546104a890610d27565b80156104f35780601f106104ca576101008083540402835291602001916104f3565b820191905f5260205f20905b8154815290600101906020018083116104d657829003601f168201915b50505050509080600101549080600201805461050e90610d27565b80601f016020809104026020016040519081016040528092919081815260200182805461053a90610d27565b80156105855780601f1061055c57610100808354040283529160200191610585565b820191905f5260205f20905b81548152906001019060200180831161056857829003601f168201915b5050505050908060030154905084565b5f602052805f5260405f205f91509050805f0180546105b390610d27565b80601f01602080910402602001604051908101604052809291908181526020018280546105df90610d27565b801561062a5780601f106106015761010080835404028352916020019161062a565b820191905f5260205f20905b81548152906001019060200180831161060d57829003601f168201915b50505050509080600101549080600201805461064590610d27565b80601f016020809104026020016040519081016040528092919081815260200182805461067190610d27565b80156106bc5780601f10610693576101008083540402835291602001916106bc565b820191905f5260205f20905b81548152906001019060200180831161069f57829003601f168201915b5050505050908060030154905084565b5f5f5f8673ffffffffffffffffffffffffffffffffffffffff1673ffffffffffffffffffffffffffffffffffffffff1681526020019081526020015f205f01805461071690610d27565b905014610758576040517f08c379a000000000000000000000000000000000000000000000000000000000815260040161074f90611078565b60405180910390fd5b5f6040518060800160405280858152602001848152602001838152602001428152509050805f5f8773ffffffffffffffffffffffffffffffffffffffff1673ffffffffffffffffffffffffffffffffffffffff1681526020019081526020015f205f820151815f0190816107cc9190610f5f565b506020820151816001015560408201518160020190816107ec9190610f5f565b5060608201518160030155905050600181908060018154018082558091505060019003905f5260205f2090600402015f909190919091505f820151815f0190816108369190610f5f565b506020820151816001015560408201518160020190816108569190610f5f565b506060820151816003015550505050505050565b6040518060800160405280606081526020015f8152602001606081526020015f81525090565b5f604051905090565b5f5ffd5b5f5ffd5b5f73ffffffffffffffffffffffffffffffffffffffff82169050919050565b5f6108ca826108a1565b9050919050565b6108da816108c0565b81146108e4575f5ffd5b50565b5f813590506108f5816108d1565b92915050565b5f5ffd5b5f5ffd5b5f601f19601f8301169050919050565b7f4e487b71000000000000000000000000000000000000000000000000000000005f52604160045260245ffd5b61094982610903565b810181811067ffffffffffffffff8211171561096857610967610913565b5b80604052505050565b5f61097a610890565b90506109868282610940565b919050565b5f67ffffffffffffffff8211156109a5576109a4610913565b5b6109ae82610903565b9050602081019050919050565b828183375f83830152505050565b5f6109db6109d68461098b565b610971565b9050828152602081018484840111156109f7576109f66108ff565b5b610a028482856109bb565b509392505050565b5f82601f830112610a1e57610a1d6108fb565b5b8135610a2e8482602086016109c9565b91505092915050565b5f819050919050565b610a4981610a37565b8114610a53575f5ffd5b50565b5f81359050610a6481610a40565b92915050565b5f5f5f5f60808587031215610a8257610a81610899565b5b5f610a8f878288016108e7565b945050602085013567ffffffffffffffff811115610ab057610aaf61089d565b5b610abc87828801610a0a565b9350506040610acd87828801610a56565b925050606085013567ffffffffffffffff811115610aee57610aed61089d565b5b610afa87828801610a0a565b91505092959194509250565b5f60208284031215610b1b57610b1a610899565b5b5f610b28848285016108e7565b91505092915050565b5f81519050919050565b5f82825260208201905092915050565b8281835e5f83830152505050565b5f610b6382610b31565b610b6d8185610b3b565b9350610b7d818560208601610b4b565b610b8681610903565b840191505092915050565b610b9a81610a37565b82525050565b5f608083015f8301518482035f860152610bba8282610b59565b9150506020830151610bcf6020860182610b91565b5060408301518482036040860152610be78282610b59565b9150506060830151610bfc6060860182610b91565b508091505092915050565b5f6020820190508181035f830152610c1f8184610ba0565b905092915050565b5f60208284031215610c3c57610c3b610899565b5b5f610c4984828501610a56565b91505092915050565b5f82825260208201905092915050565b5f610c6c82610b31565b610c768185610c52565b9350610c86818560208601610b4b565b610c8f81610903565b840191505092915050565b610ca381610a37565b82525050565b5f6080820190508181035f830152610cc18187610c62565b9050610cd06020830186610c9a565b8181036040830152610ce28185610c62565b9050610cf16060830184610c9a565b95945050505050565b7f4e487b71000000000000000000000000000000000000000000000000000000005f52602260045260245ffd5b5f6002820490506001821680610d3e57607f821691505b602082108103610d5157610d50610cfa565b5b50919050565b7f55736572206e6f742072656769737465726564000000000000000000000000005f82015250565b5f610d8b601383610c52565b9150610d9682610d57565b602082019050919050565b5f6020820190508181035f830152610db881610d7f565b9050919050565b5f819050815f5260205f209050919050565b5f6020601f8301049050919050565b5f82821b905092915050565b5f60088302610e1b7fffffffffffffffffffffffffffffffffffffffffffffffffffffffffffffffff82610de0565b610e258683610de0565b95508019841693508086168417925050509392505050565b5f819050919050565b5f610e60610e5b610e5684610a37565b610e3d565b610a37565b9050919050565b5f819050919050565b610e7983610e46565b610e8d610e8582610e67565b848454610dec565b825550505050565b5f5f905090565b610ea4610e95565b610eaf818484610e70565b505050565b5b81811015610ed257610ec75f82610e9c565b600181019050610eb5565b5050565b601f821115610f1757610ee881610dbf565b610ef184610dd1565b81016020851015610f00578190505b610f14610f0c85610dd1565b830182610eb4565b50505b505050565b5f82821c905092915050565b5f610f375f1984600802610f1c565b1980831691505092915050565b5f610f4f8383610f28565b9150826002028217905092915050565b610f6882610b31565b67ffffffffffffffff811115610f8157610f80610913565b5b610f8b8254610d27565b610f96828285610ed6565b5f60209050601f831160018114610fc7575f8415610fb5578287015190505b610fbf8582610f44565b865550611026565b601f198416610fd586610dbf565b5f5b82811015610ffc57848901518255600182019150602085019450602081019050610fd7565b868310156110195784890151611015601f891682610f28565b8355505b6001600288020188555050505b505050505050565b7f5573657220616c726561647920726567697374657265640000000000000000005f82015250565b5f611062601783610c52565b915061106d8261102e565b602082019050919050565b5f6020820190508181035f83015261108f81611056565b905091905056fea2646970667358221220d926696c7d69368964bc3e0e61c5c8850d133f0cd94bbc9b67494626bc2d5c5464736f6c634300081e0033",
					"opcodes": "PUSH1 0x80 PUSH1 0x40 MSTORE CALLVALUE DUP1 ISZERO PUSH1 0xE JUMPI PUSH0 PUSH0 REVERT JUMPDEST POP PUSH2 0x10CC DUP1 PUSH2 0x1C PUSH0 CODECOPY PUSH0 RETURN INVALID PUSH1 0x80 PUSH1 0x40 MSTORE CALLVALUE DUP1 ISZERO PUSH2 0xF JUMPI PUSH0 PUSH0 REVERT JUMPDEST POP PUSH1 0x4 CALLDATASIZE LT PUSH2 0x55 JUMPI PUSH0 CALLDATALOAD PUSH1 0xE0 SHR DUP1 PUSH4 0x88D4978 EQ PUSH2 0x59 JUMPI DUP1 PUSH4 0xF53A470 EQ PUSH2 0x75 JUMPI DUP1 PUSH4 0x365B98B2 EQ PUSH2 0xA5 JUMPI DUP1 PUSH4 0x7D2E227D EQ PUSH2 0xD8 JUMPI DUP1 PUSH4 0xD600E1A1 EQ PUSH2 0x10B JUMPI JUMPDEST PUSH0 PUSH0 REVERT JUMPDEST PUSH2 0x73 PUSH1 0x4 DUP1 CALLDATASIZE SUB DUP2 ADD SWAP1 PUSH2 0x6E SWAP2 SWAP1 PUSH2 0xA6A JUMP JUMPDEST PUSH2 0x127 JUMP JUMPDEST STOP JUMPDEST PUSH2 0x8F PUSH1 0x4 DUP1 CALLDATASIZE SUB DUP2 ADD SWAP1 PUSH2 0x8A SWAP2 SWAP1 PUSH2 0xB06 JUMP JUMPDEST PUSH2 0x2C5 JUMP JUMPDEST PUSH1 0x40 MLOAD PUSH2 0x9C SWAP2 SWAP1 PUSH2 0xC07 JUMP JUMPDEST PUSH1 0x40 MLOAD DUP1 SWAP2 SUB SWAP1 RETURN JUMPDEST PUSH2 0xBF PUSH1 0x4 DUP1 CALLDATASIZE SUB DUP2 ADD SWAP1 PUSH2 0xBA SWAP2 SWAP1 PUSH2 0xC27 JUMP JUMPDEST PUSH2 0x44E JUMP JUMPDEST PUSH1 0x40 MLOAD PUSH2 0xCF SWAP5 SWAP4 SWAP3 SWAP2 SWAP1 PUSH2 0xCA9 JUMP JUMPDEST PUSH1 0x40 MLOAD DUP1 SWAP2 SUB SWAP1 RETURN JUMPDEST PUSH2 0xF2 PUSH1 0x4 DUP1 CALLDATASIZE SUB DUP2 ADD SWAP1 PUSH2 0xED SWAP2 SWAP1 PUSH2 0xB06 JUMP JUMPDEST PUSH2 0x595 JUMP JUMPDEST PUSH1 0x40 MLOAD PUSH2 0x102 SWAP5 SWAP4 SWAP3 SWAP2 SWAP1 PUSH2 0xCA9 JUMP JUMPDEST PUSH1 0x40 MLOAD DUP1 SWAP2 SUB SWAP1 RETURN JUMPDEST PUSH2 0x125 PUSH1 0x4 DUP1 CALLDATASIZE SUB DUP2 ADD SWAP1 PUSH2 0x120 SWAP2 SWAP1 PUSH2 0xA6A JUMP JUMPDEST PUSH2 0x6CC JUMP JUMPDEST STOP JUMPDEST PUSH0 PUSH0 PUSH0 DUP7 PUSH20 0xFFFFFFFFFFFFFFFFFFFFFFFFFFFFFFFFFFFFFFFF AND PUSH20 0xFFFFFFFFFFFFFFFFFFFFFFFFFFFFFFFFFFFFFFFF AND DUP2 MSTORE PUSH1 0x20 ADD SWAP1 DUP2 MSTORE PUSH1 0x20 ADD PUSH0 KECCAK256 PUSH0 ADD DUP1 SLOAD PUSH2 0x171 SWAP1 PUSH2 0xD27 JUMP JUMPDEST SWAP1 POP SUB PUSH2 0x1B3 JUMPI PUSH1 0x40 MLOAD PUSH32 0x8C379A000000000000000000000000000000000000000000000000000000000 DUP2 MSTORE PUSH1 0x4 ADD PUSH2 0x1AA SWAP1 PUSH2 0xDA1 JUMP JUMPDEST PUSH1 0x40 MLOAD DUP1 SWAP2 SUB SWAP1 REVERT JUMPDEST PUSH0 PUSH1 0x40 MLOAD DUP1 PUSH1 0x80 ADD PUSH1 0x40 MSTORE DUP1 DUP6 DUP2 MSTORE PUSH1 0x20 ADD DUP5 DUP2 MSTORE PUSH1 0x20 ADD DUP4 DUP2 MSTORE PUSH1 0x20 ADD TIMESTAMP DUP2 MSTORE POP SWAP1 POP DUP1 PUSH0 PUSH0 DUP8 PUSH20 0xFFFFFFFFFFFFFFFFFFFFFFFFFFFFFFFFFFFFFFFF AND PUSH20 0xFFFFFFFFFFFFFFFFFFFFFFFFFFFFFFFFFFFFFFFF AND DUP2 MSTORE PUSH1 0x20 ADD SWAP1 DUP2 MSTORE PUSH1 0x20 ADD PUSH0 KECCAK256 PUSH0 DUP3 ADD MLOAD DUP2 PUSH0 ADD SWAP1 DUP2 PUSH2 0x227 SWAP2 SWAP1 PUSH2 0xF5F JUMP JUMPDEST POP PUSH1 0x20 DUP3 ADD MLOAD DUP2 PUSH1 0x1 ADD SSTORE PUSH1 0x40 DUP3 ADD MLOAD DUP2 PUSH1 0x2 ADD SWAP1 DUP2 PUSH2 0x247 SWAP2 SWAP1 PUSH2 0xF5F JUMP JUMPDEST POP PUSH1 0x60 DUP3 ADD MLOAD DUP2 PUSH1 0x3 ADD SSTORE SWAP1 POP POP PUSH1 0x1 DUP2 SWAP1 DUP1 PUSH1 0x1 DUP2 SLOAD ADD DUP1 DUP3 SSTORE DUP1 SWAP2 POP POP PUSH1 0x1 SWAP1 SUB SWAP1 PUSH0 MSTORE PUSH1 0x20 PUSH0 KECCAK256 SWAP1 PUSH1 0x4 MUL ADD PUSH0 SWAP1 SWAP2 SWAP1 SWAP2 SWAP1 SWAP2 POP PUSH0 DUP3 ADD MLOAD DUP2 PUSH0 ADD SWAP1 DUP2 PUSH2 0x291 SWAP2 SWAP1 PUSH2 0xF5F JUMP JUMPDEST POP PUSH1 0x20 DUP3 ADD MLOAD DUP2 PUSH1 0x1 ADD SSTORE PUSH1 0x40 DUP3 ADD MLOAD DUP2 PUSH1 0x2 ADD SWAP1 DUP2 PUSH2 0x2B1 SWAP2 SWAP1 PUSH2 0xF5F JUMP JUMPDEST POP PUSH1 0x60 DUP3 ADD MLOAD DUP2 PUSH1 0x3 ADD SSTORE POP POP POP POP POP POP POP JUMP JUMPDEST PUSH2 0x2CD PUSH2 0x86A JUMP JUMPDEST PUSH0 PUSH0 DUP4 PUSH20 0xFFFFFFFFFFFFFFFFFFFFFFFFFFFFFFFFFFFFFFFF AND PUSH20 0xFFFFFFFFFFFFFFFFFFFFFFFFFFFFFFFFFFFFFFFF AND DUP2 MSTORE PUSH1 0x20 ADD SWAP1 DUP2 MSTORE PUSH1 0x20 ADD PUSH0 KECCAK256 PUSH1 0x40 MLOAD DUP1 PUSH1 0x80 ADD PUSH1 0x40 MSTORE SWAP1 DUP2 PUSH0 DUP3 ADD DUP1 SLOAD PUSH2 0x323 SWAP1 PUSH2 0xD27 JUMP JUMPDEST DUP1 PUSH1 0x1F ADD PUSH1 0x20 DUP1 SWAP2 DIV MUL PUSH1 0x20 ADD PUSH1 0x40 MLOAD SWAP1 DUP2 ADD PUSH1 0x40 MSTORE DUP1 SWAP3 SWAP2 SWAP1 DUP2 DUP2 MSTORE PUSH1 0x20 ADD DUP3 DUP1 SLOAD PUSH2 0x34F SWAP1 PUSH2 0xD27 JUMP JUMPDEST DUP1 ISZERO PUSH2 0x39A JUMPI DUP1 PUSH1 0x1F LT PUSH2 0x371 JUMPI PUSH2 0x100 DUP1 DUP4 SLOAD DIV MUL DUP4 MSTORE SWAP2 PUSH1 0x20 ADD SWAP2 PUSH2 0x39A JUMP JUMPDEST DUP3 ADD SWAP2 SWAP1 PUSH0 MSTORE PUSH1 0x20 PUSH0 KECCAK256 SWAP1 JUMPDEST DUP2 SLOAD DUP2 MSTORE SWAP1 PUSH1 0x1 ADD SWAP1 PUSH1 0x20 ADD DUP1 DUP4 GT PUSH2 0x37D JUMPI DUP3 SWAP1 SUB PUSH1 0x1F AND DUP3 ADD SWAP2 JUMPDEST POP POP POP POP POP DUP2 MSTORE PUSH1 0x20 ADD PUSH1 0x1 DUP3 ADD SLOAD DUP2 MSTORE PUSH1 0x20 ADD PUSH1 0x2 DUP3 ADD DUP1 SLOAD PUSH2 0x3BD SWAP1 PUSH2 0xD27 JUMP JUMPDEST DUP1 PUSH1 0x1F ADD PUSH1 0x20 DUP1 SWAP2 DIV MUL PUSH1 0x20 ADD PUSH1 0x40 MLOAD SWAP1 DUP2 ADD PUSH1 0x40 MSTORE DUP1 SWAP3 SWAP2 SWAP1 DUP2 DUP2 MSTORE PUSH1 0x20 ADD DUP3 DUP1 SLOAD PUSH2 0x3E9 SWAP1 PUSH2 0xD27 JUMP JUMPDEST DUP1 ISZERO PUSH2 0x434 JUMPI DUP1 PUSH1 0x1F LT PUSH2 0x40B JUMPI PUSH2 0x100 DUP1 DUP4 SLOAD DIV MUL DUP4 MSTORE SWAP2 PUSH1 0x20 ADD SWAP2 PUSH2 0x434 JUMP JUMPDEST DUP3 ADD SWAP2 SWAP1 PUSH0 MSTORE PUSH1 0x20 PUSH0 KECCAK256 SWAP1 JUMPDEST DUP2 SLOAD DUP2 MSTORE SWAP1 PUSH1 0x1 ADD SWAP1 PUSH1 0x20 ADD DUP1 DUP4 GT PUSH2 0x417 JUMPI DUP3 SWAP1 SUB PUSH1 0x1F AND DUP3 ADD SWAP2 JUMPDEST POP POP POP POP POP DUP2 MSTORE PUSH1 0x20 ADD PUSH1 0x3 DUP3 ADD SLOAD DUP2 MSTORE POP POP SWAP1 POP SWAP2 SWAP1 POP JUMP JUMPDEST PUSH1 0x1 DUP2 DUP2 SLOAD DUP2 LT PUSH2 0x45D JUMPI PUSH0 DUP1 REVERT JUMPDEST SWAP1 PUSH0 MSTORE PUSH1 0x20 PUSH0 KECCAK256 SWAP1 PUSH1 0x4 MUL ADD PUSH0 SWAP2 POP SWAP1 POP DUP1 PUSH0 ADD DUP1 SLOAD PUSH2 0x47C SWAP1 PUSH2 0xD27 JUMP JUMPDEST DUP1 PUSH1 0x1F ADD PUSH1 0x20 DUP1 SWAP2 DIV MUL PUSH1 0x20 ADD PUSH1 0x40 MLOAD SWAP1 DUP2 ADD PUSH1 0x40 MSTORE DUP1 SWAP3 SWAP2 SWAP1 DUP2 DUP2 MSTORE PUSH1 0x20 ADD DUP3 DUP1 SLOAD PUSH2 0x4A8 SWAP1 PUSH2 0xD27 JUMP JUMPDEST DUP1 ISZERO PUSH2 0x4F3 JUMPI DUP1 PUSH1 0x1F LT PUSH2 0x4CA JUMPI PUSH2 0x100 DUP1 DUP4 SLOAD DIV MUL DUP4 MSTORE SWAP2 PUSH1 0x20 ADD SWAP2 PUSH2 0x4F3 JUMP JUMPDEST DUP3 ADD SWAP2 SWAP1 PUSH0 MSTORE PUSH1 0x20 PUSH0 KECCAK256 SWAP1 JUMPDEST DUP2 SLOAD DUP2 MSTORE SWAP1 PUSH1 0x1 ADD SWAP1 PUSH1 0x20 ADD DUP1 DUP4 GT PUSH2 0x4D6 JUMPI DUP3 SWAP1 SUB PUSH1 0x1F AND DUP3 ADD SWAP2 JUMPDEST POP POP POP POP POP SWAP1 DUP1 PUSH1 0x1 ADD SLOAD SWAP1 DUP1 PUSH1 0x2 ADD DUP1 SLOAD PUSH2 0x50E SWAP1 PUSH2 0xD27 JUMP JUMPDEST DUP1 PUSH1 0x1F ADD PUSH1 0x20 DUP1 SWAP2 DIV MUL PUSH1 0x20 ADD PUSH1 0x40 MLOAD SWAP1 DUP2 ADD PUSH1 0x40 MSTORE DUP1 SWAP3 SWAP2 SWAP1 DUP2 DUP2 MSTORE PUSH1 0x20 ADD DUP3 DUP1 SLOAD PUSH2 0x53A SWAP1 PUSH2 0xD27 JUMP JUMPDEST DUP1 ISZERO PUSH2 0x585 JUMPI DUP1 PUSH1 0x1F LT PUSH2 0x55C JUMPI PUSH2 0x100 DUP1 DUP4 SLOAD DIV MUL DUP4 MSTORE SWAP2 PUSH1 0x20 ADD SWAP2 PUSH2 0x585 JUMP JUMPDEST DUP3 ADD SWAP2 SWAP1 PUSH0 MSTORE PUSH1 0x20 PUSH0 KECCAK256 SWAP1 JUMPDEST DUP2 SLOAD DUP2 MSTORE SWAP1 PUSH1 0x1 ADD SWAP1 PUSH1 0x20 ADD DUP1 DUP4 GT PUSH2 0x568 JUMPI DUP3 SWAP1 SUB PUSH1 0x1F AND DUP3 ADD SWAP2 JUMPDEST POP POP POP POP POP SWAP1 DUP1 PUSH1 0x3 ADD SLOAD SWAP1 POP DUP5 JUMP JUMPDEST PUSH0 PUSH1 0x20 MSTORE DUP1 PUSH0 MSTORE PUSH1 0x40 PUSH0 KECCAK256 PUSH0 SWAP2 POP SWAP1 POP DUP1 PUSH0 ADD DUP1 SLOAD PUSH2 0x5B3 SWAP1 PUSH2 0xD27 JUMP JUMPDEST DUP1 PUSH1 0x1F ADD PUSH1 0x20 DUP1 SWAP2 DIV MUL PUSH1 0x20 ADD PUSH1 0x40 MLOAD SWAP1 DUP2 ADD PUSH1 0x40 MSTORE DUP1 SWAP3 SWAP2 SWAP1 DUP2 DUP2 MSTORE PUSH1 0x20 ADD DUP3 DUP1 SLOAD PUSH2 0x5DF SWAP1 PUSH2 0xD27 JUMP JUMPDEST DUP1 ISZERO PUSH2 0x62A JUMPI DUP1 PUSH1 0x1F LT PUSH2 0x601 JUMPI PUSH2 0x100 DUP1 DUP4 SLOAD DIV MUL DUP4 MSTORE SWAP2 PUSH1 0x20 ADD SWAP2 PUSH2 0x62A JUMP JUMPDEST DUP3 ADD SWAP2 SWAP1 PUSH0 MSTORE PUSH1 0x20 PUSH0 KECCAK256 SWAP1 JUMPDEST DUP2 SLOAD DUP2 MSTORE SWAP1 PUSH1 0x1 ADD SWAP1 PUSH1 0x20 ADD DUP1 DUP4 GT PUSH2 0x60D JUMPI DUP3 SWAP1 SUB PUSH1 0x1F AND DUP3 ADD SWAP2 JUMPDEST POP POP POP POP POP SWAP1 DUP1 PUSH1 0x1 ADD SLOAD SWAP1 DUP1 PUSH1 0x2 ADD DUP1 SLOAD PUSH2 0x645 SWAP1 PUSH2 0xD27 JUMP JUMPDEST DUP1 PUSH1 0x1F ADD PUSH1 0x20 DUP1 SWAP2 DIV MUL PUSH1 0x20 ADD PUSH1 0x40 MLOAD SWAP1 DUP2 ADD PUSH1 0x40 MSTORE DUP1 SWAP3 SWAP2 SWAP1 DUP2 DUP2 MSTORE PUSH1 0x20 ADD DUP3 DUP1 SLOAD PUSH2 0x671 SWAP1 PUSH2 0xD27 JUMP JUMPDEST DUP1 ISZERO PUSH2 0x6BC JUMPI DUP1 PUSH1 0x1F LT PUSH2 0x693 JUMPI PUSH2 0x100 DUP1 DUP4 SLOAD DIV MUL DUP4 MSTORE SWAP2 PUSH1 0x20 ADD SWAP2 PUSH2 0x6BC JUMP JUMPDEST DUP3 ADD SWAP2 SWAP1 PUSH0 MSTORE PUSH1 0x20 PUSH0 KECCAK256 SWAP1 JUMPDEST DUP2 SLOAD DUP2 MSTORE SWAP1 PUSH1 0x1 ADD SWAP1 PUSH1 0x20 ADD DUP1 DUP4 GT PUSH2 0x69F JUMPI DUP3 SWAP1 SUB PUSH1 0x1F AND DUP3 ADD SWAP2 JUMPDEST POP POP POP POP POP SWAP1 DUP1 PUSH1 0x3 ADD SLOAD SWAP1 POP DUP5 JUMP JUMPDEST PUSH0 PUSH0 PUSH0 DUP7 PUSH20 0xFFFFFFFFFFFFFFFFFFFFFFFFFFFFFFFFFFFFFFFF AND PUSH20 0xFFFFFFFFFFFFFFFFFFFFFFFFFFFFFFFFFFFFFFFF AND DUP2 MSTORE PUSH1 0x20 ADD SWAP1 DUP2 MSTORE PUSH1 0x20 ADD PUSH0 KECCAK256 PUSH0 ADD DUP1 SLOAD PUSH2 0x716 SWAP1 PUSH2 0xD27 JUMP JUMPDEST SWAP1 POP EQ PUSH2 0x758 JUMPI PUSH1 0x40 MLOAD PUSH32 0x8C379A000000000000000000000000000000000000000000000000000000000 DUP2 MSTORE PUSH1 0x4 ADD PUSH2 0x74F SWAP1 PUSH2 0x1078 JUMP JUMPDEST PUSH1 0x40 MLOAD DUP1 SWAP2 SUB SWAP1 REVERT JUMPDEST PUSH0 PUSH1 0x40 MLOAD DUP1 PUSH1 0x80 ADD PUSH1 0x40 MSTORE DUP1 DUP6 DUP2 MSTORE PUSH1 0x20 ADD DUP5 DUP2 MSTORE PUSH1 0x20 ADD DUP4 DUP2 MSTORE PUSH1 0x20 ADD TIMESTAMP DUP2 MSTORE POP SWAP1 POP DUP1 PUSH0 PUSH0 DUP8 PUSH20 0xFFFFFFFFFFFFFFFFFFFFFFFFFFFFFFFFFFFFFFFF AND PUSH20 0xFFFFFFFFFFFFFFFFFFFFFFFFFFFFFFFFFFFFFFFF AND DUP2 MSTORE PUSH1 0x20 ADD SWAP1 DUP2 MSTORE PUSH1 0x20 ADD PUSH0 KECCAK256 PUSH0 DUP3 ADD MLOAD DUP2 PUSH0 ADD SWAP1 DUP2 PUSH2 0x7CC SWAP2 SWAP1 PUSH2 0xF5F JUMP JUMPDEST POP PUSH1 0x20 DUP3 ADD MLOAD DUP2 PUSH1 0x1 ADD SSTORE PUSH1 0x40 DUP3 ADD MLOAD DUP2 PUSH1 0x2 ADD SWAP1 DUP2 PUSH2 0x7EC SWAP2 SWAP1 PUSH2 0xF5F JUMP JUMPDEST POP PUSH1 0x60 DUP3 ADD MLOAD DUP2 PUSH1 0x3 ADD SSTORE SWAP1 POP POP PUSH1 0x1 DUP2 SWAP1 DUP1 PUSH1 0x1 DUP2 SLOAD ADD DUP1 DUP3 SSTORE DUP1 SWAP2 POP POP PUSH1 0x1 SWAP1 SUB SWAP1 PUSH0 MSTORE PUSH1 0x20 PUSH0 KECCAK256 SWAP1 PUSH1 0x4 MUL ADD PUSH0 SWAP1 SWAP2 SWAP1 SWAP2 SWAP1 SWAP2 POP PUSH0 DUP3 ADD MLOAD DUP2 PUSH0 ADD SWAP1 DUP2 PUSH2 0x836 SWAP2 SWAP1 PUSH2 0xF5F JUMP JUMPDEST POP PUSH1 0x20 DUP3 ADD MLOAD DUP2 PUSH1 0x1 ADD SSTORE PUSH1 0x40 DUP3 ADD MLOAD DUP2 PUSH1 0x2 ADD SWAP1 DUP2 PUSH2 0x856 SWAP2 SWAP1 PUSH2 0xF5F JUMP JUMPDEST POP PUSH1 0x60 DUP3 ADD MLOAD DUP2 PUSH1 0x3 ADD SSTORE POP POP POP POP POP POP POP JUMP JUMPDEST PUSH1 0x40 MLOAD DUP1 PUSH1 0x80 ADD PUSH1 0x40 MSTORE DUP1 PUSH1 0x60 DUP2 MSTORE PUSH1 0x20 ADD PUSH0 DUP2 MSTORE PUSH1 0x20 ADD PUSH1 0x60 DUP2 MSTORE PUSH1 0x20 ADD PUSH0 DUP2 MSTORE POP SWAP1 JUMP JUMPDEST PUSH0 PUSH1 0x40 MLOAD SWAP1 POP SWAP1 JUMP JUMPDEST PUSH0 PUSH0 REVERT JUMPDEST PUSH0 PUSH0 REVERT JUMPDEST PUSH0 PUSH20 0xFFFFFFFFFFFFFFFFFFFFFFFFFFFFFFFFFFFFFFFF DUP3 AND SWAP1 POP SWAP2 SWAP1 POP JUMP JUMPDEST PUSH0 PUSH2 0x8CA DUP3 PUSH2 0x8A1 JUMP JUMPDEST SWAP1 POP SWAP2 SWAP1 POP JUMP JUMPDEST PUSH2 0x8DA DUP2 PUSH2 0x8C0 JUMP JUMPDEST DUP2 EQ PUSH2 0x8E4 JUMPI PUSH0 PUSH0 REVERT JUMPDEST POP JUMP JUMPDEST PUSH0 DUP2 CALLDATALOAD SWAP1 POP PUSH2 0x8F5 DUP2 PUSH2 0x8D1 JUMP JUMPDEST SWAP3 SWAP2 POP POP JUMP JUMPDEST PUSH0 PUSH0 REVERT JUMPDEST PUSH0 PUSH0 REVERT JUMPDEST PUSH0 PUSH1 0x1F NOT PUSH1 0x1F DUP4 ADD AND SWAP1 POP SWAP2 SWAP1 POP JUMP JUMPDEST PUSH32 0x4E487B7100000000000000000000000000000000000000000000000000000000 PUSH0 MSTORE PUSH1 0x41 PUSH1 0x4 MSTORE PUSH1 0x24 PUSH0 REVERT JUMPDEST PUSH2 0x949 DUP3 PUSH2 0x903 JUMP JUMPDEST DUP2 ADD DUP2 DUP2 LT PUSH8 0xFFFFFFFFFFFFFFFF DUP3 GT OR ISZERO PUSH2 0x968 JUMPI PUSH2 0x967 PUSH2 0x913 JUMP JUMPDEST JUMPDEST DUP1 PUSH1 0x40 MSTORE POP POP POP JUMP JUMPDEST PUSH0 PUSH2 0x97A PUSH2 0x890 JUMP JUMPDEST SWAP1 POP PUSH2 0x986 DUP3 DUP3 PUSH2 0x940 JUMP JUMPDEST SWAP2 SWAP1 POP JUMP JUMPDEST PUSH0 PUSH8 0xFFFFFFFFFFFFFFFF DUP3 GT ISZERO PUSH2 0x9A5 JUMPI PUSH2 0x9A4 PUSH2 0x913 JUMP JUMPDEST JUMPDEST PUSH2 0x9AE DUP3 PUSH2 0x903 JUMP JUMPDEST SWAP1 POP PUSH1 0x20 DUP2 ADD SWAP1 POP SWAP2 SWAP1 POP JUMP JUMPDEST DUP3 DUP2 DUP4 CALLDATACOPY PUSH0 DUP4 DUP4 ADD MSTORE POP POP POP JUMP JUMPDEST PUSH0 PUSH2 0x9DB PUSH2 0x9D6 DUP5 PUSH2 0x98B JUMP JUMPDEST PUSH2 0x971 JUMP JUMPDEST SWAP1 POP DUP3 DUP2 MSTORE PUSH1 0x20 DUP2 ADD DUP5 DUP5 DUP5 ADD GT ISZERO PUSH2 0x9F7 JUMPI PUSH2 0x9F6 PUSH2 0x8FF JUMP JUMPDEST JUMPDEST PUSH2 0xA02 DUP5 DUP3 DUP6 PUSH2 0x9BB JUMP JUMPDEST POP SWAP4 SWAP3 POP POP POP JUMP JUMPDEST PUSH0 DUP3 PUSH1 0x1F DUP4 ADD SLT PUSH2 0xA1E JUMPI PUSH2 0xA1D PUSH2 0x8FB JUMP JUMPDEST JUMPDEST DUP2 CALLDATALOAD PUSH2 0xA2E DUP5 DUP3 PUSH1 0x20 DUP7 ADD PUSH2 0x9C9 JUMP JUMPDEST SWAP2 POP POP SWAP3 SWAP2 POP POP JUMP JUMPDEST PUSH0 DUP2 SWAP1 POP SWAP2 SWAP1 POP JUMP JUMPDEST PUSH2 0xA49 DUP2 PUSH2 0xA37 JUMP JUMPDEST DUP2 EQ PUSH2 0xA53 JUMPI PUSH0 PUSH0 REVERT JUMPDEST POP JUMP JUMPDEST PUSH0 DUP2 CALLDATALOAD SWAP1 POP PUSH2 0xA64 DUP2 PUSH2 0xA40 JUMP JUMPDEST SWAP3 SWAP2 POP POP JUMP JUMPDEST PUSH0 PUSH0 PUSH0 PUSH0 PUSH1 0x80 DUP6 DUP8 SUB SLT ISZERO PUSH2 0xA82 JUMPI PUSH2 0xA81 PUSH2 0x899 JUMP JUMPDEST JUMPDEST PUSH0 PUSH2 0xA8F DUP8 DUP3 DUP9 ADD PUSH2 0x8E7 JUMP JUMPDEST SWAP5 POP POP PUSH1 0x20 DUP6 ADD CALLDATALOAD PUSH8 0xFFFFFFFFFFFFFFFF DUP2 GT ISZERO PUSH2 0xAB0 JUMPI PUSH2 0xAAF PUSH2 0x89D JUMP JUMPDEST JUMPDEST PUSH2 0xABC DUP8 DUP3 DUP9 ADD PUSH2 0xA0A JUMP JUMPDEST SWAP4 POP POP PUSH1 0x40 PUSH2 0xACD DUP8 DUP3 DUP9 ADD PUSH2 0xA56 JUMP JUMPDEST SWAP3 POP POP PUSH1 0x60 DUP6 ADD CALLDATALOAD PUSH8 0xFFFFFFFFFFFFFFFF DUP2 GT ISZERO PUSH2 0xAEE JUMPI PUSH2 0xAED PUSH2 0x89D JUMP JUMPDEST JUMPDEST PUSH2 0xAFA DUP8 DUP3 DUP9 ADD PUSH2 0xA0A JUMP JUMPDEST SWAP2 POP POP SWAP3 SWAP6 SWAP2 SWAP5 POP SWAP3 POP JUMP JUMPDEST PUSH0 PUSH1 0x20 DUP3 DUP5 SUB SLT ISZERO PUSH2 0xB1B JUMPI PUSH2 0xB1A PUSH2 0x899 JUMP JUMPDEST JUMPDEST PUSH0 PUSH2 0xB28 DUP5 DUP3 DUP6 ADD PUSH2 0x8E7 JUMP JUMPDEST SWAP2 POP POP SWAP3 SWAP2 POP POP JUMP JUMPDEST PUSH0 DUP2 MLOAD SWAP1 POP SWAP2 SWAP1 POP JUMP JUMPDEST PUSH0 DUP3 DUP3 MSTORE PUSH1 0x20 DUP3 ADD SWAP1 POP SWAP3 SWAP2 POP POP JUMP JUMPDEST DUP3 DUP2 DUP4 MCOPY PUSH0 DUP4 DUP4 ADD MSTORE POP POP POP JUMP JUMPDEST PUSH0 PUSH2 0xB63 DUP3 PUSH2 0xB31 JUMP JUMPDEST PUSH2 0xB6D DUP2 DUP6 PUSH2 0xB3B JUMP JUMPDEST SWAP4 POP PUSH2 0xB7D DUP2 DUP6 PUSH1 0x20 DUP7 ADD PUSH2 0xB4B JUMP JUMPDEST PUSH2 0xB86 DUP2 PUSH2 0x903 JUMP JUMPDEST DUP5 ADD SWAP2 POP POP SWAP3 SWAP2 POP POP JUMP JUMPDEST PUSH2 0xB9A DUP2 PUSH2 0xA37 JUMP JUMPDEST DUP3 MSTORE POP POP JUMP JUMPDEST PUSH0 PUSH1 0x80 DUP4 ADD PUSH0 DUP4 ADD MLOAD DUP5 DUP3 SUB PUSH0 DUP7 ADD MSTORE PUSH2 0xBBA DUP3 DUP3 PUSH2 0xB59 JUMP JUMPDEST SWAP2 POP POP PUSH1 0x20 DUP4 ADD MLOAD PUSH2 0xBCF PUSH1 0x20 DUP7 ADD DUP3 PUSH2 0xB91 JUMP JUMPDEST POP PUSH1 0x40 DUP4 ADD MLOAD DUP5 DUP3 SUB PUSH1 0x40 DUP7 ADD MSTORE PUSH2 0xBE7 DUP3 DUP3 PUSH2 0xB59 JUMP JUMPDEST SWAP2 POP POP PUSH1 0x60 DUP4 ADD MLOAD PUSH2 0xBFC PUSH1 0x60 DUP7 ADD DUP3 PUSH2 0xB91 JUMP JUMPDEST POP DUP1 SWAP2 POP POP SWAP3 SWAP2 POP POP JUMP JUMPDEST PUSH0 PUSH1 0x20 DUP3 ADD SWAP1 POP DUP2 DUP2 SUB PUSH0 DUP4 ADD MSTORE PUSH2 0xC1F DUP2 DUP5 PUSH2 0xBA0 JUMP JUMPDEST SWAP1 POP SWAP3 SWAP2 POP POP JUMP JUMPDEST PUSH0 PUSH1 0x20 DUP3 DUP5 SUB SLT ISZERO PUSH2 0xC3C JUMPI PUSH2 0xC3B PUSH2 0x899 JUMP JUMPDEST JUMPDEST PUSH0 PUSH2 0xC49 DUP5 DUP3 DUP6 ADD PUSH2 0xA56 JUMP JUMPDEST SWAP2 POP POP SWAP3 SWAP2 POP POP JUMP JUMPDEST PUSH0 DUP3 DUP3 MSTORE PUSH1 0x20 DUP3 ADD SWAP1 POP SWAP3 SWAP2 POP POP JUMP JUMPDEST PUSH0 PUSH2 0xC6C DUP3 PUSH2 0xB31 JUMP JUMPDEST PUSH2 0xC76 DUP2 DUP6 PUSH2 0xC52 JUMP JUMPDEST SWAP4 POP PUSH2 0xC86 DUP2 DUP6 PUSH1 0x20 DUP7 ADD PUSH2 0xB4B JUMP JUMPDEST PUSH2 0xC8F DUP2 PUSH2 0x903 JUMP JUMPDEST DUP5 ADD SWAP2 POP POP SWAP3 SWAP2 POP POP JUMP JUMPDEST PUSH2 0xCA3 DUP2 PUSH2 0xA37 JUMP JUMPDEST DUP3 MSTORE POP POP JUMP JUMPDEST PUSH0 PUSH1 0x80 DUP3 ADD SWAP1 POP DUP2 DUP2 SUB PUSH0 DUP4 ADD MSTORE PUSH2 0xCC1 DUP2 DUP8 PUSH2 0xC62 JUMP JUMPDEST SWAP1 POP PUSH2 0xCD0 PUSH1 0x20 DUP4 ADD DUP7 PUSH2 0xC9A JUMP JUMPDEST DUP2 DUP2 SUB PUSH1 0x40 DUP4 ADD MSTORE PUSH2 0xCE2 DUP2 DUP6 PUSH2 0xC62 JUMP JUMPDEST SWAP1 POP PUSH2 0xCF1 PUSH1 0x60 DUP4 ADD DUP5 PUSH2 0xC9A JUMP JUMPDEST SWAP6 SWAP5 POP POP POP POP POP JUMP JUMPDEST PUSH32 0x4E487B7100000000000000000000000000000000000000000000000000000000 PUSH0 MSTORE PUSH1 0x22 PUSH1 0x4 MSTORE PUSH1 0x24 PUSH0 REVERT JUMPDEST PUSH0 PUSH1 0x2 DUP3 DIV SWAP1 POP PUSH1 0x1 DUP3 AND DUP1 PUSH2 0xD3E JUMPI PUSH1 0x7F DUP3 AND SWAP2 POP JUMPDEST PUSH1 0x20 DUP3 LT DUP2 SUB PUSH2 0xD51 JUMPI PUSH2 0xD50 PUSH2 0xCFA JUMP JUMPDEST JUMPDEST POP SWAP2 SWAP1 POP JUMP JUMPDEST PUSH32 0x55736572206E6F74207265676973746572656400000000000000000000000000 PUSH0 DUP3 ADD MSTORE POP JUMP JUMPDEST PUSH0 PUSH2 0xD8B PUSH1 0x13 DUP4 PUSH2 0xC52 JUMP JUMPDEST SWAP2 POP PUSH2 0xD96 DUP3 PUSH2 0xD57 JUMP JUMPDEST PUSH1 0x20 DUP3 ADD SWAP1 POP SWAP2 SWAP1 POP JUMP JUMPDEST PUSH0 PUSH1 0x20 DUP3 ADD SWAP1 POP DUP2 DUP2 SUB PUSH0 DUP4 ADD MSTORE PUSH2 0xDB8 DUP2 PUSH2 0xD7F JUMP JUMPDEST SWAP1 POP SWAP2 SWAP1 POP JUMP JUMPDEST PUSH0 DUP2 SWAP1 POP DUP2 PUSH0 MSTORE PUSH1 0x20 PUSH0 KECCAK256 SWAP1 POP SWAP2 SWAP1 POP JUMP JUMPDEST PUSH0 PUSH1 0x20 PUSH1 0x1F DUP4 ADD DIV SWAP1 POP SWAP2 SWAP1 POP JUMP JUMPDEST PUSH0 DUP3 DUP3 SHL SWAP1 POP SWAP3 SWAP2 POP POP JUMP JUMPDEST PUSH0 PUSH1 0x8 DUP4 MUL PUSH2 0xE1B PUSH32 0xFFFFFFFFFFFFFFFFFFFFFFFFFFFFFFFFFFFFFFFFFFFFFFFFFFFFFFFFFFFFFFFF DUP3 PUSH2 0xDE0 JUMP JUMPDEST PUSH2 0xE25 DUP7 DUP4 PUSH2 0xDE0 JUMP JUMPDEST SWAP6 POP DUP1 NOT DUP5 AND SWAP4 POP DUP1 DUP7 AND DUP5 OR SWAP3 POP POP POP SWAP4 SWAP3 POP POP POP JUMP JUMPDEST PUSH0 DUP2 SWAP1 POP SWAP2 SWAP1 POP JUMP JUMPDEST PUSH0 PUSH2 0xE60 PUSH2 0xE5B PUSH2 0xE56 DUP5 PUSH2 0xA37 JUMP JUMPDEST PUSH2 0xE3D JUMP JUMPDEST PUSH2 0xA37 JUMP JUMPDEST SWAP1 POP SWAP2 SWAP1 POP JUMP JUMPDEST PUSH0 DUP2 SWAP1 POP SWAP2 SWAP1 POP JUMP JUMPDEST PUSH2 0xE79 DUP4 PUSH2 0xE46 JUMP JUMPDEST PUSH2 0xE8D PUSH2 0xE85 DUP3 PUSH2 0xE67 JUMP JUMPDEST DUP5 DUP5 SLOAD PUSH2 0xDEC JUMP JUMPDEST DUP3 SSTORE POP POP POP POP JUMP JUMPDEST PUSH0 PUSH0 SWAP1 POP SWAP1 JUMP JUMPDEST PUSH2 0xEA4 PUSH2 0xE95 JUMP JUMPDEST PUSH2 0xEAF DUP2 DUP5 DUP5 PUSH2 0xE70 JUMP JUMPDEST POP POP POP JUMP JUMPDEST JUMPDEST DUP2 DUP2 LT ISZERO PUSH2 0xED2 JUMPI PUSH2 0xEC7 PUSH0 DUP3 PUSH2 0xE9C JUMP JUMPDEST PUSH1 0x1 DUP2 ADD SWAP1 POP PUSH2 0xEB5 JUMP JUMPDEST POP POP JUMP JUMPDEST PUSH1 0x1F DUP3 GT ISZERO PUSH2 0xF17 JUMPI PUSH2 0xEE8 DUP2 PUSH2 0xDBF JUMP JUMPDEST PUSH2 0xEF1 DUP5 PUSH2 0xDD1 JUMP JUMPDEST DUP2 ADD PUSH1 0x20 DUP6 LT ISZERO PUSH2 0xF00 JUMPI DUP2 SWAP1 POP JUMPDEST PUSH2 0xF14 PUSH2 0xF0C DUP6 PUSH2 0xDD1 JUMP JUMPDEST DUP4 ADD DUP3 PUSH2 0xEB4 JUMP JUMPDEST POP POP JUMPDEST POP POP POP JUMP JUMPDEST PUSH0 DUP3 DUP3 SHR SWAP1 POP SWAP3 SWAP2 POP POP JUMP JUMPDEST PUSH0 PUSH2 0xF37 PUSH0 NOT DUP5 PUSH1 0x8 MUL PUSH2 0xF1C JUMP JUMPDEST NOT DUP1 DUP4 AND SWAP2 POP POP SWAP3 SWAP2 POP POP JUMP JUMPDEST PUSH0 PUSH2 0xF4F DUP4 DUP4 PUSH2 0xF28 JUMP JUMPDEST SWAP2 POP DUP3 PUSH1 0x2 MUL DUP3 OR SWAP1 POP SWAP3 SWAP2 POP POP JUMP JUMPDEST PUSH2 0xF68 DUP3 PUSH2 0xB31 JUMP JUMPDEST PUSH8 0xFFFFFFFFFFFFFFFF DUP2 GT ISZERO PUSH2 0xF81 JUMPI PUSH2 0xF80 PUSH2 0x913 JUMP JUMPDEST JUMPDEST PUSH2 0xF8B DUP3 SLOAD PUSH2 0xD27 JUMP JUMPDEST PUSH2 0xF96 DUP3 DUP3 DUP6 PUSH2 0xED6 JUMP JUMPDEST PUSH0 PUSH1 0x20 SWAP1 POP PUSH1 0x1F DUP4 GT PUSH1 0x1 DUP2 EQ PUSH2 0xFC7 JUMPI PUSH0 DUP5 ISZERO PUSH2 0xFB5 JUMPI DUP3 DUP8 ADD MLOAD SWAP1 POP JUMPDEST PUSH2 0xFBF DUP6 DUP3 PUSH2 0xF44 JUMP JUMPDEST DUP7 SSTORE POP PUSH2 0x1026 JUMP JUMPDEST PUSH1 0x1F NOT DUP5 AND PUSH2 0xFD5 DUP7 PUSH2 0xDBF JUMP JUMPDEST PUSH0 JUMPDEST DUP3 DUP2 LT ISZERO PUSH2 0xFFC JUMPI DUP5 DUP10 ADD MLOAD DUP3 SSTORE PUSH1 0x1 DUP3 ADD SWAP2 POP PUSH1 0x20 DUP6 ADD SWAP5 POP PUSH1 0x20 DUP2 ADD SWAP1 POP PUSH2 0xFD7 JUMP JUMPDEST DUP7 DUP4 LT ISZERO PUSH2 0x1019 JUMPI DUP5 DUP10 ADD MLOAD PUSH2 0x1015 PUSH1 0x1F DUP10 AND DUP3 PUSH2 0xF28 JUMP JUMPDEST DUP4 SSTORE POP JUMPDEST PUSH1 0x1 PUSH1 0x2 DUP9 MUL ADD DUP9 SSTORE POP POP POP JUMPDEST POP POP POP POP POP POP JUMP JUMPDEST PUSH32 0x5573657220616C72656164792072656769737465726564000000000000000000 PUSH0 DUP3 ADD MSTORE POP JUMP JUMPDEST PUSH0 PUSH2 0x1062 PUSH1 0x17 DUP4 PUSH2 0xC52 JUMP JUMPDEST SWAP2 POP PUSH2 0x106D DUP3 PUSH2 0x102E JUMP JUMPDEST PUSH1 0x20 DUP3 ADD SWAP1 POP SWAP2 SWAP1 POP JUMP JUMPDEST PUSH0 PUSH1 0x20 DUP3 ADD SWAP1 POP DUP2 DUP2 SUB PUSH0 DUP4 ADD MSTORE PUSH2 0x108F DUP2 PUSH2 0x1056 JUMP JUMPDEST SWAP1 POP SWAP2 SWAP1 POP JUMP INVALID LOG2 PUSH5 0x6970667358 0x22 SLT KECCAK256 0xD9 0x26 PUSH10 0x6C7D69368964BC3E0E61 0xC5 0xC8 DUP6 0xD SGT EXTCODEHASH 0xC 0xD9 0x4B 0xBC SWAP12 PUSH8 0x494626BC2D5C5464 PUSH20 0x6F6C634300081E00330000000000000000000000 "
				},
				"gasEstimates": {
					"creation": {
						"codeDepositCost": "860000",
						"executionCost": "894",
						"totalCost": "860894"
					},
					"external": {
						"createRegister(address,string,uint256,string)": "infinite",
						"getProfile(address)": "infinite",
						"updateProfile(address,string,uint256,string)": "infinite",
						"userInformation(address)": "infinite",
						"users(uint256)": "infinite"
					}
				},
				"methodIdentifiers": {
					"createRegister(address,string,uint256,string)": "d600e1a1",
					"getProfile(address)": "0f53a470",
					"updateProfile(address,string,uint256,string)": "088d4978",
					"userInformation(address)": "7d2e227d",
					"users(uint256)": "365b98b2"
				}
			},
			"storageLayout": {
				"storage": [
					{
						"astId": 15,
						"contract": "smart-contract.sol:UserInformation",
						"label": "userInformation",
						"offset": 0,
						"slot": "0",
						"type": "t_mapping(t_address,t_struct(User)10_storage)"
					},
					{
						"astId": 19,
						"contract": "smart-contract.sol:UserInformation",
						"label": "users",
						"offset": 0,
						"slot": "1",
						"type": "t_array(t_struct(User)10_storage)dyn_storage"
					}
				],
				"types": {
					"t_address": {
						"encoding": "inplace",
						"label": "address",
						"numberOfBytes": "20"
					},
					"t_array(t_struct(User)10_storage)dyn_storage": {
						"base": "t_struct(User)10_storage",
						"encoding": "dynamic_array",
						"label": "struct UserInformation.User[]",
						"numberOfBytes": "32"
					},
					"t_mapping(t_address,t_struct(User)10_storage)": {
						"encoding": "mapping",
						"key": "t_address",
						"label": "mapping(address => struct UserInformation.User)",
						"numberOfBytes": "32",
						"value": "t_struct(User)10_storage"
					},
					"t_string_storage": {
						"encoding": "bytes",
						"label": "string",
						"numberOfBytes": "32"
					},
					"t_struct(User)10_storage": {
						"encoding": "inplace",
						"label": "struct UserInformation.User",
						"members": [
							{
								"astId": 3,
								"contract": "smart-contract.sol:UserInformation",
								"label": "name",
								"offset": 0,
								"slot": "0",
								"type": "t_string_storage"
							},
							{
								"astId": 5,
								"contract": "smart-contract.sol:UserInformation",
								"label": "age",
								"offset": 0,
								"slot": "1",
								"type": "t_uint256"
							},
							{
								"astId": 7,
								"contract": "smart-contract.sol:UserInformation",
								"label": "email",
								"offset": 0,
								"slot": "2",
								"type": "t_string_storage"
							},
							{
								"astId": 9,
								"contract": "smart-contract.sol:UserInformation",
								"label": "timestamp",
								"offset": 0,
								"slot": "3",
								"type": "t_uint256"
							}
						],
						"numberOfBytes": "128"
					},
					"t_uint256": {
						"encoding": "inplace",
						"label": "uint256",
						"numberOfBytes": "32"
					}
				}
			},
			"userdoc": {
				"kind": "user",
				"methods": {},
				"version": 1
			}
		}
	}
}