{
	"smart-contract-w2-l2.sol": {
		"VaultManager": {
			"abi": [
				{
					"anonymous": false,
					"inputs": [
						{
							"indexed": false,
							"internalType": "address",
							"name": "user",
							"type": "address"
						},
						{
							"indexed": false,
							"internalType": "uint256",
							"name": "amount",
							"type": "uint256"
						}
					],
					"name": "Deposited",
					"type": "event"
				},
				{
					"anonymous": false,
					"inputs": [
						{
							"indexed": false,
							"internalType": "address",
							"name": "user",
							"type": "address"
						},
						{
							"indexed": false,
							"internalType": "uint256",
							"name": "amount",
							"type": "uint256"
						}
					],
					"name": "Withdrawn",
					"type": "event"
				},
				{
					"inputs": [],
					"name": "deposit",
					"outputs": [],
					"stateMutability": "payable",
					"type": "function"
				},
				{
					"inputs": [
						{
							"internalType": "address",
							"name": "user",
							"type": "address"
						}
					],
					"name": "getBalance",
					"outputs": [
						{
							"internalType": "uint256",
							"name": "",
							"type": "uint256"
						}
					],
					"stateMutability": "view",
					"type": "function"
				},
				{
					"inputs": [
						{
							"internalType": "uint256",
							"name": "amount",
							"type": "uint256"
						}
					],
					"name": "withdraw",
					"outputs": [],
					"stateMutability": "nonpayable",
					"type": "function"
				}
			],
			"devdoc": {
				"kind": "dev",
				"methods": {},
				"version": 1
			},
			"evm": {
				"assembly": "    /* \"smart-contract-w2-l2.sol\":651:1411  contract VaultManager is VaultBase {... */\n  mstore(0x40, 0x80)\n  callvalue\n  dup1\n  iszero\n  tag_1\n  jumpi\n  revert(0x00, 0x00)\ntag_1:\n  pop\n  dataSize(sub_0)\n  dup1\n  dataOffset(sub_0)\n  0x00\n  codecopy\n  0x00\n  return\nstop\n\nsub_0: assembly {\n        /* \"smart-contract-w2-l2.sol\":651:1411  contract VaultManager is VaultBase {... */\n      mstore(0x40, 0x80)\n      jumpi(tag_1, lt(calldatasize, 0x04))\n      shr(0xe0, calldataload(0x00))\n      dup1\n      0x2e1a7d4d\n      eq\n      tag_2\n      jumpi\n      dup1\n      0xd0e30db0\n      eq\n      tag_3\n      jumpi\n      dup1\n      0xf8b2cb4f\n      eq\n      tag_4\n      jumpi\n    tag_1:\n      revert(0x00, 0x00)\n        /* \"smart-contract-w2-l2.sol\":1029:1408  function withdraw(uint256 amount) public {... */\n    tag_2:\n      callvalue\n      dup1\n      iszero\n      tag_5\n      jumpi\n      revert(0x00, 0x00)\n    tag_5:\n      pop\n      tag_6\n      0x04\n      dup1\n      calldatasize\n      sub\n      dup2\n      add\n      swap1\n      tag_7\n      swap2\n      swap1\n      tag_8\n      jump\t// in\n    tag_7:\n      tag_9\n      jump\t// in\n    tag_6:\n      stop\n        /* \"smart-contract-w2-l2.sol\":767:985  function deposit() public payable {... */\n    tag_3:\n      tag_10\n      tag_11\n      jump\t// in\n    tag_10:\n      stop\n        /* \"smart-contract-w2-l2.sol\":540:644  function getBalance(address user) public view returns (uint256) {... */\n    tag_4:\n      callvalue\n      dup1\n      iszero\n      tag_12\n      jumpi\n      revert(0x00, 0x00)\n    tag_12:\n      pop\n      tag_13\n      0x04\n      dup1\n      calldatasize\n      sub\n      dup2\n      add\n      swap1\n      tag_14\n      swap2\n      swap1\n      tag_15\n      jump\t// in\n    tag_14:\n      tag_16\n      jump\t// in\n    tag_13:\n      mload(0x40)\n      tag_17\n      swap2\n      swap1\n      tag_18\n      jump\t// in\n    tag_17:\n      mload(0x40)\n      dup1\n      swap2\n      sub\n      swap1\n      return\n        /* \"smart-contract-w2-l2.sol\":1029:1408  function withdraw(uint256 amount) public {... */\n    tag_9:\n        /* \"smart-contract-w2-l2.sol\":1098:1099  0 */\n      0x00\n        /* \"smart-contract-w2-l2.sol\":1089:1095  amount */\n      dup2\n        /* \"smart-contract-w2-l2.sol\":1089:1099  amount > 0 */\n      gt\n        /* \"smart-contract-w2-l2.sol\":1081:1133  require(amount > 0, \"Amount must be greater than 0\") */\n      tag_20\n      jumpi\n      mload(0x40)\n      0x08c379a000000000000000000000000000000000000000000000000000000000\n      dup2\n      mstore\n      0x04\n      add\n      tag_21\n      swap1\n      tag_22\n      jump\t// in\n    tag_21:\n      mload(0x40)\n      dup1\n      swap2\n      sub\n      swap1\n      revert\n    tag_20:\n        /* \"smart-contract-w2-l2.sol\":1144:1163  uint256 userBalance */\n      0x00\n        /* \"smart-contract-w2-l2.sol\":1166:1174  balances */\n      0x00\n        /* \"smart-contract-w2-l2.sol\":1166:1186  balances[msg.sender] */\n      0x00\n        /* \"smart-contract-w2-l2.sol\":1175:1185  msg.sender */\n      caller\n        /* \"smart-contract-w2-l2.sol\":1166:1186  balances[msg.sender] */\n      0xffffffffffffffffffffffffffffffffffffffff\n      and\n      0xffffffffffffffffffffffffffffffffffffffff\n      and\n      dup2\n      mstore\n      0x20\n      add\n      swap1\n      dup2\n      mstore\n      0x20\n      add\n      0x00\n      keccak256\n      sload\n        /* \"smart-contract-w2-l2.sol\":1144:1186  uint256 userBalance = balances[msg.sender] */\n      swap1\n      pop\n        /* \"smart-contract-w2-l2.sol\":1220:1226  amount */\n      dup2\n        /* \"smart-contract-w2-l2.sol\":1205:1216  userBalance */\n      dup2\n        /* \"smart-contract-w2-l2.sol\":1205:1226  userBalance >= amount */\n      lt\n      iszero\n        /* \"smart-contract-w2-l2.sol\":1197:1249  require(userBalance >= amount, \"Not enough balance\") */\n      tag_23\n      jumpi\n      mload(0x40)\n      0x08c379a000000000000000000000000000000000000000000000000000000000\n      dup2\n      mstore\n      0x04\n      add\n      tag_24\n      swap1\n      tag_25\n      jump\t// in\n    tag_24:\n      mload(0x40)\n      dup1\n      swap2\n      sub\n      swap1\n      revert\n    tag_23:\n        /* \"smart-contract-w2-l2.sol\":1285:1308  userBalance.sub(amount) */\n      tag_26\n        /* \"smart-contract-w2-l2.sol\":1301:1307  amount */\n      dup3\n        /* \"smart-contract-w2-l2.sol\":1285:1296  userBalance */\n      dup3\n        /* \"smart-contract-w2-l2.sol\":1285:1300  userBalance.sub */\n      tag_27\n      swap1\n        /* \"smart-contract-w2-l2.sol\":1285:1308  userBalance.sub(amount) */\n      swap2\n      swap1\n      0xffffffff\n      and\n      jump\t// in\n    tag_26:\n        /* \"smart-contract-w2-l2.sol\":1262:1270  balances */\n      0x00\n        /* \"smart-contract-w2-l2.sol\":1262:1282  balances[msg.sender] */\n      0x00\n        /* \"smart-contract-w2-l2.sol\":1271:1281  msg.sender */\n      caller\n        /* \"smart-contract-w2-l2.sol\":1262:1282  balances[msg.sender] */\n      0xffffffffffffffffffffffffffffffffffffffff\n      and\n      0xffffffffffffffffffffffffffffffffffffffff\n      and\n      dup2\n      mstore\n      0x20\n      add\n      swap1\n      dup2\n      mstore\n      0x20\n      add\n      0x00\n      keccak256\n        /* \"smart-contract-w2-l2.sol\":1262:1308  balances[msg.sender] = userBalance.sub(amount) */\n      dup2\n      swap1\n      sstore\n      pop\n        /* \"smart-contract-w2-l2.sol\":1327:1337  msg.sender */\n      caller\n        /* \"smart-contract-w2-l2.sol\":1319:1347  payable(msg.sender).transfer */\n      0xffffffffffffffffffffffffffffffffffffffff\n      and\n        /* \"smart-contract-w2-l2.sol\":1319:1355  payable(msg.sender).transfer(amount) */\n      0x08fc\n        /* \"smart-contract-w2-l2.sol\":1348:1354  amount */\n      dup4\n        /* \"smart-contract-w2-l2.sol\":1319:1355  payable(msg.sender).transfer(amount) */\n      swap1\n      dup2\n      iszero\n      mul\n      swap1\n      mload(0x40)\n      0x00\n      mload(0x40)\n      dup1\n      dup4\n      sub\n      dup2\n      dup6\n      dup9\n      dup9\n      call\n      swap4\n      pop\n      pop\n      pop\n      pop\n      iszero\n      dup1\n      iszero\n      tag_29\n      jumpi\n      returndatacopy(0x00, 0x00, returndatasize)\n      revert(0x00, returndatasize)\n    tag_29:\n      pop\n        /* \"smart-contract-w2-l2.sol\":1371:1400  Withdrawn(msg.sender, amount) */\n      0x7084f5476618d8e60b11ef0d7d3f06914655adb8793e28ff7f018d4c76d505d5\n        /* \"smart-contract-w2-l2.sol\":1381:1391  msg.sender */\n      caller\n        /* \"smart-contract-w2-l2.sol\":1393:1399  amount */\n      dup4\n        /* \"smart-contract-w2-l2.sol\":1371:1400  Withdrawn(msg.sender, amount) */\n      mload(0x40)\n      tag_30\n      swap3\n      swap2\n      swap1\n      tag_31\n      jump\t// in\n    tag_30:\n      mload(0x40)\n      dup1\n      swap2\n      sub\n      swap1\n      log1\n        /* \"smart-contract-w2-l2.sol\":1070:1408  {... */\n      pop\n        /* \"smart-contract-w2-l2.sol\":1029:1408  function withdraw(uint256 amount) public {... */\n      pop\n      jump\t// out\n        /* \"smart-contract-w2-l2.sol\":767:985  function deposit() public payable {... */\n    tag_11:\n        /* \"smart-contract-w2-l2.sol\":832:833  0 */\n      0x00\n        /* \"smart-contract-w2-l2.sol\":820:829  msg.value */\n      callvalue\n        /* \"smart-contract-w2-l2.sol\":820:833  msg.value > 0 */\n      gt\n        /* \"smart-contract-w2-l2.sol\":812:858  require(msg.value > 0, \"Cannot deposit 0 ETH\") */\n      tag_33\n      jumpi\n      mload(0x40)\n      0x08c379a000000000000000000000000000000000000000000000000000000000\n      dup2\n      mstore\n      0x04\n      add\n      tag_34\n      swap1\n      tag_35\n      jump\t// in\n    tag_34:\n      mload(0x40)\n      dup1\n      swap2\n      sub\n      swap1\n      revert\n    tag_33:\n        /* \"smart-contract-w2-l2.sol\":894:929  balances[msg.sender].add(msg.value) */\n      tag_36\n        /* \"smart-contract-w2-l2.sol\":919:928  msg.value */\n      callvalue\n        /* \"smart-contract-w2-l2.sol\":894:902  balances */\n      0x00\n        /* \"smart-contract-w2-l2.sol\":894:914  balances[msg.sender] */\n      0x00\n        /* \"smart-contract-w2-l2.sol\":903:913  msg.sender */\n      caller\n        /* \"smart-contract-w2-l2.sol\":894:914  balances[msg.sender] */\n      0xffffffffffffffffffffffffffffffffffffffff\n      and\n      0xffffffffffffffffffffffffffffffffffffffff\n      and\n      dup2\n      mstore\n      0x20\n      add\n      swap1\n      dup2\n      mstore\n      0x20\n      add\n      0x00\n      keccak256\n      sload\n        /* \"smart-contract-w2-l2.sol\":894:918  balances[msg.sender].add */\n      tag_37\n      swap1\n        /* \"smart-contract-w2-l2.sol\":894:929  balances[msg.sender].add(msg.value) */\n      swap2\n      swap1\n      0xffffffff\n      and\n      jump\t// in\n    tag_36:\n        /* \"smart-contract-w2-l2.sol\":871:879  balances */\n      0x00\n        /* \"smart-contract-w2-l2.sol\":871:891  balances[msg.sender] */\n      0x00\n        /* \"smart-contract-w2-l2.sol\":880:890  msg.sender */\n      caller\n        /* \"smart-contract-w2-l2.sol\":871:891  balances[msg.sender] */\n      0xffffffffffffffffffffffffffffffffffffffff\n      and\n      0xffffffffffffffffffffffffffffffffffffffff\n      and\n      dup2\n      mstore\n      0x20\n      add\n      swap1\n      dup2\n      mstore\n      0x20\n      add\n      0x00\n      keccak256\n        /* \"smart-contract-w2-l2.sol\":871:929  balances[msg.sender] = balances[msg.sender].add(msg.value) */\n      dup2\n      swap1\n      sstore\n      pop\n        /* \"smart-contract-w2-l2.sol\":945:977  Deposited(msg.sender, msg.value) */\n      0x2da466a7b24304f47e87fa2e1e5a81b9831ce54fec19055ce277ca2f39ba42c4\n        /* \"smart-contract-w2-l2.sol\":955:965  msg.sender */\n      caller\n        /* \"smart-contract-w2-l2.sol\":967:976  msg.value */\n      callvalue\n        /* \"smart-contract-w2-l2.sol\":945:977  Deposited(msg.sender, msg.value) */\n      mload(0x40)\n      tag_38\n      swap3\n      swap2\n      swap1\n      tag_31\n      jump\t// in\n    tag_38:\n      mload(0x40)\n      dup1\n      swap2\n      sub\n      swap1\n      log1\n        /* \"smart-contract-w2-l2.sol\":767:985  function deposit() public payable {... */\n      jump\t// out\n        /* \"smart-contract-w2-l2.sol\":540:644  function getBalance(address user) public view returns (uint256) {... */\n    tag_16:\n        /* \"smart-contract-w2-l2.sol\":595:602  uint256 */\n      0x00\n        /* \"smart-contract-w2-l2.sol\":622:630  balances */\n      0x00\n        /* \"smart-contract-w2-l2.sol\":622:636  balances[user] */\n      0x00\n        /* \"smart-contract-w2-l2.sol\":631:635  user */\n      dup4\n        /* \"smart-contract-w2-l2.sol\":622:636  balances[user] */\n      0xffffffffffffffffffffffffffffffffffffffff\n      and\n      0xffffffffffffffffffffffffffffffffffffffff\n      and\n      dup2\n      mstore\n      0x20\n      add\n      swap1\n      dup2\n      mstore\n      0x20\n      add\n      0x00\n      keccak256\n      sload\n        /* \"smart-contract-w2-l2.sol\":615:636  return balances[user] */\n      swap1\n      pop\n        /* \"smart-contract-w2-l2.sol\":540:644  function getBalance(address user) public view returns (uint256) {... */\n      swap2\n      swap1\n      pop\n      jump\t// out\n        /* \"smart-contract-w2-l2.sol\":198:347  function sub(uint256 a, uint256 b) internal pure returns (uint256) {... */\n    tag_27:\n        /* \"smart-contract-w2-l2.sol\":256:263  uint256 */\n      0x00\n        /* \"smart-contract-w2-l2.sol\":289:290  a */\n      dup3\n        /* \"smart-contract-w2-l2.sol\":284:285  b */\n      dup3\n        /* \"smart-contract-w2-l2.sol\":284:290  b <= a */\n      gt\n      iszero\n        /* \"smart-contract-w2-l2.sol\":276:316  require(b <= a, \"Subtraction underflow\") */\n      tag_41\n      jumpi\n      mload(0x40)\n      0x08c379a000000000000000000000000000000000000000000000000000000000\n      dup2\n      mstore\n      0x04\n      add\n      tag_42\n      swap1\n      tag_43\n      jump\t// in\n    tag_42:\n      mload(0x40)\n      dup1\n      swap2\n      sub\n      swap1\n      revert\n    tag_41:\n        /* \"smart-contract-w2-l2.sol\":338:339  b */\n      dup2\n        /* \"smart-contract-w2-l2.sol\":334:335  a */\n      dup4\n        /* \"smart-contract-w2-l2.sol\":334:339  a - b */\n      tag_44\n      swap2\n      swap1\n      tag_45\n      jump\t// in\n    tag_44:\n        /* \"smart-contract-w2-l2.sol\":327:339  return a - b */\n      swap1\n      pop\n        /* \"smart-contract-w2-l2.sol\":198:347  function sub(uint256 a, uint256 b) internal pure returns (uint256) {... */\n      swap3\n      swap2\n      pop\n      pop\n      jump\t// out\n        /* \"smart-contract-w2-l2.sol\":92:190  function add(uint256 a, uint256 b) internal pure returns (uint256) {... */\n    tag_37:\n        /* \"smart-contract-w2-l2.sol\":150:157  uint256 */\n      0x00\n        /* \"smart-contract-w2-l2.sol\":181:182  b */\n      dup2\n        /* \"smart-contract-w2-l2.sol\":177:178  a */\n      dup4\n        /* \"smart-contract-w2-l2.sol\":177:182  a + b */\n      tag_47\n      swap2\n      swap1\n      tag_48\n      jump\t// in\n    tag_47:\n        /* \"smart-contract-w2-l2.sol\":170:182  return a + b */\n      swap1\n      pop\n        /* \"smart-contract-w2-l2.sol\":92:190  function add(uint256 a, uint256 b) internal pure returns (uint256) {... */\n      swap3\n      swap2\n      pop\n      pop\n      jump\t// out\n        /* \"#utility.yul\":88:205   */\n    tag_50:\n        /* \"#utility.yul\":197:198   */\n      0x00\n        /* \"#utility.yul\":194:195   */\n      0x00\n        /* \"#utility.yul\":187:199   */\n      revert\n        /* \"#utility.yul\":334:411   */\n    tag_52:\n        /* \"#utility.yul\":371:378   */\n      0x00\n        /* \"#utility.yul\":400:405   */\n      dup2\n        /* \"#utility.yul\":389:405   */\n      swap1\n      pop\n        /* \"#utility.yul\":334:411   */\n      swap2\n      swap1\n      pop\n      jump\t// out\n        /* \"#utility.yul\":417:539   */\n    tag_53:\n        /* \"#utility.yul\":490:514   */\n      tag_77\n        /* \"#utility.yul\":508:513   */\n      dup2\n        /* \"#utility.yul\":490:514   */\n      tag_52\n      jump\t// in\n    tag_77:\n        /* \"#utility.yul\":483:488   */\n      dup2\n        /* \"#utility.yul\":480:515   */\n      eq\n        /* \"#utility.yul\":470:533   */\n      tag_78\n      jumpi\n        /* \"#utility.yul\":529:530   */\n      0x00\n        /* \"#utility.yul\":526:527   */\n      0x00\n        /* \"#utility.yul\":519:531   */\n      revert\n        /* \"#utility.yul\":470:533   */\n    tag_78:\n        /* \"#utility.yul\":417:539   */\n      pop\n      jump\t// out\n        /* \"#utility.yul\":545:684   */\n    tag_54:\n        /* \"#utility.yul\":591:596   */\n      0x00\n        /* \"#utility.yul\":629:635   */\n      dup2\n        /* \"#utility.yul\":616:636   */\n      calldataload\n        /* \"#utility.yul\":607:636   */\n      swap1\n      pop\n        /* \"#utility.yul\":645:678   */\n      tag_80\n        /* \"#utility.yul\":672:677   */\n      dup2\n        /* \"#utility.yul\":645:678   */\n      tag_53\n      jump\t// in\n    tag_80:\n        /* \"#utility.yul\":545:684   */\n      swap3\n      swap2\n      pop\n      pop\n      jump\t// out\n        /* \"#utility.yul\":690:1019   */\n    tag_8:\n        /* \"#utility.yul\":749:755   */\n      0x00\n        /* \"#utility.yul\":798:800   */\n      0x20\n        /* \"#utility.yul\":786:795   */\n      dup3\n        /* \"#utility.yul\":777:784   */\n      dup5\n        /* \"#utility.yul\":773:796   */\n      sub\n        /* \"#utility.yul\":769:801   */\n      slt\n        /* \"#utility.yul\":766:885   */\n      iszero\n      tag_82\n      jumpi\n        /* \"#utility.yul\":804:883   */\n      tag_83\n      tag_50\n      jump\t// in\n    tag_83:\n        /* \"#utility.yul\":766:885   */\n    tag_82:\n        /* \"#utility.yul\":924:925   */\n      0x00\n        /* \"#utility.yul\":949:1002   */\n      tag_84\n        /* \"#utility.yul\":994:1001   */\n      dup5\n        /* \"#utility.yul\":985:991   */\n      dup3\n        /* \"#utility.yul\":974:983   */\n      dup6\n        /* \"#utility.yul\":970:992   */\n      add\n        /* \"#utility.yul\":949:1002   */\n      tag_54\n      jump\t// in\n    tag_84:\n        /* \"#utility.yul\":939:1002   */\n      swap2\n      pop\n        /* \"#utility.yul\":895:1012   */\n      pop\n        /* \"#utility.yul\":690:1019   */\n      swap3\n      swap2\n      pop\n      pop\n      jump\t// out\n        /* \"#utility.yul\":1025:1151   */\n    tag_55:\n        /* \"#utility.yul\":1062:1069   */\n      0x00\n        /* \"#utility.yul\":1102:1144   */\n      0xffffffffffffffffffffffffffffffffffffffff\n        /* \"#utility.yul\":1095:1100   */\n      dup3\n        /* \"#utility.yul\":1091:1145   */\n      and\n        /* \"#utility.yul\":1080:1145   */\n      swap1\n      pop\n        /* \"#utility.yul\":1025:1151   */\n      swap2\n      swap1\n      pop\n      jump\t// out\n        /* \"#utility.yul\":1157:1253   */\n    tag_56:\n        /* \"#utility.yul\":1194:1201   */\n      0x00\n        /* \"#utility.yul\":1223:1247   */\n      tag_87\n        /* \"#utility.yul\":1241:1246   */\n      dup3\n        /* \"#utility.yul\":1223:1247   */\n      tag_55\n      jump\t// in\n    tag_87:\n        /* \"#utility.yul\":1212:1247   */\n      swap1\n      pop\n        /* \"#utility.yul\":1157:1253   */\n      swap2\n      swap1\n      pop\n      jump\t// out\n        /* \"#utility.yul\":1259:1381   */\n    tag_57:\n        /* \"#utility.yul\":1332:1356   */\n      tag_89\n        /* \"#utility.yul\":1350:1355   */\n      dup2\n        /* \"#utility.yul\":1332:1356   */\n      tag_56\n      jump\t// in\n    tag_89:\n        /* \"#utility.yul\":1325:1330   */\n      dup2\n        /* \"#utility.yul\":1322:1357   */\n      eq\n        /* \"#utility.yul\":1312:1375   */\n      tag_90\n      jumpi\n        /* \"#utility.yul\":1371:1372   */\n      0x00\n        /* \"#utility.yul\":1368:1369   */\n      0x00\n        /* \"#utility.yul\":1361:1373   */\n      revert\n        /* \"#utility.yul\":1312:1375   */\n    tag_90:\n        /* \"#utility.yul\":1259:1381   */\n      pop\n      jump\t// out\n        /* \"#utility.yul\":1387:1526   */\n    tag_58:\n        /* \"#utility.yul\":1433:1438   */\n      0x00\n        /* \"#utility.yul\":1471:1477   */\n      dup2\n        /* \"#utility.yul\":1458:1478   */\n      calldataload\n        /* \"#utility.yul\":1449:1478   */\n      swap1\n      pop\n        /* \"#utility.yul\":1487:1520   */\n      tag_92\n        /* \"#utility.yul\":1514:1519   */\n      dup2\n        /* \"#utility.yul\":1487:1520   */\n      tag_57\n      jump\t// in\n    tag_92:\n        /* \"#utility.yul\":1387:1526   */\n      swap3\n      swap2\n      pop\n      pop\n      jump\t// out\n        /* \"#utility.yul\":1532:1861   */\n    tag_15:\n        /* \"#utility.yul\":1591:1597   */\n      0x00\n        /* \"#utility.yul\":1640:1642   */\n      0x20\n        /* \"#utility.yul\":1628:1637   */\n      dup3\n        /* \"#utility.yul\":1619:1626   */\n      dup5\n        /* \"#utility.yul\":1615:1638   */\n      sub\n        /* \"#utility.yul\":1611:1643   */\n      slt\n        /* \"#utility.yul\":1608:1727   */\n      iszero\n      tag_94\n      jumpi\n        /* \"#utility.yul\":1646:1725   */\n      tag_95\n      tag_50\n      jump\t// in\n    tag_95:\n        /* \"#utility.yul\":1608:1727   */\n    tag_94:\n        /* \"#utility.yul\":1766:1767   */\n      0x00\n        /* \"#utility.yul\":1791:1844   */\n      tag_96\n        /* \"#utility.yul\":1836:1843   */\n      dup5\n        /* \"#utility.yul\":1827:1833   */\n      dup3\n        /* \"#utility.yul\":1816:1825   */\n      dup6\n        /* \"#utility.yul\":1812:1834   */\n      add\n        /* \"#utility.yul\":1791:1844   */\n      tag_58\n      jump\t// in\n    tag_96:\n        /* \"#utility.yul\":1781:1844   */\n      swap2\n      pop\n        /* \"#utility.yul\":1737:1854   */\n      pop\n        /* \"#utility.yul\":1532:1861   */\n      swap3\n      swap2\n      pop\n      pop\n      jump\t// out\n        /* \"#utility.yul\":1867:1985   */\n    tag_59:\n        /* \"#utility.yul\":1954:1978   */\n      tag_98\n        /* \"#utility.yul\":1972:1977   */\n      dup2\n        /* \"#utility.yul\":1954:1978   */\n      tag_52\n      jump\t// in\n    tag_98:\n        /* \"#utility.yul\":1949:1952   */\n      dup3\n        /* \"#utility.yul\":1942:1979   */\n      mstore\n        /* \"#utility.yul\":1867:1985   */\n      pop\n      pop\n      jump\t// out\n        /* \"#utility.yul\":1991:2213   */\n    tag_18:\n        /* \"#utility.yul\":2084:2088   */\n      0x00\n        /* \"#utility.yul\":2122:2124   */\n      0x20\n        /* \"#utility.yul\":2111:2120   */\n      dup3\n        /* \"#utility.yul\":2107:2125   */\n      add\n        /* \"#utility.yul\":2099:2125   */\n      swap1\n      pop\n        /* \"#utility.yul\":2135:2206   */\n      tag_100\n        /* \"#utility.yul\":2203:2204   */\n      0x00\n        /* \"#utility.yul\":2192:2201   */\n      dup4\n        /* \"#utility.yul\":2188:2205   */\n      add\n        /* \"#utility.yul\":2179:2185   */\n      dup5\n        /* \"#utility.yul\":2135:2206   */\n      tag_59\n      jump\t// in\n    tag_100:\n        /* \"#utility.yul\":1991:2213   */\n      swap3\n      swap2\n      pop\n      pop\n      jump\t// out\n        /* \"#utility.yul\":2219:2388   */\n    tag_60:\n        /* \"#utility.yul\":2303:2314   */\n      0x00\n        /* \"#utility.yul\":2337:2343   */\n      dup3\n        /* \"#utility.yul\":2332:2335   */\n      dup3\n        /* \"#utility.yul\":2325:2344   */\n      mstore\n        /* \"#utility.yul\":2377:2381   */\n      0x20\n        /* \"#utility.yul\":2372:2375   */\n      dup3\n        /* \"#utility.yul\":2368:2382   */\n      add\n        /* \"#utility.yul\":2353:2382   */\n      swap1\n      pop\n        /* \"#utility.yul\":2219:2388   */\n      swap3\n      swap2\n      pop\n      pop\n      jump\t// out\n        /* \"#utility.yul\":2394:2573   */\n    tag_61:\n        /* \"#utility.yul\":2534:2565   */\n      0x416d6f756e74206d7573742062652067726561746572207468616e2030000000\n        /* \"#utility.yul\":2530:2531   */\n      0x00\n        /* \"#utility.yul\":2522:2528   */\n      dup3\n        /* \"#utility.yul\":2518:2532   */\n      add\n        /* \"#utility.yul\":2511:2566   */\n      mstore\n        /* \"#utility.yul\":2394:2573   */\n      pop\n      jump\t// out\n        /* \"#utility.yul\":2579:2945   */\n    tag_62:\n        /* \"#utility.yul\":2721:2724   */\n      0x00\n        /* \"#utility.yul\":2742:2809   */\n      tag_104\n        /* \"#utility.yul\":2806:2808   */\n      0x1d\n        /* \"#utility.yul\":2801:2804   */\n      dup4\n        /* \"#utility.yul\":2742:2809   */\n      tag_60\n      jump\t// in\n    tag_104:\n        /* \"#utility.yul\":2735:2809   */\n      swap2\n      pop\n        /* \"#utility.yul\":2818:2911   */\n      tag_105\n        /* \"#utility.yul\":2907:2910   */\n      dup3\n        /* \"#utility.yul\":2818:2911   */\n      tag_61\n      jump\t// in\n    tag_105:\n        /* \"#utility.yul\":2936:2938   */\n      0x20\n        /* \"#utility.yul\":2931:2934   */\n      dup3\n        /* \"#utility.yul\":2927:2939   */\n      add\n        /* \"#utility.yul\":2920:2939   */\n      swap1\n      pop\n        /* \"#utility.yul\":2579:2945   */\n      swap2\n      swap1\n      pop\n      jump\t// out\n        /* \"#utility.yul\":2951:3370   */\n    tag_22:\n        /* \"#utility.yul\":3117:3121   */\n      0x00\n        /* \"#utility.yul\":3155:3157   */\n      0x20\n        /* \"#utility.yul\":3144:3153   */\n      dup3\n        /* \"#utility.yul\":3140:3158   */\n      add\n        /* \"#utility.yul\":3132:3158   */\n      swap1\n      pop\n        /* \"#utility.yul\":3204:3213   */\n      dup2\n        /* \"#utility.yul\":3198:3202   */\n      dup2\n        /* \"#utility.yul\":3194:3214   */\n      sub\n        /* \"#utility.yul\":3190:3191   */\n      0x00\n        /* \"#utility.yul\":3179:3188   */\n      dup4\n        /* \"#utility.yul\":3175:3192   */\n      add\n        /* \"#utility.yul\":3168:3215   */\n      mstore\n        /* \"#utility.yul\":3232:3363   */\n      tag_107\n        /* \"#utility.yul\":3358:3362   */\n      dup2\n        /* \"#utility.yul\":3232:3363   */\n      tag_62\n      jump\t// in\n    tag_107:\n        /* \"#utility.yul\":3224:3363   */\n      swap1\n      pop\n        /* \"#utility.yul\":2951:3370   */\n      swap2\n      swap1\n      pop\n      jump\t// out\n        /* \"#utility.yul\":3376:3544   */\n    tag_63:\n        /* \"#utility.yul\":3516:3536   */\n      0x4e6f7420656e6f7567682062616c616e63650000000000000000000000000000\n        /* \"#utility.yul\":3512:3513   */\n      0x00\n        /* \"#utility.yul\":3504:3510   */\n      dup3\n        /* \"#utility.yul\":3500:3514   */\n      add\n        /* \"#utility.yul\":3493:3537   */\n      mstore\n        /* \"#utility.yul\":3376:3544   */\n      pop\n      jump\t// out\n        /* \"#utility.yul\":3550:3916   */\n    tag_64:\n        /* \"#utility.yul\":3692:3695   */\n      0x00\n        /* \"#utility.yul\":3713:3780   */\n      tag_110\n        /* \"#utility.yul\":3777:3779   */\n      0x12\n        /* \"#utility.yul\":3772:3775   */\n      dup4\n        /* \"#utility.yul\":3713:3780   */\n      tag_60\n      jump\t// in\n    tag_110:\n        /* \"#utility.yul\":3706:3780   */\n      swap2\n      pop\n        /* \"#utility.yul\":3789:3882   */\n      tag_111\n        /* \"#utility.yul\":3878:3881   */\n      dup3\n        /* \"#utility.yul\":3789:3882   */\n      tag_63\n      jump\t// in\n    tag_111:\n        /* \"#utility.yul\":3907:3909   */\n      0x20\n        /* \"#utility.yul\":3902:3905   */\n      dup3\n        /* \"#utility.yul\":3898:3910   */\n      add\n        /* \"#utility.yul\":3891:3910   */\n      swap1\n      pop\n        /* \"#utility.yul\":3550:3916   */\n      swap2\n      swap1\n      pop\n      jump\t// out\n        /* \"#utility.yul\":3922:4341   */\n    tag_25:\n        /* \"#utility.yul\":4088:4092   */\n      0x00\n        /* \"#utility.yul\":4126:4128   */\n      0x20\n        /* \"#utility.yul\":4115:4124   */\n      dup3\n        /* \"#utility.yul\":4111:4129   */\n      add\n        /* \"#utility.yul\":4103:4129   */\n      swap1\n      pop\n        /* \"#utility.yul\":4175:4184   */\n      dup2\n        /* \"#utility.yul\":4169:4173   */\n      dup2\n        /* \"#utility.yul\":4165:4185   */\n      sub\n        /* \"#utility.yul\":4161:4162   */\n      0x00\n        /* \"#utility.yul\":4150:4159   */\n      dup4\n        /* \"#utility.yul\":4146:4163   */\n      add\n        /* \"#utility.yul\":4139:4186   */\n      mstore\n        /* \"#utility.yul\":4203:4334   */\n      tag_113\n        /* \"#utility.yul\":4329:4333   */\n      dup2\n        /* \"#utility.yul\":4203:4334   */\n      tag_64\n      jump\t// in\n    tag_113:\n        /* \"#utility.yul\":4195:4334   */\n      swap1\n      pop\n        /* \"#utility.yul\":3922:4341   */\n      swap2\n      swap1\n      pop\n      jump\t// out\n        /* \"#utility.yul\":4347:4465   */\n    tag_65:\n        /* \"#utility.yul\":4434:4458   */\n      tag_115\n        /* \"#utility.yul\":4452:4457   */\n      dup2\n        /* \"#utility.yul\":4434:4458   */\n      tag_56\n      jump\t// in\n    tag_115:\n        /* \"#utility.yul\":4429:4432   */\n      dup3\n        /* \"#utility.yul\":4422:4459   */\n      mstore\n        /* \"#utility.yul\":4347:4465   */\n      pop\n      pop\n      jump\t// out\n        /* \"#utility.yul\":4471:4803   */\n    tag_31:\n        /* \"#utility.yul\":4592:4596   */\n      0x00\n        /* \"#utility.yul\":4630:4632   */\n      0x40\n        /* \"#utility.yul\":4619:4628   */\n      dup3\n        /* \"#utility.yul\":4615:4633   */\n      add\n        /* \"#utility.yul\":4607:4633   */\n      swap1\n      pop\n        /* \"#utility.yul\":4643:4714   */\n      tag_117\n        /* \"#utility.yul\":4711:4712   */\n      0x00\n        /* \"#utility.yul\":4700:4709   */\n      dup4\n        /* \"#utility.yul\":4696:4713   */\n      add\n        /* \"#utility.yul\":4687:4693   */\n      dup6\n        /* \"#utility.yul\":4643:4714   */\n      tag_65\n      jump\t// in\n    tag_117:\n        /* \"#utility.yul\":4724:4796   */\n      tag_118\n        /* \"#utility.yul\":4792:4794   */\n      0x20\n        /* \"#utility.yul\":4781:4790   */\n      dup4\n        /* \"#utility.yul\":4777:4795   */\n      add\n        /* \"#utility.yul\":4768:4774   */\n      dup5\n        /* \"#utility.yul\":4724:4796   */\n      tag_59\n      jump\t// in\n    tag_118:\n        /* \"#utility.yul\":4471:4803   */\n      swap4\n      swap3\n      pop\n      pop\n      pop\n      jump\t// out\n        /* \"#utility.yul\":4809:4979   */\n    tag_66:\n        /* \"#utility.yul\":4949:4971   */\n      0x43616e6e6f74206465706f736974203020455448000000000000000000000000\n        /* \"#utility.yul\":4945:4946   */\n      0x00\n        /* \"#utility.yul\":4937:4943   */\n      dup3\n        /* \"#utility.yul\":4933:4947   */\n      add\n        /* \"#utility.yul\":4926:4972   */\n      mstore\n        /* \"#utility.yul\":4809:4979   */\n      pop\n      jump\t// out\n        /* \"#utility.yul\":4985:5351   */\n    tag_67:\n        /* \"#utility.yul\":5127:5130   */\n      0x00\n        /* \"#utility.yul\":5148:5215   */\n      tag_121\n        /* \"#utility.yul\":5212:5214   */\n      0x14\n        /* \"#utility.yul\":5207:5210   */\n      dup4\n        /* \"#utility.yul\":5148:5215   */\n      tag_60\n      jump\t// in\n    tag_121:\n        /* \"#utility.yul\":5141:5215   */\n      swap2\n      pop\n        /* \"#utility.yul\":5224:5317   */\n      tag_122\n        /* \"#utility.yul\":5313:5316   */\n      dup3\n        /* \"#utility.yul\":5224:5317   */\n      tag_66\n      jump\t// in\n    tag_122:\n        /* \"#utility.yul\":5342:5344   */\n      0x20\n        /* \"#utility.yul\":5337:5340   */\n      dup3\n        /* \"#utility.yul\":5333:5345   */\n      add\n        /* \"#utility.yul\":5326:5345   */\n      swap1\n      pop\n        /* \"#utility.yul\":4985:5351   */\n      swap2\n      swap1\n      pop\n      jump\t// out\n        /* \"#utility.yul\":5357:5776   */\n    tag_35:\n        /* \"#utility.yul\":5523:5527   */\n      0x00\n        /* \"#utility.yul\":5561:5563   */\n      0x20\n        /* \"#utility.yul\":5550:5559   */\n      dup3\n        /* \"#utility.yul\":5546:5564   */\n      add\n        /* \"#utility.yul\":5538:5564   */\n      swap1\n      pop\n        /* \"#utility.yul\":5610:5619   */\n      dup2\n        /* \"#utility.yul\":5604:5608   */\n      dup2\n        /* \"#utility.yul\":5600:5620   */\n      sub\n        /* \"#utility.yul\":5596:5597   */\n      0x00\n        /* \"#utility.yul\":5585:5594   */\n      dup4\n        /* \"#utility.yul\":5581:5598   */\n      add\n        /* \"#utility.yul\":5574:5621   */\n      mstore\n        /* \"#utility.yul\":5638:5769   */\n      tag_124\n        /* \"#utility.yul\":5764:5768   */\n      dup2\n        /* \"#utility.yul\":5638:5769   */\n      tag_67\n      jump\t// in\n    tag_124:\n        /* \"#utility.yul\":5630:5769   */\n      swap1\n      pop\n        /* \"#utility.yul\":5357:5776   */\n      swap2\n      swap1\n      pop\n      jump\t// out\n        /* \"#utility.yul\":5782:5953   */\n    tag_68:\n        /* \"#utility.yul\":5922:5945   */\n      0x5375627472616374696f6e20756e646572666c6f770000000000000000000000\n        /* \"#utility.yul\":5918:5919   */\n      0x00\n        /* \"#utility.yul\":5910:5916   */\n      dup3\n        /* \"#utility.yul\":5906:5920   */\n      add\n        /* \"#utility.yul\":5899:5946   */\n      mstore\n        /* \"#utility.yul\":5782:5953   */\n      pop\n      jump\t// out\n        /* \"#utility.yul\":5959:6325   */\n    tag_69:\n        /* \"#utility.yul\":6101:6104   */\n      0x00\n        /* \"#utility.yul\":6122:6189   */\n      tag_127\n        /* \"#utility.yul\":6186:6188   */\n      0x15\n        /* \"#utility.yul\":6181:6184   */\n      dup4\n        /* \"#utility.yul\":6122:6189   */\n      tag_60\n      jump\t// in\n    tag_127:\n        /* \"#utility.yul\":6115:6189   */\n      swap2\n      pop\n        /* \"#utility.yul\":6198:6291   */\n      tag_128\n        /* \"#utility.yul\":6287:6290   */\n      dup3\n        /* \"#utility.yul\":6198:6291   */\n      tag_68\n      jump\t// in\n    tag_128:\n        /* \"#utility.yul\":6316:6318   */\n      0x20\n        /* \"#utility.yul\":6311:6314   */\n      dup3\n        /* \"#utility.yul\":6307:6319   */\n      add\n        /* \"#utility.yul\":6300:6319   */\n      swap1\n      pop\n        /* \"#utility.yul\":5959:6325   */\n      swap2\n      swap1\n      pop\n      jump\t// out\n        /* \"#utility.yul\":6331:6750   */\n    tag_43:\n        /* \"#utility.yul\":6497:6501   */\n      0x00\n        /* \"#utility.yul\":6535:6537   */\n      0x20\n        /* \"#utility.yul\":6524:6533   */\n      dup3\n        /* \"#utility.yul\":6520:6538   */\n      add\n        /* \"#utility.yul\":6512:6538   */\n      swap1\n      pop\n        /* \"#utility.yul\":6584:6593   */\n      dup2\n        /* \"#utility.yul\":6578:6582   */\n      dup2\n        /* \"#utility.yul\":6574:6594   */\n      sub\n        /* \"#utility.yul\":6570:6571   */\n      0x00\n        /* \"#utility.yul\":6559:6568   */\n      dup4\n        /* \"#utility.yul\":6555:6572   */\n      add\n        /* \"#utility.yul\":6548:6595   */\n      mstore\n        /* \"#utility.yul\":6612:6743   */\n      tag_130\n        /* \"#utility.yul\":6738:6742   */\n      dup2\n        /* \"#utility.yul\":6612:6743   */\n      tag_69\n      jump\t// in\n    tag_130:\n        /* \"#utility.yul\":6604:6743   */\n      swap1\n      pop\n        /* \"#utility.yul\":6331:6750   */\n      swap2\n      swap1\n      pop\n      jump\t// out\n        /* \"#utility.yul\":6756:6936   */\n    tag_70:\n        /* \"#utility.yul\":6804:6881   */\n      0x4e487b7100000000000000000000000000000000000000000000000000000000\n        /* \"#utility.yul\":6801:6802   */\n      0x00\n        /* \"#utility.yul\":6794:6882   */\n      mstore\n        /* \"#utility.yul\":6901:6905   */\n      0x11\n        /* \"#utility.yul\":6898:6899   */\n      0x04\n        /* \"#utility.yul\":6891:6906   */\n      mstore\n        /* \"#utility.yul\":6925:6929   */\n      0x24\n        /* \"#utility.yul\":6922:6923   */\n      0x00\n        /* \"#utility.yul\":6915:6930   */\n      revert\n        /* \"#utility.yul\":6942:7136   */\n    tag_45:\n        /* \"#utility.yul\":6982:6986   */\n      0x00\n        /* \"#utility.yul\":7002:7022   */\n      tag_133\n        /* \"#utility.yul\":7020:7021   */\n      dup3\n        /* \"#utility.yul\":7002:7022   */\n      tag_52\n      jump\t// in\n    tag_133:\n        /* \"#utility.yul\":6997:7022   */\n      swap2\n      pop\n        /* \"#utility.yul\":7036:7056   */\n      tag_134\n        /* \"#utility.yul\":7054:7055   */\n      dup4\n        /* \"#utility.yul\":7036:7056   */\n      tag_52\n      jump\t// in\n    tag_134:\n        /* \"#utility.yul\":7031:7056   */\n      swap3\n      pop\n        /* \"#utility.yul\":7080:7081   */\n      dup3\n        /* \"#utility.yul\":7077:7078   */\n      dup3\n        /* \"#utility.yul\":7073:7082   */\n      sub\n        /* \"#utility.yul\":7065:7082   */\n      swap1\n      pop\n        /* \"#utility.yul\":7104:7105   */\n      dup2\n        /* \"#utility.yul\":7098:7102   */\n      dup2\n        /* \"#utility.yul\":7095:7106   */\n      gt\n        /* \"#utility.yul\":7092:7129   */\n      iszero\n      tag_135\n      jumpi\n        /* \"#utility.yul\":7109:7127   */\n      tag_136\n      tag_70\n      jump\t// in\n    tag_136:\n        /* \"#utility.yul\":7092:7129   */\n    tag_135:\n        /* \"#utility.yul\":6942:7136   */\n      swap3\n      swap2\n      pop\n      pop\n      jump\t// out\n        /* \"#utility.yul\":7142:7333   */\n    tag_48:\n        /* \"#utility.yul\":7182:7185   */\n      0x00\n        /* \"#utility.yul\":7201:7221   */\n      tag_138\n        /* \"#utility.yul\":7219:7220   */\n      dup3\n        /* \"#utility.yul\":7201:7221   */\n      tag_52\n      jump\t// in\n    tag_138:\n        /* \"#utility.yul\":7196:7221   */\n      swap2\n      pop\n        /* \"#utility.yul\":7235:7255   */\n      tag_139\n        /* \"#utility.yul\":7253:7254   */\n      dup4\n        /* \"#utility.yul\":7235:7255   */\n      tag_52\n      jump\t// in\n    tag_139:\n        /* \"#utility.yul\":7230:7255   */\n      swap3\n      pop\n        /* \"#utility.yul\":7278:7279   */\n      dup3\n        /* \"#utility.yul\":7275:7276   */\n      dup3\n        /* \"#utility.yul\":7271:7280   */\n      add\n        /* \"#utility.yul\":7264:7280   */\n      swap1\n      pop\n        /* \"#utility.yul\":7299:7302   */\n      dup1\n        /* \"#utility.yul\":7296:7297   */\n      dup3\n        /* \"#utility.yul\":7293:7303   */\n      gt\n        /* \"#utility.yul\":7290:7326   */\n      iszero\n      tag_140\n      jumpi\n        /* \"#utility.yul\":7306:7324   */\n      tag_141\n      tag_70\n      jump\t// in\n    tag_141:\n        /* \"#utility.yul\":7290:7326   */\n    tag_140:\n        /* \"#utility.yul\":7142:7333   */\n      swap3\n      swap2\n      pop\n      pop\n      jump\t// out\n\n    auxdata: 0xa2646970667358221220252791268cfde0d9dd4e73f4f097261c9f1c5de93314a4b324b3868519973dfe64736f6c634300081e0033\n}\n",
				"bytecode": {
					"linkReferences": {},
					"object": "6080604052348015600e575f5ffd5b506107ba8061001c5f395ff3fe608060405260043610610033575f3560e01c80632e1a7d4d14610037578063d0e30db01461005f578063f8b2cb4f14610069575b5f5ffd5b348015610042575f5ffd5b5061005d60048036038101906100589190610433565b6100a5565b005b61006761023e565b005b348015610074575f5ffd5b5061008f600480360381019061008a91906104b8565b61034a565b60405161009c91906104f2565b60405180910390f35b5f81116100e7576040517f08c379a00000000000000000000000000000000000000000000000000000000081526004016100de90610565565b60405180910390fd5b5f5f5f3373ffffffffffffffffffffffffffffffffffffffff1673ffffffffffffffffffffffffffffffffffffffff1681526020019081526020015f205490508181101561016a576040517f08c379a0000000000000000000000000000000000000000000000000000000008152600401610161906105cd565b60405180910390fd5b61017d828261038f90919063ffffffff16565b5f5f3373ffffffffffffffffffffffffffffffffffffffff1673ffffffffffffffffffffffffffffffffffffffff1681526020019081526020015f20819055503373ffffffffffffffffffffffffffffffffffffffff166108fc8390811502906040515f60405180830381858888f19350505050158015610200573d5f5f3e3d5ffd5b507f7084f5476618d8e60b11ef0d7d3f06914655adb8793e28ff7f018d4c76d505d533836040516102329291906105fa565b60405180910390a15050565b5f3411610280576040517f08c379a00000000000000000000000000000000000000000000000000000000081526004016102779061066b565b60405180910390fd5b6102cf345f5f3373ffffffffffffffffffffffffffffffffffffffff1673ffffffffffffffffffffffffffffffffffffffff1681526020019081526020015f20546103e790919063ffffffff16565b5f5f3373ffffffffffffffffffffffffffffffffffffffff1673ffffffffffffffffffffffffffffffffffffffff1681526020019081526020015f20819055507f2da466a7b24304f47e87fa2e1e5a81b9831ce54fec19055ce277ca2f39ba42c433346040516103409291906105fa565b60405180910390a1565b5f5f5f8373ffffffffffffffffffffffffffffffffffffffff1673ffffffffffffffffffffffffffffffffffffffff1681526020019081526020015f20549050919050565b5f828211156103d3576040517f08c379a00000000000000000000000000000000000000000000000000000000081526004016103ca906106d3565b60405180910390fd5b81836103df919061071e565b905092915050565b5f81836103f49190610751565b905092915050565b5f5ffd5b5f819050919050565b61041281610400565b811461041c575f5ffd5b50565b5f8135905061042d81610409565b92915050565b5f60208284031215610448576104476103fc565b5b5f6104558482850161041f565b91505092915050565b5f73ffffffffffffffffffffffffffffffffffffffff82169050919050565b5f6104878261045e565b9050919050565b6104978161047d565b81146104a1575f5ffd5b50565b5f813590506104b28161048e565b92915050565b5f602082840312156104cd576104cc6103fc565b5b5f6104da848285016104a4565b91505092915050565b6104ec81610400565b82525050565b5f6020820190506105055f8301846104e3565b92915050565b5f82825260208201905092915050565b7f416d6f756e74206d7573742062652067726561746572207468616e20300000005f82015250565b5f61054f601d8361050b565b915061055a8261051b565b602082019050919050565b5f6020820190508181035f83015261057c81610543565b9050919050565b7f4e6f7420656e6f7567682062616c616e636500000000000000000000000000005f82015250565b5f6105b760128361050b565b91506105c282610583565b602082019050919050565b5f6020820190508181035f8301526105e4816105ab565b9050919050565b6105f48161047d565b82525050565b5f60408201905061060d5f8301856105eb565b61061a60208301846104e3565b9392505050565b7f43616e6e6f74206465706f7369742030204554480000000000000000000000005f82015250565b5f61065560148361050b565b915061066082610621565b602082019050919050565b5f6020820190508181035f83015261068281610649565b9050919050565b7f5375627472616374696f6e20756e646572666c6f7700000000000000000000005f82015250565b5f6106bd60158361050b565b91506106c882610689565b602082019050919050565b5f6020820190508181035f8301526106ea816106b1565b9050919050565b7f4e487b71000000000000000000000000000000000000000000000000000000005f52601160045260245ffd5b5f61072882610400565b915061073383610400565b925082820390508181111561074b5761074a6106f1565b5b92915050565b5f61075b82610400565b915061076683610400565b925082820190508082111561077e5761077d6106f1565b5b9291505056fea2646970667358221220252791268cfde0d9dd4e73f4f097261c9f1c5de93314a4b324b3868519973dfe64736f6c634300081e0033",
					"opcodes": "PUSH1 0x80 PUSH1 0x40 MSTORE CALLVALUE DUP1 ISZERO PUSH1 0xE JUMPI PUSH0 PUSH0 REVERT JUMPDEST POP PUSH2 0x7BA DUP1 PUSH2 0x1C PUSH0 CODECOPY PUSH0 RETURN INVALID PUSH1 0x80 PUSH1 0x40 MSTORE PUSH1 0x4 CALLDATASIZE LT PUSH2 0x33 JUMPI PUSH0 CALLDATALOAD PUSH1 0xE0 SHR DUP1 PUSH4 0x2E1A7D4D EQ PUSH2 0x37 JUMPI DUP1 PUSH4 0xD0E30DB0 EQ PUSH2 0x5F JUMPI DUP1 PUSH4 0xF8B2CB4F EQ PUSH2 0x69 JUMPI JUMPDEST PUSH0 PUSH0 REVERT JUMPDEST CALLVALUE DUP1 ISZERO PUSH2 0x42 JUMPI PUSH0 PUSH0 REVERT JUMPDEST POP PUSH2 0x5D PUSH1 0x4 DUP1 CALLDATASIZE SUB DUP2 ADD SWAP1 PUSH2 0x58 SWAP2 SWAP1 PUSH2 0x433 JUMP JUMPDEST PUSH2 0xA5 JUMP JUMPDEST STOP JUMPDEST PUSH2 0x67 PUSH2 0x23E JUMP JUMPDEST STOP JUMPDEST CALLVALUE DUP1 ISZERO PUSH2 0x74 JUMPI PUSH0 PUSH0 REVERT JUMPDEST POP PUSH2 0x8F PUSH1 0x4 DUP1 CALLDATASIZE SUB DUP2 ADD SWAP1 PUSH2 0x8A SWAP2 SWAP1 PUSH2 0x4B8 JUMP JUMPDEST PUSH2 0x34A JUMP JUMPDEST PUSH1 0x40 MLOAD PUSH2 0x9C SWAP2 SWAP1 PUSH2 0x4F2 JUMP JUMPDEST PUSH1 0x40 MLOAD DUP1 SWAP2 SUB SWAP1 RETURN JUMPDEST PUSH0 DUP2 GT PUSH2 0xE7 JUMPI PUSH1 0x40 MLOAD PUSH32 0x8C379A000000000000000000000000000000000000000000000000000000000 DUP2 MSTORE PUSH1 0x4 ADD PUSH2 0xDE SWAP1 PUSH2 0x565 JUMP JUMPDEST PUSH1 0x40 MLOAD DUP1 SWAP2 SUB SWAP1 REVERT JUMPDEST PUSH0 PUSH0 PUSH0 CALLER PUSH20 0xFFFFFFFFFFFFFFFFFFFFFFFFFFFFFFFFFFFFFFFF AND PUSH20 0xFFFFFFFFFFFFFFFFFFFFFFFFFFFFFFFFFFFFFFFF AND DUP2 MSTORE PUSH1 0x20 ADD SWAP1 DUP2 MSTORE PUSH1 0x20 ADD PUSH0 KECCAK256 SLOAD SWAP1 POP DUP2 DUP2 LT ISZERO PUSH2 0x16A JUMPI PUSH1 0x40 MLOAD PUSH32 0x8C379A000000000000000000000000000000000000000000000000000000000 DUP2 MSTORE PUSH1 0x4 ADD PUSH2 0x161 SWAP1 PUSH2 0x5CD JUMP JUMPDEST PUSH1 0x40 MLOAD DUP1 SWAP2 SUB SWAP1 REVERT JUMPDEST PUSH2 0x17D DUP3 DUP3 PUSH2 0x38F SWAP1 SWAP2 SWAP1 PUSH4 0xFFFFFFFF AND JUMP JUMPDEST PUSH0 PUSH0 CALLER PUSH20 0xFFFFFFFFFFFFFFFFFFFFFFFFFFFFFFFFFFFFFFFF AND PUSH20 0xFFFFFFFFFFFFFFFFFFFFFFFFFFFFFFFFFFFFFFFF AND DUP2 MSTORE PUSH1 0x20 ADD SWAP1 DUP2 MSTORE PUSH1 0x20 ADD PUSH0 KECCAK256 DUP2 SWAP1 SSTORE POP CALLER PUSH20 0xFFFFFFFFFFFFFFFFFFFFFFFFFFFFFFFFFFFFFFFF AND PUSH2 0x8FC DUP4 SWAP1 DUP2 ISZERO MUL SWAP1 PUSH1 0x40 MLOAD PUSH0 PUSH1 0x40 MLOAD DUP1 DUP4 SUB DUP2 DUP6 DUP9 DUP9 CALL SWAP4 POP POP POP POP ISZERO DUP1 ISZERO PUSH2 0x200 JUMPI RETURNDATASIZE PUSH0 PUSH0 RETURNDATACOPY RETURNDATASIZE PUSH0 REVERT JUMPDEST POP PUSH32 0x7084F5476618D8E60B11EF0D7D3F06914655ADB8793E28FF7F018D4C76D505D5 CALLER DUP4 PUSH1 0x40 MLOAD PUSH2 0x232 SWAP3 SWAP2 SWAP1 PUSH2 0x5FA JUMP JUMPDEST PUSH1 0x40 MLOAD DUP1 SWAP2 SUB SWAP1 LOG1 POP POP JUMP JUMPDEST PUSH0 CALLVALUE GT PUSH2 0x280 JUMPI PUSH1 0x40 MLOAD PUSH32 0x8C379A000000000000000000000000000000000000000000000000000000000 DUP2 MSTORE PUSH1 0x4 ADD PUSH2 0x277 SWAP1 PUSH2 0x66B JUMP JUMPDEST PUSH1 0x40 MLOAD DUP1 SWAP2 SUB SWAP1 REVERT JUMPDEST PUSH2 0x2CF CALLVALUE PUSH0 PUSH0 CALLER PUSH20 0xFFFFFFFFFFFFFFFFFFFFFFFFFFFFFFFFFFFFFFFF AND PUSH20 0xFFFFFFFFFFFFFFFFFFFFFFFFFFFFFFFFFFFFFFFF AND DUP2 MSTORE PUSH1 0x20 ADD SWAP1 DUP2 MSTORE PUSH1 0x20 ADD PUSH0 KECCAK256 SLOAD PUSH2 0x3E7 SWAP1 SWAP2 SWAP1 PUSH4 0xFFFFFFFF AND JUMP JUMPDEST PUSH0 PUSH0 CALLER PUSH20 0xFFFFFFFFFFFFFFFFFFFFFFFFFFFFFFFFFFFFFFFF AND PUSH20 0xFFFFFFFFFFFFFFFFFFFFFFFFFFFFFFFFFFFFFFFF AND DUP2 MSTORE PUSH1 0x20 ADD SWAP1 DUP2 MSTORE PUSH1 0x20 ADD PUSH0 KECCAK256 DUP2 SWAP1 SSTORE POP PUSH32 0x2DA466A7B24304F47E87FA2E1E5A81B9831CE54FEC19055CE277CA2F39BA42C4 CALLER CALLVALUE PUSH1 0x40 MLOAD PUSH2 0x340 SWAP3 SWAP2 SWAP1 PUSH2 0x5FA JUMP JUMPDEST PUSH1 0x40 MLOAD DUP1 SWAP2 SUB SWAP1 LOG1 JUMP JUMPDEST PUSH0 PUSH0 PUSH0 DUP4 PUSH20 0xFFFFFFFFFFFFFFFFFFFFFFFFFFFFFFFFFFFFFFFF AND PUSH20 0xFFFFFFFFFFFFFFFFFFFFFFFFFFFFFFFFFFFFFFFF AND DUP2 MSTORE PUSH1 0x20 ADD SWAP1 DUP2 MSTORE PUSH1 0x20 ADD PUSH0 KECCAK256 SLOAD SWAP1 POP SWAP2 SWAP1 POP JUMP JUMPDEST PUSH0 DUP3 DUP3 GT ISZERO PUSH2 0x3D3 JUMPI PUSH1 0x40 MLOAD PUSH32 0x8C379A000000000000000000000000000000000000000000000000000000000 DUP2 MSTORE PUSH1 0x4 ADD PUSH2 0x3CA SWAP1 PUSH2 0x6D3 JUMP JUMPDEST PUSH1 0x40 MLOAD DUP1 SWAP2 SUB SWAP1 REVERT JUMPDEST DUP2 DUP4 PUSH2 0x3DF SWAP2 SWAP1 PUSH2 0x71E JUMP JUMPDEST SWAP1 POP SWAP3 SWAP2 POP POP JUMP JUMPDEST PUSH0 DUP2 DUP4 PUSH2 0x3F4 SWAP2 SWAP1 PUSH2 0x751 JUMP JUMPDEST SWAP1 POP SWAP3 SWAP2 POP POP JUMP JUMPDEST PUSH0 PUSH0 REVERT JUMPDEST PUSH0 DUP2 SWAP1 POP SWAP2 SWAP1 POP JUMP JUMPDEST PUSH2 0x412 DUP2 PUSH2 0x400 JUMP JUMPDEST DUP2 EQ PUSH2 0x41C JUMPI PUSH0 PUSH0 REVERT JUMPDEST POP JUMP JUMPDEST PUSH0 DUP2 CALLDATALOAD SWAP1 POP PUSH2 0x42D DUP2 PUSH2 0x409 JUMP JUMPDEST SWAP3 SWAP2 POP POP JUMP JUMPDEST PUSH0 PUSH1 0x20 DUP3 DUP5 SUB SLT ISZERO PUSH2 0x448 JUMPI PUSH2 0x447 PUSH2 0x3FC JUMP JUMPDEST JUMPDEST PUSH0 PUSH2 0x455 DUP5 DUP3 DUP6 ADD PUSH2 0x41F JUMP JUMPDEST SWAP2 POP POP SWAP3 SWAP2 POP POP JUMP JUMPDEST PUSH0 PUSH20 0xFFFFFFFFFFFFFFFFFFFFFFFFFFFFFFFFFFFFFFFF DUP3 AND SWAP1 POP SWAP2 SWAP1 POP JUMP JUMPDEST PUSH0 PUSH2 0x487 DUP3 PUSH2 0x45E JUMP JUMPDEST SWAP1 POP SWAP2 SWAP1 POP JUMP JUMPDEST PUSH2 0x497 DUP2 PUSH2 0x47D JUMP JUMPDEST DUP2 EQ PUSH2 0x4A1 JUMPI PUSH0 PUSH0 REVERT JUMPDEST POP JUMP JUMPDEST PUSH0 DUP2 CALLDATALOAD SWAP1 POP PUSH2 0x4B2 DUP2 PUSH2 0x48E JUMP JUMPDEST SWAP3 SWAP2 POP POP JUMP JUMPDEST PUSH0 PUSH1 0x20 DUP3 DUP5 SUB SLT ISZERO PUSH2 0x4CD JUMPI PUSH2 0x4CC PUSH2 0x3FC JUMP JUMPDEST JUMPDEST PUSH0 PUSH2 0x4DA DUP5 DUP3 DUP6 ADD PUSH2 0x4A4 JUMP JUMPDEST SWAP2 POP POP SWAP3 SWAP2 POP POP JUMP JUMPDEST PUSH2 0x4EC DUP2 PUSH2 0x400 JUMP JUMPDEST DUP3 MSTORE POP POP JUMP JUMPDEST PUSH0 PUSH1 0x20 DUP3 ADD SWAP1 POP PUSH2 0x505 PUSH0 DUP4 ADD DUP5 PUSH2 0x4E3 JUMP JUMPDEST SWAP3 SWAP2 POP POP JUMP JUMPDEST PUSH0 DUP3 DUP3 MSTORE PUSH1 0x20 DUP3 ADD SWAP1 POP SWAP3 SWAP2 POP POP JUMP JUMPDEST PUSH32 0x416D6F756E74206D7573742062652067726561746572207468616E2030000000 PUSH0 DUP3 ADD MSTORE POP JUMP JUMPDEST PUSH0 PUSH2 0x54F PUSH1 0x1D DUP4 PUSH2 0x50B JUMP JUMPDEST SWAP2 POP PUSH2 0x55A DUP3 PUSH2 0x51B JUMP JUMPDEST PUSH1 0x20 DUP3 ADD SWAP1 POP SWAP2 SWAP1 POP JUMP JUMPDEST PUSH0 PUSH1 0x20 DUP3 ADD SWAP1 POP DUP2 DUP2 SUB PUSH0 DUP4 ADD MSTORE PUSH2 0x57C DUP2 PUSH2 0x543 JUMP JUMPDEST SWAP1 POP SWAP2 SWAP1 POP JUMP JUMPDEST PUSH32 0x4E6F7420656E6F7567682062616C616E63650000000000000000000000000000 PUSH0 DUP3 ADD MSTORE POP JUMP JUMPDEST PUSH0 PUSH2 0x5B7 PUSH1 0x12 DUP4 PUSH2 0x50B JUMP JUMPDEST SWAP2 POP PUSH2 0x5C2 DUP3 PUSH2 0x583 JUMP JUMPDEST PUSH1 0x20 DUP3 ADD SWAP1 POP SWAP2 SWAP1 POP JUMP JUMPDEST PUSH0 PUSH1 0x20 DUP3 ADD SWAP1 POP DUP2 DUP2 SUB PUSH0 DUP4 ADD MSTORE PUSH2 0x5E4 DUP2 PUSH2 0x5AB JUMP JUMPDEST SWAP1 POP SWAP2 SWAP1 POP JUMP JUMPDEST PUSH2 0x5F4 DUP2 PUSH2 0x47D JUMP JUMPDEST DUP3 MSTORE POP POP JUMP JUMPDEST PUSH0 PUSH1 0x40 DUP3 ADD SWAP1 POP PUSH2 0x60D PUSH0 DUP4 ADD DUP6 PUSH2 0x5EB JUMP JUMPDEST PUSH2 0x61A PUSH1 0x20 DUP4 ADD DUP5 PUSH2 0x4E3 JUMP JUMPDEST SWAP4 SWAP3 POP POP POP JUMP JUMPDEST PUSH32 0x43616E6E6F74206465706F736974203020455448000000000000000000000000 PUSH0 DUP3 ADD MSTORE POP JUMP JUMPDEST PUSH0 PUSH2 0x655 PUSH1 0x14 DUP4 PUSH2 0x50B JUMP JUMPDEST SWAP2 POP PUSH2 0x660 DUP3 PUSH2 0x621 JUMP JUMPDEST PUSH1 0x20 DUP3 ADD SWAP1 POP SWAP2 SWAP1 POP JUMP JUMPDEST PUSH0 PUSH1 0x20 DUP3 ADD SWAP1 POP DUP2 DUP2 SUB PUSH0 DUP4 ADD MSTORE PUSH2 0x682 DUP2 PUSH2 0x649 JUMP JUMPDEST SWAP1 POP SWAP2 SWAP1 POP JUMP JUMPDEST PUSH32 0x5375627472616374696F6E20756E646572666C6F770000000000000000000000 PUSH0 DUP3 ADD MSTORE POP JUMP JUMPDEST PUSH0 PUSH2 0x6BD PUSH1 0x15 DUP4 PUSH2 0x50B JUMP JUMPDEST SWAP2 POP PUSH2 0x6C8 DUP3 PUSH2 0x689 JUMP JUMPDEST PUSH1 0x20 DUP3 ADD SWAP1 POP SWAP2 SWAP1 POP JUMP JUMPDEST PUSH0 PUSH1 0x20 DUP3 ADD SWAP1 POP DUP2 DUP2 SUB PUSH0 DUP4 ADD MSTORE PUSH2 0x6EA DUP2 PUSH2 0x6B1 JUMP JUMPDEST SWAP1 POP SWAP2 SWAP1 POP JUMP JUMPDEST PUSH32 0x4E487B7100000000000000000000000000000000000000000000000000000000 PUSH0 MSTORE PUSH1 0x11 PUSH1 0x4 MSTORE PUSH1 0x24 PUSH0 REVERT JUMPDEST PUSH0 PUSH2 0x728 DUP3 PUSH2 0x400 JUMP JUMPDEST SWAP2 POP PUSH2 0x733 DUP4 PUSH2 0x400 JUMP JUMPDEST SWAP3 POP DUP3 DUP3 SUB SWAP1 POP DUP2 DUP2 GT ISZERO PUSH2 0x74B JUMPI PUSH2 0x74A PUSH2 0x6F1 JUMP JUMPDEST JUMPDEST SWAP3 SWAP2 POP POP JUMP JUMPDEST PUSH0 PUSH2 0x75B DUP3 PUSH2 0x400 JUMP JUMPDEST SWAP2 POP PUSH2 0x766 DUP4 PUSH2 0x400 JUMP JUMPDEST SWAP3 POP DUP3 DUP3 ADD SWAP1 POP DUP1 DUP3 GT ISZERO PUSH2 0x77E JUMPI PUSH2 0x77D PUSH2 0x6F1 JUMP JUMPDEST JUMPDEST SWAP3 SWAP2 POP POP JUMP INVALID LOG2 PUSH5 0x6970667358 0x22 SLT KECCAK256 0x25 0x27 SWAP2 0x26 DUP13 REVERT RJUMP 0xD9DD 0x4E PUSH20 0xF4F097261C9F1C5DE93314A4B324B3868519973D INVALID PUSH5 0x736F6C6343 STOP ADDMOD 0x1E STOP CALLER "
				},
				"gasEstimates": {
					"creation": {
						"codeDepositCost": "395600",
						"executionCost": "428",
						"totalCost": "396028"
					},
					"external": {
						"deposit()": "infinite",
						"getBalance(address)": "2850",
						"withdraw(uint256)": "infinite"
					}
				},
				"methodIdentifiers": {
					"deposit()": "d0e30db0",
					"getBalance(address)": "f8b2cb4f",
					"withdraw(uint256)": "2e1a7d4d"
				}
			},
			"storageLayout": {
				"storage": [
					{
						"astId": 41,
						"contract": "smart-contract-w2-l2.sol:VaultManager",
						"label": "balances",
						"offset": 0,
						"slot": "0",
						"type": "t_mapping(t_address,t_uint256)"
					}
				],
				"types": {
					"t_address": {
						"encoding": "inplace",
						"label": "address",
						"numberOfBytes": "20"
					},
					"t_mapping(t_address,t_uint256)": {
						"encoding": "mapping",
						"key": "t_address",
						"label": "mapping(address => uint256)",
						"numberOfBytes": "32",
						"value": "t_uint256"
					},
					"t_uint256": {
						"encoding": "inplace",
						"label": "uint256",
						"numberOfBytes": "32"
					}
				}
			},
			"userdoc": {
				"kind": "user",
				"methods": {},
				"version": 1
			}
		}
	}
}